{
  "contractName": "BrokenFlowerAccessory",
  "abi": [
    {
      "inputs": [
        {
          "internalType": "address",
          "name": "_proxyRegistryAddress",
          "type": "address"
        }
      ],
      "stateMutability": "nonpayable",
      "type": "constructor"
    },
    {
      "anonymous": false,
      "inputs": [
        {
          "indexed": true,
          "internalType": "address",
          "name": "account",
          "type": "address"
        },
        {
          "indexed": true,
          "internalType": "address",
          "name": "operator",
          "type": "address"
        },
        {
          "indexed": false,
          "internalType": "bool",
          "name": "approved",
          "type": "bool"
        }
      ],
      "name": "ApprovalForAll",
      "type": "event"
    },
    {
      "anonymous": false,
      "inputs": [
        {
          "indexed": false,
          "internalType": "address",
          "name": "userAddress",
          "type": "address"
        },
        {
          "indexed": false,
          "internalType": "address payable",
          "name": "relayerAddress",
          "type": "address"
        },
        {
          "indexed": false,
          "internalType": "bytes",
          "name": "functionSignature",
          "type": "bytes"
        }
      ],
      "name": "MetaTransactionExecuted",
      "type": "event"
    },
    {
      "anonymous": false,
      "inputs": [
        {
          "indexed": true,
          "internalType": "address",
          "name": "previousOwner",
          "type": "address"
        },
        {
          "indexed": true,
          "internalType": "address",
          "name": "newOwner",
          "type": "address"
        }
      ],
      "name": "OwnershipTransferred",
      "type": "event"
    },
    {
      "anonymous": false,
      "inputs": [
        {
          "indexed": true,
          "internalType": "address",
          "name": "operator",
          "type": "address"
        },
        {
          "indexed": true,
          "internalType": "address",
          "name": "from",
          "type": "address"
        },
        {
          "indexed": true,
          "internalType": "address",
          "name": "to",
          "type": "address"
        },
        {
          "indexed": false,
          "internalType": "uint256[]",
          "name": "ids",
          "type": "uint256[]"
        },
        {
          "indexed": false,
          "internalType": "uint256[]",
          "name": "values",
          "type": "uint256[]"
        }
      ],
      "name": "TransferBatch",
      "type": "event"
    },
    {
      "anonymous": false,
      "inputs": [
        {
          "indexed": true,
          "internalType": "address",
          "name": "operator",
          "type": "address"
        },
        {
          "indexed": true,
          "internalType": "address",
          "name": "from",
          "type": "address"
        },
        {
          "indexed": true,
          "internalType": "address",
          "name": "to",
          "type": "address"
        },
        {
          "indexed": false,
          "internalType": "uint256",
          "name": "id",
          "type": "uint256"
        },
        {
          "indexed": false,
          "internalType": "uint256",
          "name": "value",
          "type": "uint256"
        }
      ],
      "name": "TransferSingle",
      "type": "event"
    },
    {
      "anonymous": false,
      "inputs": [
        {
          "indexed": false,
          "internalType": "string",
          "name": "value",
          "type": "string"
        },
        {
          "indexed": true,
          "internalType": "uint256",
          "name": "id",
          "type": "uint256"
        }
      ],
      "name": "URI",
      "type": "event"
    },
    {
      "inputs": [],
      "name": "ERC712_VERSION",
      "outputs": [
        {
          "internalType": "string",
          "name": "",
          "type": "string"
        }
      ],
      "stateMutability": "view",
      "type": "function"
    },
    {
      "inputs": [
        {
          "internalType": "address",
          "name": "account",
          "type": "address"
        },
        {
          "internalType": "uint256",
          "name": "id",
          "type": "uint256"
        }
      ],
      "name": "balanceOf",
      "outputs": [
        {
          "internalType": "uint256",
          "name": "",
          "type": "uint256"
        }
      ],
      "stateMutability": "view",
      "type": "function"
    },
    {
      "inputs": [
        {
          "internalType": "address[]",
          "name": "accounts",
          "type": "address[]"
        },
        {
          "internalType": "uint256[]",
          "name": "ids",
          "type": "uint256[]"
        }
      ],
      "name": "balanceOfBatch",
      "outputs": [
        {
          "internalType": "uint256[]",
          "name": "",
          "type": "uint256[]"
        }
      ],
      "stateMutability": "view",
      "type": "function"
    },
    {
      "inputs": [
        {
          "internalType": "address",
          "name": "_to",
          "type": "address"
        },
        {
          "internalType": "uint256[]",
          "name": "_ids",
          "type": "uint256[]"
        },
        {
          "internalType": "uint256[]",
          "name": "_quantities",
          "type": "uint256[]"
        },
        {
          "internalType": "bytes",
          "name": "_data",
          "type": "bytes"
        }
      ],
      "name": "batchMint",
      "outputs": [],
      "stateMutability": "nonpayable",
      "type": "function"
    },
    {
      "inputs": [
        {
          "internalType": "address",
          "name": "_initialOwner",
          "type": "address"
        },
        {
          "internalType": "uint256",
          "name": "_id",
          "type": "uint256"
        },
        {
          "internalType": "uint256",
          "name": "_initialSupply",
          "type": "uint256"
        },
        {
          "internalType": "string",
          "name": "_uri",
          "type": "string"
        },
        {
          "internalType": "bytes",
          "name": "_data",
          "type": "bytes"
        }
      ],
      "name": "create",
      "outputs": [
        {
          "internalType": "uint256",
          "name": "",
          "type": "uint256"
        }
      ],
      "stateMutability": "nonpayable",
      "type": "function"
    },
    {
      "inputs": [
        {
          "internalType": "uint256",
          "name": "",
          "type": "uint256"
        }
      ],
      "name": "creators",
      "outputs": [
        {
          "internalType": "address",
          "name": "",
          "type": "address"
        }
      ],
      "stateMutability": "view",
      "type": "function"
    },
    {
      "inputs": [
        {
          "internalType": "address",
          "name": "userAddress",
          "type": "address"
        },
        {
          "internalType": "bytes",
          "name": "functionSignature",
          "type": "bytes"
        },
        {
          "internalType": "bytes32",
          "name": "sigR",
          "type": "bytes32"
        },
        {
          "internalType": "bytes32",
          "name": "sigS",
          "type": "bytes32"
        },
        {
          "internalType": "uint8",
          "name": "sigV",
          "type": "uint8"
        }
      ],
      "name": "executeMetaTransaction",
      "outputs": [
        {
          "internalType": "bytes",
          "name": "",
          "type": "bytes"
        }
      ],
      "stateMutability": "payable",
      "type": "function"
    },
    {
      "inputs": [
        {
          "internalType": "uint256",
          "name": "_id",
          "type": "uint256"
        }
      ],
      "name": "exists",
      "outputs": [
        {
          "internalType": "bool",
          "name": "",
          "type": "bool"
        }
      ],
      "stateMutability": "view",
      "type": "function"
    },
    {
      "inputs": [],
      "name": "getChainId",
      "outputs": [
        {
          "internalType": "uint256",
          "name": "",
          "type": "uint256"
        }
      ],
      "stateMutability": "view",
      "type": "function"
    },
    {
      "inputs": [],
      "name": "getDomainSeperator",
      "outputs": [
        {
          "internalType": "bytes32",
          "name": "",
          "type": "bytes32"
        }
      ],
      "stateMutability": "view",
      "type": "function"
    },
    {
      "inputs": [
        {
          "internalType": "address",
          "name": "user",
          "type": "address"
        }
      ],
      "name": "getNonce",
      "outputs": [
        {
          "internalType": "uint256",
          "name": "nonce",
          "type": "uint256"
        }
      ],
      "stateMutability": "view",
      "type": "function"
    },
    {
      "inputs": [
        {
          "internalType": "address",
          "name": "_owner",
          "type": "address"
        },
        {
          "internalType": "address",
          "name": "_operator",
          "type": "address"
        }
      ],
      "name": "isApprovedForAll",
      "outputs": [
        {
          "internalType": "bool",
          "name": "isOperator",
          "type": "bool"
        }
      ],
      "stateMutability": "view",
      "type": "function"
    },
    {
      "inputs": [
        {
          "internalType": "address",
          "name": "_to",
          "type": "address"
        },
        {
          "internalType": "uint256",
          "name": "_id",
          "type": "uint256"
        },
        {
          "internalType": "uint256",
          "name": "_quantity",
          "type": "uint256"
        },
        {
          "internalType": "bytes",
          "name": "_data",
          "type": "bytes"
        }
      ],
      "name": "mint",
      "outputs": [],
      "stateMutability": "nonpayable",
      "type": "function"
    },
    {
      "inputs": [],
      "name": "name",
      "outputs": [
        {
          "internalType": "string",
          "name": "",
          "type": "string"
        }
      ],
      "stateMutability": "view",
      "type": "function"
    },
    {
      "inputs": [],
      "name": "owner",
      "outputs": [
        {
          "internalType": "address",
          "name": "",
          "type": "address"
        }
      ],
      "stateMutability": "view",
      "type": "function"
    },
    {
      "inputs": [],
      "name": "renounceOwnership",
      "outputs": [],
      "stateMutability": "nonpayable",
      "type": "function"
    },
    {
      "inputs": [
        {
          "internalType": "address",
          "name": "from",
          "type": "address"
        },
        {
          "internalType": "address",
          "name": "to",
          "type": "address"
        },
        {
          "internalType": "uint256[]",
          "name": "ids",
          "type": "uint256[]"
        },
        {
          "internalType": "uint256[]",
          "name": "amounts",
          "type": "uint256[]"
        },
        {
          "internalType": "bytes",
          "name": "data",
          "type": "bytes"
        }
      ],
      "name": "safeBatchTransferFrom",
      "outputs": [],
      "stateMutability": "nonpayable",
      "type": "function"
    },
    {
      "inputs": [
        {
          "internalType": "address",
          "name": "from",
          "type": "address"
        },
        {
          "internalType": "address",
          "name": "to",
          "type": "address"
        },
        {
          "internalType": "uint256",
          "name": "id",
          "type": "uint256"
        },
        {
          "internalType": "uint256",
          "name": "amount",
          "type": "uint256"
        },
        {
          "internalType": "bytes",
          "name": "data",
          "type": "bytes"
        }
      ],
      "name": "safeTransferFrom",
      "outputs": [],
      "stateMutability": "nonpayable",
      "type": "function"
    },
    {
      "inputs": [
        {
          "internalType": "address",
          "name": "operator",
          "type": "address"
        },
        {
          "internalType": "bool",
          "name": "approved",
          "type": "bool"
        }
      ],
      "name": "setApprovalForAll",
      "outputs": [],
      "stateMutability": "nonpayable",
      "type": "function"
    },
    {
      "inputs": [
        {
          "internalType": "address",
          "name": "_to",
          "type": "address"
        },
        {
          "internalType": "uint256[]",
          "name": "_ids",
          "type": "uint256[]"
        }
      ],
      "name": "setCreator",
      "outputs": [],
      "stateMutability": "nonpayable",
      "type": "function"
    },
    {
      "inputs": [
        {
          "internalType": "uint256",
          "name": "_tokenId",
          "type": "uint256"
        },
        {
          "internalType": "string",
          "name": "_newURI",
          "type": "string"
        }
      ],
      "name": "setCustomURI",
      "outputs": [],
      "stateMutability": "nonpayable",
      "type": "function"
    },
    {
      "inputs": [
        {
          "internalType": "string",
          "name": "_newURI",
          "type": "string"
        }
      ],
      "name": "setURI",
      "outputs": [],
      "stateMutability": "nonpayable",
      "type": "function"
    },
    {
      "inputs": [
        {
          "internalType": "bytes4",
          "name": "interfaceId",
          "type": "bytes4"
        }
      ],
      "name": "supportsInterface",
      "outputs": [
        {
          "internalType": "bool",
          "name": "",
          "type": "bool"
        }
      ],
      "stateMutability": "view",
      "type": "function"
    },
    {
      "inputs": [],
      "name": "symbol",
      "outputs": [
        {
          "internalType": "string",
          "name": "",
          "type": "string"
        }
      ],
      "stateMutability": "view",
      "type": "function"
    },
    {
      "inputs": [
        {
          "internalType": "uint256",
          "name": "",
          "type": "uint256"
        }
      ],
      "name": "tokenSupply",
      "outputs": [
        {
          "internalType": "uint256",
          "name": "",
          "type": "uint256"
        }
      ],
      "stateMutability": "view",
      "type": "function"
    },
    {
      "inputs": [
        {
          "internalType": "uint256",
          "name": "_id",
          "type": "uint256"
        }
      ],
      "name": "totalSupply",
      "outputs": [
        {
          "internalType": "uint256",
          "name": "",
          "type": "uint256"
        }
      ],
      "stateMutability": "view",
      "type": "function"
    },
    {
      "inputs": [
        {
          "internalType": "address",
          "name": "newOwner",
          "type": "address"
        }
      ],
      "name": "transferOwnership",
      "outputs": [],
      "stateMutability": "nonpayable",
      "type": "function"
    },
    {
      "inputs": [
        {
          "internalType": "uint256",
          "name": "_id",
          "type": "uint256"
        }
      ],
      "name": "uri",
      "outputs": [
        {
          "internalType": "string",
          "name": "",
          "type": "string"
        }
      ],
      "stateMutability": "view",
      "type": "function"
    },
    {
      "inputs": [],
      "name": "contractURI",
      "outputs": [
        {
          "internalType": "string",
          "name": "",
          "type": "string"
        }
      ],
      "stateMutability": "pure",
      "type": "function"
    }
  ],
  "bytecode": "0x60806040526003805460ff191690553480156200001b57600080fd5b50604051620032e2380380620032e28339810160408190526200003e9162000395565b6040518060400160405280601e81526020017f4f70656e5365612042726f6b656e466c6f776572204163636573736f72790000815250604051806040016040528060048152602001634f53434160e01b815250604051806060016040528060378152602001620032ab603791398381620000b881620001b1565b50620000cd620000c7620001c3565b620001df565b600b620000db85826200046c565b50600c620000ea84826200046c565b50600780546001600160a01b0319166001600160a01b038316179055600b8054620001a691906200011b90620003dd565b80601f01602080910402602001604051908101604052809291908181526020018280546200014990620003dd565b80156200019a5780601f106200016e576101008083540402835291602001916200019a565b820191906000526020600020905b8154815290600101906020018083116200017c57829003601f168201915b50506200023192505050565b505050505062000538565b6002620001bf82826200046c565b5050565b6000620001da6200029560201b620013681760201c565b905090565b600680546001600160a01b038381166001600160a01b0319831681179093556040519116919082907f8be0079c531659141344cd1fd0a4f28419497f9722a3daafe3b4186f6b6457e090600090a35050565b60035460ff16156200027a5760405162461bcd60e51b815260206004820152600e60248201526d185b1c9958591e481a5b9a5d195960921b604482015260640160405180910390fd5b6200028581620002f3565b506003805460ff19166001179055565b6000303303620002ed57600080368080601f0160208091040260200160405190810160405280939291908181526020018383808284376000920191909152505050503601516001600160a01b03169150620002f09050565b50335b90565b6040518060800160405280604f81526020016200325c604f9139805160209182012082519282019290922060408051808201825260018152603160f81b90840152805180840194909452838101919091527fc89efdaa54c0f20c7adf612882df0950f5a951637e0307cdcb4c672f298b8bc660608401523060808401524660a0808501919091528151808503909101815260c090930190528151910120600455565b600060208284031215620003a857600080fd5b81516001600160a01b0381168114620003c057600080fd5b9392505050565b634e487b7160e01b600052604160045260246000fd5b600181811c90821680620003f257607f821691505b6020821081036200041357634e487b7160e01b600052602260045260246000fd5b50919050565b601f8211156200046757600081815260208120601f850160051c81016020861015620004425750805b601f850160051c820191505b8181101562000463578281556001016200044e565b5050505b505050565b81516001600160401b03811115620004885762000488620003c7565b620004a081620004998454620003dd565b8462000419565b602080601f831160018114620004d85760008415620004bf5750858301515b600019600386901b1c1916600185901b17855562000463565b600085815260208120601f198616915b828110156200050957888601518255948401946001909101908401620004e8565b5085821015620005285787850151600019600388901b60f8161c191681555b5050505050600190811b01905550565b612d1480620005486000396000f3fe6080604052600436106101515760003560e01c8062fdd58e1461015657806301ffc9a71461018957806302fe5305146101b957806306fdde03146101db5780630c53c51c146101fd5780630e89341c146102105780630f7e59701461023057806320379ee51461025d5780632693ebf2146102725780632d0335ab1461029f5780632eb2c2d6146102d55780633408e470146102f557806336a100d5146103085780633adf80b4146103285780634e1273f4146103485780634f558e7914610375578063715018a614610395578063731133e9146103aa5780638da5cb5b146103ca57806395d89b41146103ec578063a22cb46514610401578063b48ab8b614610421578063bd85b03914610441578063cd53d08e1461046e578063d2a6b51a146104a4578063e8a3d485146104c4578063e985e9c5146104d9578063f242432a146104f9578063f2fde38b14610519575b600080fd5b34801561016257600080fd5b50610176610171366004611f52565b610539565b6040519081526020015b60405180910390f35b34801561019557600080fd5b506101a96101a4366004611f94565b6105d3565b6040519015158152602001610180565b3480156101c557600080fd5b506101d96101d4366004612066565b610623565b005b3480156101e757600080fd5b506101f061066e565b60405161018091906120f2565b6101f061020b366004612105565b6106fc565b34801561021c57600080fd5b506101f061022b366004612182565b6108e5565b34801561023c57600080fd5b506101f0604051806040016040528060018152602001603160f81b81525081565b34801561026957600080fd5b50600454610176565b34801561027e57600080fd5b5061017661028d366004612182565b60096020526000908152604090205481565b3480156102ab57600080fd5b506101766102ba36600461219b565b6001600160a01b031660009081526005602052604090205490565b3480156102e157600080fd5b506101d96102f036600461224c565b610aa3565b34801561030157600080fd5b5046610176565b34801561031457600080fd5b506101766103233660046122f9565b610b4c565b34801561033457600080fd5b506101d9610343366004612352565b610c8e565b34801561035457600080fd5b50610368610363366004612398565b610d26565b6040516101809190612495565b34801561038157600080fd5b506101a9610390366004612182565b610e4f565b3480156103a157600080fd5b506101d9610e5a565b3480156103b657600080fd5b506101d96103c53660046124a8565b610ea5565b3480156103d657600080fd5b506103df610f25565b604051610180919061250a565b3480156103f857600080fd5b506101f0610f34565b34801561040d57600080fd5b506101d961041c36600461251e565b610f41565b34801561042d57600080fd5b506101d961043c36600461255c565b610f57565b34801561044d57600080fd5b5061017661045c366004612182565b60009081526009602052604090205490565b34801561047a57600080fd5b506103df610489366004612182565b6008602052600090815260409020546001600160a01b031681565b3480156104b057600080fd5b506101d96104bf3660046125ea565b611087565b3480156104d057600080fd5b506101f061113e565b3480156104e557600080fd5b506101a96104f436600461262f565b61115e565b34801561050557600080fd5b506101d961051436600461265d565b611222565b34801561052557600080fd5b506101d961053436600461219b565b6112bb565b60006001600160a01b0383166105aa5760405162461bcd60e51b815260206004820152602b60248201527f455243313135353a2062616c616e636520717565727920666f7220746865207a60448201526a65726f206164647265737360a81b60648201526084015b60405180910390fd5b506000818152602081815260408083206001600160a01b03861684529091529020545b92915050565b60006001600160e01b03198216636cdb3d1360e11b148061060457506001600160e01b031982166303a24d0760e21b145b806105cd57506301ffc9a760e01b6001600160e01b03198316146105cd565b61062b6113c4565b6001600160a01b031661063c610f25565b6001600160a01b0316146106625760405162461bcd60e51b81526004016105a1906126c5565b61066b816113d3565b50565b600b805461067b906126fa565b80601f01602080910402602001604051908101604052809291908181526020018280546106a7906126fa565b80156106f45780601f106106c9576101008083540402835291602001916106f4565b820191906000526020600020905b8154815290600101906020018083116106d757829003601f168201915b505050505081565b60408051606081810183526001600160a01b0388166000818152600560209081529085902054845283015291810186905261073a87828787876113df565b6107905760405162461bcd60e51b815260206004820152602160248201527f5369676e657220616e64207369676e617475726520646f206e6f74206d6174636044820152600d60fb1b60648201526084016105a1565b6001600160a01b0387166000908152600560205260409020546107b49060016114cf565b6001600160a01b0388166000908152600560205260409081902091909155517f5845892132946850460bff5a0083f71031bc5bf9aadcd40f1de79423eac9b10b9061080490899033908a9061272e565b60405180910390a1600080306001600160a01b0316888a60405160200161082c929190612763565b60408051601f198184030181529082905261084691612795565b6000604051808303816000865af19150503d8060008114610883576040519150601f19603f3d011682016040523d82523d6000602084013e610888565b606091505b5091509150816108d95760405162461bcd60e51b815260206004820152601c60248201527b119d5b98dd1a5bdb8818d85b1b081b9bdd081cdd58d8d95cdcd99d5b60221b60448201526064016105a1565b98975050505050505050565b60606108f0826114db565b61094b5760405162461bcd60e51b815260206004820152602660248201527f455243313135355472616461626c65237572693a204e4f4e4558495354454e546044820152652faa27a5a2a760d11b60648201526084016105a1565b6000828152600a602052604081208054610964906126fa565b80601f0160208091040260200160405190810160405280929190818152602001828054610990906126fa565b80156109dd5780601f106109b2576101008083540402835291602001916109dd565b820191906000526020600020905b8154815290600101906020018083116109c057829003601f168201915b50505050509050600081511115610a8d576000838152600a602052604090208054610a07906126fa565b80601f0160208091040260200160405190810160405280929190818152602001828054610a33906126fa565b8015610a805780601f10610a5557610100808354040283529160200191610a80565b820191906000526020600020905b815481529060010190602001808311610a6357829003601f168201915b5050505050915050919050565b610a96836114f8565b9392505050565b50919050565b610aab6113c4565b6001600160a01b0316856001600160a01b03161480610ad15750610ad1856104f46113c4565b610b385760405162461bcd60e51b815260206004820152603260248201527f455243313135353a207472616e736665722063616c6c6572206973206e6f74206044820152711bdddb995c881b9bdc88185c1c1c9bdd995960721b60648201526084016105a1565b610b45858585858561158c565b5050505050565b6000610b566113c4565b6001600160a01b0316610b67610f25565b6001600160a01b031614610b8d5760405162461bcd60e51b81526004016105a1906126c5565b610b96856114db565b15610bde5760405162461bcd60e51b8152602060048201526018602482015277746f6b656e205f696420616c72656164792065786973747360401b60448201526064016105a1565b610be66113c4565b600086815260086020526040902080546001600160a01b0319166001600160a01b0392909216919091179055825115610c6b576000858152600a60205260409020610c3184826127f7565b50847f6bb7ff708619ba0610cba295a58592e0451dee2622938c8755667688daf3529b84604051610c6291906120f2565b60405180910390a25b610c7786868685611733565b505050600082815260096020526040902055919050565b81610c976113c4565b6000828152600860205260409020546001600160a01b03908116911614610cd05760405162461bcd60e51b81526004016105a1906128b6565b6000838152600a60205260409020610ce883826127f7565b50827f6bb7ff708619ba0610cba295a58592e0451dee2622938c8755667688daf3529b83604051610d1991906120f2565b60405180910390a2505050565b60608151835114610d8b5760405162461bcd60e51b815260206004820152602960248201527f455243313135353a206163636f756e747320616e6420696473206c656e677468604482015268040dad2e6dac2e8c6d60bb1b60648201526084016105a1565b600083516001600160401b03811115610da657610da6611fb1565b604051908082528060200260200182016040528015610dcf578160200160208202803683370190505b50905060005b8451811015610e4757610e1a858281518110610df357610df3612907565b6020026020010151858381518110610e0d57610e0d612907565b6020026020010151610539565b828281518110610e2c57610e2c612907565b6020908102919091010152610e4081612933565b9050610dd5565b509392505050565b60006105cd826114db565b610e626113c4565b6001600160a01b0316610e73610f25565b6001600160a01b031614610e995760405162461bcd60e51b81526004016105a1906126c5565b610ea3600061180e565b565b82610eae6113c4565b6000828152600860205260409020546001600160a01b03908116911614610ee75760405162461bcd60e51b81526004016105a1906128b6565b610ef385858585611733565b600084815260096020526040902054610f0c90846114cf565b6000948552600960205260409094209390935550505050565b6006546001600160a01b031690565b600c805461067b906126fa565b610f53610f4c6113c4565b8383611860565b5050565b60005b8351811015611074576000848281518110610f7757610f77612907565b60200260200101519050610f896113c4565b6000828152600860205260409020546001600160a01b0390811691161461100a5760405162461bcd60e51b815260206004820152602f60248201527f455243313135355472616461626c652362617463684d696e743a204f4e4c595f60448201526e10d491505513d497d0531313d5d151608a1b60648201526084016105a1565b600084838151811061101e5761101e612907565b6020026020010151905061104e8160096000858152602001908152602001600020546114cf90919063ffffffff16565b60009283526009602052604090922091909155508061106c81612933565b915050610f5a565b5061108184848484611940565b50505050565b6001600160a01b0382166110f25760405162461bcd60e51b815260206004820152602c60248201527f455243313135355472616461626c652373657443726561746f723a20494e564160448201526b2624a22fa0a2222922a9a99760a11b60648201526084016105a1565b60005b815181101561113957600082828151811061111257611112612907565b602002602001015190506111268482611a96565b508061113181612933565b9150506110f5565b505050565b60606040518060600160405280603d8152602001612ca2603d9139905090565b60075460405163c455279160e01b81526000916001600160a01b039081169190841690829063c45527919061119790889060040161250a565b602060405180830381865afa1580156111b4573d6000803e3d6000fd5b505050506040513d601f19601f820116820180604052508101906111d8919061294c565b6001600160a01b0316036111f05760019150506105cd565b6001600160a01b0380851660009081526001602090815260408083209387168352929052205460ff165b949350505050565b61122a6113c4565b6001600160a01b0316856001600160a01b031614806112505750611250856104f46113c4565b6112ae5760405162461bcd60e51b815260206004820152602960248201527f455243313135353a2063616c6c6572206973206e6f74206f776e6572206e6f7260448201526808185c1c1c9bdd995960ba1b60648201526084016105a1565b610b458585858585611b07565b6112c36113c4565b6001600160a01b03166112d4610f25565b6001600160a01b0316146112fa5760405162461bcd60e51b81526004016105a1906126c5565b6001600160a01b03811661135f5760405162461bcd60e51b815260206004820152602660248201527f4f776e61626c653a206e6577206f776e657220697320746865207a65726f206160448201526564647265737360d01b60648201526084016105a1565b61066b8161180e565b60003033036113be57600080368080601f0160208091040260200160405190810160405280939291908181526020018383808284376000920191909152505050503601516001600160a01b031691506113c19050565b50335b90565b60006113ce611368565b905090565b6002610f5382826127f7565b60006001600160a01b0386166114455760405162461bcd60e51b815260206004820152602560248201527f4e61746976654d6574615472616e73616374696f6e3a20494e56414c49445f5360448201526424a3a722a960d91b60648201526084016105a1565b600161145861145387611c2f565b611cac565b6040805160008152602081018083529290925260ff851690820152606081018690526080810185905260a0016020604051602081039080840390855afa1580156114a6573d6000803e3d6000fd5b505050602060405103516001600160a01b0316866001600160a01b031614905095945050505050565b6000610a968284612969565b6000908152600860205260409020546001600160a01b0316151590565b606060028054611507906126fa565b80601f0160208091040260200160405190810160405280929190818152602001828054611533906126fa565b80156115805780601f1061155557610100808354040283529160200191611580565b820191906000526020600020905b81548152906001019060200180831161156357829003601f168201915b50505050509050919050565b81518351146115ad5760405162461bcd60e51b81526004016105a190612981565b6001600160a01b0384166115d35760405162461bcd60e51b81526004016105a1906129c9565b60006115dd6113c4565b905060005b84518110156116c55760008582815181106115ff576115ff612907565b60200260200101519050600085838151811061161d5761161d612907565b602090810291909101810151600084815280835260408082206001600160a01b038e16835290935291909120549091508181101561166d5760405162461bcd60e51b81526004016105a190612a0e565b6000838152602081815260408083206001600160a01b038e8116855292528083208585039055908b168252812080548492906116aa908490612969565b92505081905550505050806116be90612933565b90506115e2565b50846001600160a01b0316866001600160a01b0316826001600160a01b03167f4a39dc06d4c0dbc64b70af90fd698a233a518aa5d07e595d983b8c0526c8f7fb8787604051611715929190612a58565b60405180910390a461172b818787878787611cdc565b505050505050565b6001600160a01b0384166117595760405162461bcd60e51b81526004016105a190612a7d565b60006117636113c4565b905061177e8160008761177588611e37565b610b4588611e37565b6000848152602081815260408083206001600160a01b0389168452909152812080548592906117ae908490612969565b909155505060408051858152602081018590526001600160a01b0380881692600092918516917fc3d58168c5ae7397731d063d5bbf3d657854427343f4c083240f7aacaa2d0f62910160405180910390a4610b4581600087878787611e82565b600680546001600160a01b038381166001600160a01b0319831681179093556040519116919082907f8be0079c531659141344cd1fd0a4f28419497f9722a3daafe3b4186f6b6457e090600090a35050565b816001600160a01b0316836001600160a01b0316036118d35760405162461bcd60e51b815260206004820152602960248201527f455243313135353a2073657474696e6720617070726f76616c20737461747573604482015268103337b91039b2b63360b91b60648201526084016105a1565b6001600160a01b03838116600081815260016020908152604080832094871680845294825291829020805460ff191686151590811790915591519182527f17307eab39ab6107e8899845ad3d59bd9653f200f220920489ca2b5937696c31910160405180910390a3505050565b6001600160a01b0384166119665760405162461bcd60e51b81526004016105a190612a7d565b81518351146119875760405162461bcd60e51b81526004016105a190612981565b60006119916113c4565b905060005b8451811015611a2e578381815181106119b1576119b1612907565b60200260200101516000808784815181106119ce576119ce612907565b602002602001015181526020019081526020016000206000886001600160a01b03166001600160a01b031681526020019081526020016000206000828254611a169190612969565b90915550819050611a2681612933565b915050611996565b50846001600160a01b031660006001600160a01b0316826001600160a01b03167f4a39dc06d4c0dbc64b70af90fd698a233a518aa5d07e595d983b8c0526c8f7fb8787604051611a7f929190612a58565b60405180910390a4610b4581600087878787611cdc565b80611a9f6113c4565b6000828152600860205260409020546001600160a01b03908116911614611ad85760405162461bcd60e51b81526004016105a1906128b6565b50600090815260086020526040902080546001600160a01b0319166001600160a01b0392909216919091179055565b6001600160a01b038416611b2d5760405162461bcd60e51b81526004016105a1906129c9565b6000611b376113c4565b9050611b4881878761177588611e37565b6000848152602081815260408083206001600160a01b038a16845290915290205483811015611b895760405162461bcd60e51b81526004016105a190612a0e565b6000858152602081815260408083206001600160a01b038b8116855292528083208785039055908816825281208054869290611bc6908490612969565b909155505060408051868152602081018690526001600160a01b03808916928a821692918616917fc3d58168c5ae7397731d063d5bbf3d657854427343f4c083240f7aacaa2d0f62910160405180910390a4611c26828888888888611e82565b50505050505050565b6000604051806080016040528060438152602001612c5f6043913980516020918201208351848301516040808701518051908601209051611c8f950193845260208401929092526001600160a01b03166040830152606082015260800190565b604051602081830303815290604052805190602001209050919050565b6000611cb760045490565b60405161190160f01b6020820152602281019190915260428101839052606201611c8f565b6001600160a01b0384163b1561172b5760405163bc197c8160e01b81526001600160a01b0385169063bc197c8190611d209089908990889088908890600401612abe565b6020604051808303816000875af1925050508015611d5b575060408051601f3d908101601f19168201909252611d5891810190612b10565b60015b611e0757611d67612b2d565b806308c379a003611da05750611d7b612b48565b80611d865750611da2565b8060405162461bcd60e51b81526004016105a191906120f2565b505b60405162461bcd60e51b815260206004820152603460248201527f455243313135353a207472616e7366657220746f206e6f6e20455243313135356044820152732932b1b2b4bb32b91034b6b83632b6b2b73a32b960611b60648201526084016105a1565b6001600160e01b0319811663bc197c8160e01b14611c265760405162461bcd60e51b81526004016105a190612bd1565b60408051600180825281830190925260609160009190602080830190803683370190505090508281600081518110611e7157611e71612907565b602090810291909101015292915050565b6001600160a01b0384163b1561172b5760405163f23a6e6160e01b81526001600160a01b0385169063f23a6e6190611ec69089908990889088908890600401612c19565b6020604051808303816000875af1925050508015611f01575060408051601f3d908101601f19168201909252611efe91810190612b10565b60015b611f0d57611d67612b2d565b6001600160e01b0319811663f23a6e6160e01b14611c265760405162461bcd60e51b81526004016105a190612bd1565b6001600160a01b038116811461066b57600080fd5b60008060408385031215611f6557600080fd5b8235611f7081611f3d565b946020939093013593505050565b6001600160e01b03198116811461066b57600080fd5b600060208284031215611fa657600080fd5b8135610a9681611f7e565b634e487b7160e01b600052604160045260246000fd5b601f8201601f191681016001600160401b0381118282101715611fec57611fec611fb1565b6040525050565b600082601f83011261200457600080fd5b81356001600160401b0381111561201d5761201d611fb1565b604051612034601f8301601f191660200182611fc7565b81815284602083860101111561204957600080fd5b816020850160208301376000918101602001919091529392505050565b60006020828403121561207857600080fd5b81356001600160401b0381111561208e57600080fd5b61121a84828501611ff3565b60005b838110156120b557818101518382015260200161209d565b838111156110815750506000910152565b600081518084526120de81602086016020860161209a565b601f01601f19169290920160200192915050565b602081526000610a9660208301846120c6565b600080600080600060a0868803121561211d57600080fd5b853561212881611f3d565b945060208601356001600160401b0381111561214357600080fd5b61214f88828901611ff3565b9450506040860135925060608601359150608086013560ff8116811461217457600080fd5b809150509295509295909350565b60006020828403121561219457600080fd5b5035919050565b6000602082840312156121ad57600080fd5b8135610a9681611f3d565b60006001600160401b038211156121d1576121d1611fb1565b5060051b60200190565b600082601f8301126121ec57600080fd5b813560206121f9826121b8565b6040516122068282611fc7565b83815260059390931b850182019282810191508684111561222657600080fd5b8286015b84811015612241578035835291830191830161222a565b509695505050505050565b600080600080600060a0868803121561226457600080fd5b853561226f81611f3d565b9450602086013561227f81611f3d565b935060408601356001600160401b038082111561229b57600080fd5b6122a789838a016121db565b945060608801359150808211156122bd57600080fd5b6122c989838a016121db565b935060808801359150808211156122df57600080fd5b506122ec88828901611ff3565b9150509295509295909350565b600080600080600060a0868803121561231157600080fd5b853561231c81611f3d565b9450602086013593506040860135925060608601356001600160401b038082111561234657600080fd5b6122c989838a01611ff3565b6000806040838503121561236557600080fd5b8235915060208301356001600160401b0381111561238257600080fd5b61238e85828601611ff3565b9150509250929050565b600080604083850312156123ab57600080fd5b82356001600160401b03808211156123c257600080fd5b818501915085601f8301126123d657600080fd5b813560206123e3826121b8565b6040516123f08282611fc7565b83815260059390931b850182019282810191508984111561241057600080fd5b948201945b8386101561243757853561242881611f3d565b82529482019490820190612415565b9650508601359250508082111561244d57600080fd5b5061238e858286016121db565b600081518084526020808501945080840160005b8381101561248a5781518752958201959082019060010161246e565b509495945050505050565b602081526000610a96602083018461245a565b600080600080608085870312156124be57600080fd5b84356124c981611f3d565b9350602085013592506040850135915060608501356001600160401b038111156124f257600080fd5b6124fe87828801611ff3565b91505092959194509250565b6001600160a01b0391909116815260200190565b6000806040838503121561253157600080fd5b823561253c81611f3d565b91506020830135801515811461255157600080fd5b809150509250929050565b6000806000806080858703121561257257600080fd5b843561257d81611f3d565b935060208501356001600160401b038082111561259957600080fd5b6125a5888389016121db565b945060408701359150808211156125bb57600080fd5b6125c7888389016121db565b935060608701359150808211156125dd57600080fd5b506124fe87828801611ff3565b600080604083850312156125fd57600080fd5b823561260881611f3d565b915060208301356001600160401b0381111561262357600080fd5b61238e858286016121db565b6000806040838503121561264257600080fd5b823561264d81611f3d565b9150602083013561255181611f3d565b600080600080600060a0868803121561267557600080fd5b853561268081611f3d565b9450602086013561269081611f3d565b9350604086013592506060860135915060808601356001600160401b038111156126b957600080fd5b6122ec88828901611ff3565b6020808252818101527f4f776e61626c653a2063616c6c6572206973206e6f7420746865206f776e6572604082015260600190565b600181811c9082168061270e57607f821691505b602082108103610a9d57634e487b7160e01b600052602260045260246000fd5b6001600160a01b0384811682528316602082015260606040820181905260009061275a908301846120c6565b95945050505050565b6000835161277581846020880161209a565b60609390931b6001600160601b0319169190920190815260140192915050565b600082516127a781846020870161209a565b9190910192915050565b601f82111561113957600081815260208120601f850160051c810160208610156127d85750805b601f850160051c820191505b8181101561172b578281556001016127e4565b81516001600160401b0381111561281057612810611fb1565b6128248161281e84546126fa565b846127b1565b602080601f83116001811461285957600084156128415750858301515b600019600386901b1c1916600185901b17855561172b565b600085815260208120601f198616915b8281101561288857888601518255948401946001909101908401612869565b50858210156128a65787850151600019600388901b60f8161c191681555b5050505050600190811b01905550565b60208082526031908201527f455243313135355472616461626c652363726561746f724f6e6c793a204f4e4c6040820152701657d0d491505513d497d0531313d5d151607a1b606082015260800190565b634e487b7160e01b600052603260045260246000fd5b634e487b7160e01b600052601160045260246000fd5b6000600182016129455761294561291d565b5060010190565b60006020828403121561295e57600080fd5b8151610a9681611f3d565b6000821982111561297c5761297c61291d565b500190565b60208082526028908201527f455243313135353a2069647320616e6420616d6f756e7473206c656e677468206040820152670dad2e6dac2e8c6d60c31b606082015260800190565b60208082526025908201527f455243313135353a207472616e7366657220746f20746865207a65726f206164604082015264647265737360d81b606082015260800190565b6020808252602a908201527f455243313135353a20696e73756666696369656e742062616c616e636520666f60408201526939103a3930b739b332b960b11b606082015260800190565b604081526000612a6b604083018561245a565b828103602084015261275a818561245a565b60208082526021908201527f455243313135353a206d696e7420746f20746865207a65726f206164647265736040820152607360f81b606082015260800190565b6001600160a01b0386811682528516602082015260a060408201819052600090612aea9083018661245a565b8281036060840152612afc818661245a565b905082810360808401526108d981856120c6565b600060208284031215612b2257600080fd5b8151610a9681611f7e565b600060033d11156113c15760046000803e5060005160e01c90565b600060443d1015612b565790565b6040516003193d81016004833e81513d6001600160401b038160248401118184111715612b8557505050505090565b8285019150815181811115612b9d5750505050505090565b843d8701016020828501011115612bb75750505050505090565b612bc660208286010187611fc7565b509095945050505050565b60208082526028908201527f455243313135353a204552433131353552656365697665722072656a656374656040820152676420746f6b656e7360c01b606082015260800190565b6001600160a01b03868116825285166020820152604081018490526060810183905260a060808201819052600090612c53908301846120c6565b97965050505050505056fe4d6574615472616e73616374696f6e2875696e74323536206e6f6e63652c616464726573732066726f6d2c62797465732066756e6374696f6e5369676e61747572652968747470733a2f2f62726f6b656e666c6f776572732d6170692e6f70656e7365612e696f2f636f6e74726163742f6f70656e7365612d65726331313535a26469706673582212207753dc77356fb95def8eeaaac98428c5e8eca0015b1f92a67c4b202b65632ec964736f6c634300080f0033454950373132446f6d61696e28737472696e67206e616d652c737472696e672076657273696f6e2c6164647265737320766572696679696e67436f6e74726163742c627974657333322073616c742968747470733a2f2f62726f6b656e666c6f776572732d6170692e6f70656e7365612e696f2f6170692f6163636573736f72792f7b69647d",
  "immutableReferences": {},
  "source": "// SPDX-License-Identifier: MIT\n\npragma solidity ^0.8.0;\n\nimport \"./ERC1155Tradable.sol\";\n\n/**\n * @title BrokenFlowerAccessory\n * BrokenFlowerAccessory - a contract for BrokenFlower Accessory semi-fungible tokens.\n */\ncontract BrokenFlowerAccessory is ERC1155Tradable {\n    constructor(address _proxyRegistryAddress)\n        ERC1155Tradable(\n            \"OpenSea BrokenFlower Accessory\",\n            \"OSCA\",\n            \"https://brokenflowers-api.opensea.io/api/accessory/{id}\",\n            _proxyRegistryAddress\n        ) {}\n\n    function contractURI() public pure returns (string memory) {\n        return \"https://brokenflowers-api.opensea.io/contract/opensea-erc1155\";\n    }\n}\n",
  "sourcePath": "/home/jin/dev/BrokenFlowersApp/public/opensea/contracts/BrokenFlowerAccessory.sol",
  "compiler": {
    "name": "solc",
    "version": "0.8.15+commit.e14f2714.Emscripten.clang"
  },
  "schemaVersion": "3.3.4",
  "updatedAt": "2022-07-08T16:20:57.841Z",
  "devdoc": {
    "kind": "dev",
    "methods": {
      "balanceOf(address,uint256)": {
        "details": "See {IERC1155-balanceOf}. Requirements: - `account` cannot be the zero address."
      },
      "balanceOfBatch(address[],uint256[])": {
        "details": "See {IERC1155-balanceOfBatch}. Requirements: - `accounts` and `ids` must have the same length."
      },
      "batchMint(address,uint256[],uint256[],bytes)": {
        "details": "Mint tokens for each id in _ids",
        "params": {
          "_data": "Data to pass if receiver is contract",
          "_ids": "Array of ids to mint",
          "_quantities": "Array of amounts of tokens to mint per id",
          "_to": "The address to mint tokens to"
        }
      },
      "create(address,uint256,uint256,string,bytes)": {
        "details": "Creates a new token type and assigns _initialSupply to an address NOTE: remove onlyOwner if you want third parties to create new tokens on       your contract (which may change your IDs) NOTE: The token id must be passed. This allows lazy creation of tokens or       creating NFTs by setting the id's high bits with the method       described in ERC1155 or to use ids representing values other than       successive small integers. If you wish to create ids as successive       small integers you can either subclass this class to count onchain       or maintain the offchain cache of identifiers recommended in       ERC1155 and calculate successive ids from that.",
        "params": {
          "_data": "Data to pass if receiver is contract",
          "_id": "The id of the token to create (must not currenty exist).",
          "_initialOwner": "address of the first owner of the token",
          "_initialSupply": "amount to supply the first owner",
          "_uri": "Optional URI for this token type"
        },
        "returns": {
          "_0": "The newly created token ID"
        }
      },
      "mint(address,uint256,uint256,bytes)": {
        "details": "Mints some amount of tokens to an address",
        "params": {
          "_data": "Data to pass if receiver is contract",
          "_id": "Token ID to mint",
          "_quantity": "Amount of tokens to mint",
          "_to": "Address of the future owner of the token"
        }
      },
      "owner()": {
        "details": "Returns the address of the current owner."
      },
      "renounceOwnership()": {
        "details": "Leaves the contract without owner. It will not be possible to call `onlyOwner` functions anymore. Can only be called by the current owner. NOTE: Renouncing ownership will leave the contract without an owner, thereby removing any functionality that is only available to the owner."
      },
      "safeBatchTransferFrom(address,address,uint256[],uint256[],bytes)": {
        "details": "See {IERC1155-safeBatchTransferFrom}."
      },
      "safeTransferFrom(address,address,uint256,uint256,bytes)": {
        "details": "See {IERC1155-safeTransferFrom}."
      },
      "setApprovalForAll(address,bool)": {
        "details": "See {IERC1155-setApprovalForAll}."
      },
      "setCreator(address,uint256[])": {
        "details": "Change the creator address for given tokens",
        "params": {
          "_ids": "Array of Token IDs to change creator",
          "_to": "Address of the new creator"
        }
      },
      "setCustomURI(uint256,string)": {
        "details": "Will update the base URI for the token",
        "params": {
          "_newURI": "New URI for the token.",
          "_tokenId": "The token to update. _msgSender() must be its creator."
        }
      },
      "setURI(string)": {
        "details": "Sets a new URI for all token types, by relying on the token type ID substitution mechanism https://eips.ethereum.org/EIPS/eip-1155#metadata[defined in the EIP].",
        "params": {
          "_newURI": "New URI for all tokens"
        }
      },
      "supportsInterface(bytes4)": {
        "details": "See {IERC165-supportsInterface}."
      },
      "totalSupply(uint256)": {
        "details": "Returns the total quantity for a token ID",
        "params": {
          "_id": "uint256 ID of the token to query"
        },
        "returns": {
          "_0": "amount of token in existence"
        }
      },
      "transferOwnership(address)": {
        "details": "Transfers ownership of the contract to a new account (`newOwner`). Can only be called by the current owner."
      }
    },
    "title": "BrokenFlowerAccessory BrokenFlowerAccessory - a contract for BrokenFlower Accessory semi-fungible tokens.",
    "version": 1
  },
  "userdoc": {
    "kind": "user",
    "methods": {
      "isApprovedForAll(address,address)": {
        "notice": "Override isApprovedForAll to whitelist user's OpenSea proxy accounts to enable gas-free listings."
      }
    },
    "version": 1
  }
}