{
  "contractName": "BrokenFlowerLootBox",
  "abi": [
    {
      "inputs": [
        {
          "internalType": "address",
          "name": "_proxyRegistryAddress",
          "type": "address"
        },
        {
          "internalType": "address",
          "name": "_factoryAddress",
          "type": "address"
        }
      ],
      "stateMutability": "nonpayable",
      "type": "constructor"
    },
    {
      "anonymous": false,
      "inputs": [
        {
          "indexed": true,
          "internalType": "address",
          "name": "owner",
          "type": "address"
        },
        {
          "indexed": true,
          "internalType": "address",
          "name": "approved",
          "type": "address"
        },
        {
          "indexed": true,
          "internalType": "uint256",
          "name": "tokenId",
          "type": "uint256"
        }
      ],
      "name": "Approval",
      "type": "event"
    },
    {
      "anonymous": false,
      "inputs": [
        {
          "indexed": true,
          "internalType": "address",
          "name": "owner",
          "type": "address"
        },
        {
          "indexed": true,
          "internalType": "address",
          "name": "operator",
          "type": "address"
        },
        {
          "indexed": false,
          "internalType": "bool",
          "name": "approved",
          "type": "bool"
        }
      ],
      "name": "ApprovalForAll",
      "type": "event"
    },
    {
      "anonymous": false,
      "inputs": [
        {
          "indexed": false,
          "internalType": "address",
          "name": "userAddress",
          "type": "address"
        },
        {
          "indexed": false,
          "internalType": "address payable",
          "name": "relayerAddress",
          "type": "address"
        },
        {
          "indexed": false,
          "internalType": "bytes",
          "name": "functionSignature",
          "type": "bytes"
        }
      ],
      "name": "MetaTransactionExecuted",
      "type": "event"
    },
    {
      "anonymous": false,
      "inputs": [
        {
          "indexed": true,
          "internalType": "address",
          "name": "previousOwner",
          "type": "address"
        },
        {
          "indexed": true,
          "internalType": "address",
          "name": "newOwner",
          "type": "address"
        }
      ],
      "name": "OwnershipTransferred",
      "type": "event"
    },
    {
      "anonymous": false,
      "inputs": [
        {
          "indexed": true,
          "internalType": "address",
          "name": "from",
          "type": "address"
        },
        {
          "indexed": true,
          "internalType": "address",
          "name": "to",
          "type": "address"
        },
        {
          "indexed": true,
          "internalType": "uint256",
          "name": "tokenId",
          "type": "uint256"
        }
      ],
      "name": "Transfer",
      "type": "event"
    },
    {
      "inputs": [],
      "name": "ERC712_VERSION",
      "outputs": [
        {
          "internalType": "string",
          "name": "",
          "type": "string"
        }
      ],
      "stateMutability": "view",
      "type": "function"
    },
    {
      "inputs": [
        {
          "internalType": "address",
          "name": "to",
          "type": "address"
        },
        {
          "internalType": "uint256",
          "name": "tokenId",
          "type": "uint256"
        }
      ],
      "name": "approve",
      "outputs": [],
      "stateMutability": "nonpayable",
      "type": "function"
    },
    {
      "inputs": [
        {
          "internalType": "address",
          "name": "owner",
          "type": "address"
        }
      ],
      "name": "balanceOf",
      "outputs": [
        {
          "internalType": "uint256",
          "name": "",
          "type": "uint256"
        }
      ],
      "stateMutability": "view",
      "type": "function"
    },
    {
      "inputs": [
        {
          "internalType": "address",
          "name": "userAddress",
          "type": "address"
        },
        {
          "internalType": "bytes",
          "name": "functionSignature",
          "type": "bytes"
        },
        {
          "internalType": "bytes32",
          "name": "sigR",
          "type": "bytes32"
        },
        {
          "internalType": "bytes32",
          "name": "sigS",
          "type": "bytes32"
        },
        {
          "internalType": "uint8",
          "name": "sigV",
          "type": "uint8"
        }
      ],
      "name": "executeMetaTransaction",
      "outputs": [
        {
          "internalType": "bytes",
          "name": "",
          "type": "bytes"
        }
      ],
      "stateMutability": "payable",
      "type": "function"
    },
    {
      "inputs": [
        {
          "internalType": "uint256",
          "name": "tokenId",
          "type": "uint256"
        }
      ],
      "name": "getApproved",
      "outputs": [
        {
          "internalType": "address",
          "name": "",
          "type": "address"
        }
      ],
      "stateMutability": "view",
      "type": "function"
    },
    {
      "inputs": [],
      "name": "getChainId",
      "outputs": [
        {
          "internalType": "uint256",
          "name": "",
          "type": "uint256"
        }
      ],
      "stateMutability": "view",
      "type": "function"
    },
    {
      "inputs": [],
      "name": "getDomainSeperator",
      "outputs": [
        {
          "internalType": "bytes32",
          "name": "",
          "type": "bytes32"
        }
      ],
      "stateMutability": "view",
      "type": "function"
    },
    {
      "inputs": [
        {
          "internalType": "address",
          "name": "user",
          "type": "address"
        }
      ],
      "name": "getNonce",
      "outputs": [
        {
          "internalType": "uint256",
          "name": "nonce",
          "type": "uint256"
        }
      ],
      "stateMutability": "view",
      "type": "function"
    },
    {
      "inputs": [
        {
          "internalType": "address",
          "name": "owner",
          "type": "address"
        },
        {
          "internalType": "address",
          "name": "operator",
          "type": "address"
        }
      ],
      "name": "isApprovedForAll",
      "outputs": [
        {
          "internalType": "bool",
          "name": "",
          "type": "bool"
        }
      ],
      "stateMutability": "view",
      "type": "function"
    },
    {
      "inputs": [
        {
          "internalType": "address",
          "name": "_to",
          "type": "address"
        }
      ],
      "name": "mintTo",
      "outputs": [],
      "stateMutability": "nonpayable",
      "type": "function"
    },
    {
      "inputs": [],
      "name": "name",
      "outputs": [
        {
          "internalType": "string",
          "name": "",
          "type": "string"
        }
      ],
      "stateMutability": "view",
      "type": "function"
    },
    {
      "inputs": [],
      "name": "owner",
      "outputs": [
        {
          "internalType": "address",
          "name": "",
          "type": "address"
        }
      ],
      "stateMutability": "view",
      "type": "function"
    },
    {
      "inputs": [
        {
          "internalType": "uint256",
          "name": "tokenId",
          "type": "uint256"
        }
      ],
      "name": "ownerOf",
      "outputs": [
        {
          "internalType": "address",
          "name": "",
          "type": "address"
        }
      ],
      "stateMutability": "view",
      "type": "function"
    },
    {
      "inputs": [],
      "name": "renounceOwnership",
      "outputs": [],
      "stateMutability": "nonpayable",
      "type": "function"
    },
    {
      "inputs": [
        {
          "internalType": "address",
          "name": "from",
          "type": "address"
        },
        {
          "internalType": "address",
          "name": "to",
          "type": "address"
        },
        {
          "internalType": "uint256",
          "name": "tokenId",
          "type": "uint256"
        }
      ],
      "name": "safeTransferFrom",
      "outputs": [],
      "stateMutability": "nonpayable",
      "type": "function"
    },
    {
      "inputs": [
        {
          "internalType": "address",
          "name": "from",
          "type": "address"
        },
        {
          "internalType": "address",
          "name": "to",
          "type": "address"
        },
        {
          "internalType": "uint256",
          "name": "tokenId",
          "type": "uint256"
        },
        {
          "internalType": "bytes",
          "name": "_data",
          "type": "bytes"
        }
      ],
      "name": "safeTransferFrom",
      "outputs": [],
      "stateMutability": "nonpayable",
      "type": "function"
    },
    {
      "inputs": [
        {
          "internalType": "address",
          "name": "operator",
          "type": "address"
        },
        {
          "internalType": "bool",
          "name": "approved",
          "type": "bool"
        }
      ],
      "name": "setApprovalForAll",
      "outputs": [],
      "stateMutability": "nonpayable",
      "type": "function"
    },
    {
      "inputs": [
        {
          "internalType": "bytes4",
          "name": "interfaceId",
          "type": "bytes4"
        }
      ],
      "name": "supportsInterface",
      "outputs": [
        {
          "internalType": "bool",
          "name": "",
          "type": "bool"
        }
      ],
      "stateMutability": "view",
      "type": "function"
    },
    {
      "inputs": [],
      "name": "symbol",
      "outputs": [
        {
          "internalType": "string",
          "name": "",
          "type": "string"
        }
      ],
      "stateMutability": "view",
      "type": "function"
    },
    {
      "inputs": [
        {
          "internalType": "uint256",
          "name": "_tokenId",
          "type": "uint256"
        }
      ],
      "name": "tokenURI",
      "outputs": [
        {
          "internalType": "string",
          "name": "",
          "type": "string"
        }
      ],
      "stateMutability": "pure",
      "type": "function"
    },
    {
      "inputs": [],
      "name": "totalSupply",
      "outputs": [
        {
          "internalType": "uint256",
          "name": "",
          "type": "uint256"
        }
      ],
      "stateMutability": "view",
      "type": "function"
    },
    {
      "inputs": [
        {
          "internalType": "address",
          "name": "from",
          "type": "address"
        },
        {
          "internalType": "address",
          "name": "to",
          "type": "address"
        },
        {
          "internalType": "uint256",
          "name": "tokenId",
          "type": "uint256"
        }
      ],
      "name": "transferFrom",
      "outputs": [],
      "stateMutability": "nonpayable",
      "type": "function"
    },
    {
      "inputs": [
        {
          "internalType": "address",
          "name": "newOwner",
          "type": "address"
        }
      ],
      "name": "transferOwnership",
      "outputs": [],
      "stateMutability": "nonpayable",
      "type": "function"
    },
    {
      "inputs": [
        {
          "internalType": "uint256",
          "name": "_tokenId",
          "type": "uint256"
        }
      ],
      "name": "unpack",
      "outputs": [],
      "stateMutability": "nonpayable",
      "type": "function"
    },
    {
      "inputs": [],
      "name": "baseTokenURI",
      "outputs": [
        {
          "internalType": "string",
          "name": "",
          "type": "string"
        }
      ],
      "stateMutability": "pure",
      "type": "function"
    },
    {
      "inputs": [],
      "name": "itemsPerLootbox",
      "outputs": [
        {
          "internalType": "uint256",
          "name": "",
          "type": "uint256"
        }
      ],
      "stateMutability": "view",
      "type": "function"
    }
  ],
  "bytecode": "0x60806040526006805460ff191690556003600c556000600d553480156200002557600080fd5b50604051620024ba380380620024ba833981016040819052620000489162000340565b6040518060400160405280601381526020017f42726f6b656e466c6f7765724c6f6f74426f7800000000000000000000000000815250604051806040016040528060078152602001660989e9ea8849eb60cb1b8152508382828160009081620000b291906200041d565b506001620000c182826200041d565b505050620000de620000d86200014860201b60201c565b62000164565b600b80546001600160a01b0319166001600160a01b03831617905562000111600a620001b6602090811b62000e1817901c565b6200011c83620001bf565b5050600e80546001600160a01b0319166001600160a01b03939093169290921790915550620004e99050565b60006200015f6200022360201b62000e211760201c565b905090565b600980546001600160a01b038381166001600160a01b0319831681179093556040519116919082907f8be0079c531659141344cd1fd0a4f28419497f9722a3daafe3b4186f6b6457e090600090a35050565b80546001019055565b60065460ff1615620002085760405162461bcd60e51b815260206004820152600e60248201526d185b1c9958591e481a5b9a5d195960921b604482015260640160405180910390fd5b620002138162000281565b506006805460ff19166001179055565b60003033036200027b57600080368080601f0160208091040260200160405190810160405280939291908181526020018383808284376000920191909152505050503601516001600160a01b031691506200027e9050565b50335b90565b6040518060800160405280604f81526020016200246b604f9139805160209182012082519282019290922060408051808201825260018152603160f81b90840152805180840194909452838101919091527fc89efdaa54c0f20c7adf612882df0950f5a951637e0307cdcb4c672f298b8bc660608401523060808401524660a0808501919091528151808503909101815260c090930190528151910120600755565b80516001600160a01b03811681146200033b57600080fd5b919050565b600080604083850312156200035457600080fd5b6200035f8362000323565b91506200036f6020840162000323565b90509250929050565b634e487b7160e01b600052604160045260246000fd5b600181811c90821680620003a357607f821691505b602082108103620003c457634e487b7160e01b600052602260045260246000fd5b50919050565b601f8211156200041857600081815260208120601f850160051c81016020861015620003f35750805b601f850160051c820191505b818110156200041457828155600101620003ff565b5050505b505050565b81516001600160401b0381111562000439576200043962000378565b62000451816200044a84546200038e565b84620003ca565b602080601f831160018114620004895760008415620004705750858301515b600019600386901b1c1916600185901b17855562000414565b600085815260208120601f198616915b82811015620004ba5788860151825594840194600190910190840162000499565b5085821015620004d95787850151600019600388901b60f8161c191681555b5050505050600190811b01905550565b611f7280620004f96000396000f3fe6080604052600436106101315760003560e01c806301ffc9a71461013657806306fdde031461016b578063081812fc1461018d578063095ea7b3146101ba5780630c53c51c146101dc5780630f7e5970146101ef57806318160ddd1461021c57806319d554e11461023f57806320379ee51461025457806323b872dd146102695780632d0335ab146102895780633408e470146102bf57806342842e0e146102d25780636352211e146102f257806370a0823114610312578063715018a614610332578063755edd17146103475780638a02be68146103675780638da5cb5b1461038757806395d89b411461039c578063a22cb465146103b1578063b88d4fde146103d1578063c87b56dd146103f1578063d547cfb714610411578063e985e9c514610426578063f2fde38b14610446575b600080fd5b34801561014257600080fd5b50610156610151366004611875565b610466565b60405190151581526020015b60405180910390f35b34801561017757600080fd5b506101806104b8565b60405161016291906118ea565b34801561019957600080fd5b506101ad6101a83660046118fd565b61054a565b6040516101629190611916565b3480156101c657600080fd5b506101da6101d536600461193f565b6105d7565b005b6101806101ea366004611a0d565b6106f9565b3480156101fb57600080fd5b50610180604051806040016040528060018152602001603160f81b81525081565b34801561022857600080fd5b506102316108e2565b604051908152602001610162565b34801561024b57600080fd5b50600c54610231565b34801561026057600080fd5b50600754610231565b34801561027557600080fd5b506101da610284366004611a8a565b6108fe565b34801561029557600080fd5b506102316102a4366004611acb565b6001600160a01b031660009081526008602052604090205490565b3480156102cb57600080fd5b5046610231565b3480156102de57600080fd5b506101da6102ed366004611a8a565b610936565b3480156102fe57600080fd5b506101ad61030d3660046118fd565b610951565b34801561031e57600080fd5b5061023161032d366004611acb565b6109c8565b34801561033e57600080fd5b506101da610a4f565b34801561035357600080fd5b506101da610362366004611acb565b610a9a565b34801561037357600080fd5b506101da6103823660046118fd565b610b02565b34801561039357600080fd5b506101ad610bde565b3480156103a857600080fd5b50610180610bed565b3480156103bd57600080fd5b506101da6103cc366004611ae8565b610bfc565b3480156103dd57600080fd5b506101da6103ec366004611b26565b610c0e565b3480156103fd57600080fd5b5061018061040c3660046118fd565b610c4d565b34801561041d57600080fd5b50610180610c87565b34801561043257600080fd5b50610156610441366004611b91565b610ca7565b34801561045257600080fd5b506101da610461366004611acb565b610d6b565b60006001600160e01b031982166380ac58cd60e01b148061049757506001600160e01b03198216635b5e139f60e01b145b806104b257506301ffc9a760e01b6001600160e01b03198316145b92915050565b6060600080546104c790611bbf565b80601f01602080910402602001604051908101604052809291908181526020018280546104f390611bbf565b80156105405780601f1061051557610100808354040283529160200191610540565b820191906000526020600020905b81548152906001019060200180831161052357829003601f168201915b5050505050905090565b600061055582610e7d565b6105bb5760405162461bcd60e51b815260206004820152602c60248201527f4552433732313a20617070726f76656420717565727920666f72206e6f6e657860448201526b34b9ba32b73a103a37b5b2b760a11b60648201526084015b60405180910390fd5b506000908152600460205260409020546001600160a01b031690565b60006105e282610951565b9050806001600160a01b0316836001600160a01b03160361064f5760405162461bcd60e51b815260206004820152602160248201527f4552433732313a20617070726f76616c20746f2063757272656e74206f776e656044820152603960f91b60648201526084016105b2565b806001600160a01b0316610661610e9a565b6001600160a01b0316148061067d575061067d81610441610e9a565b6106ea5760405162461bcd60e51b815260206004820152603860248201527f4552433732313a20617070726f76652063616c6c6572206973206e6f74206f776044820152771b995c881b9bdc88185c1c1c9bdd995908199bdc88185b1b60421b60648201526084016105b2565b6106f48383610ea4565b505050565b60408051606081810183526001600160a01b038816600081815260086020908152908590205484528301529181018690526107378782878787610f12565b61078d5760405162461bcd60e51b815260206004820152602160248201527f5369676e657220616e64207369676e617475726520646f206e6f74206d6174636044820152600d60fb1b60648201526084016105b2565b6001600160a01b0387166000908152600860205260409020546107b1906001611002565b6001600160a01b0388166000908152600860205260409081902091909155517f5845892132946850460bff5a0083f71031bc5bf9aadcd40f1de79423eac9b10b9061080190899033908a90611bf9565b60405180910390a1600080306001600160a01b0316888a604051602001610829929190611c2e565b60408051601f198184030181529082905261084391611c60565b6000604051808303816000865af19150503d8060008114610880576040519150601f19603f3d011682016040523d82523d6000602084013e610885565b606091505b5091509150816108d65760405162461bcd60e51b815260206004820152601c60248201527b119d5b98dd1a5bdb8818d85b1b081b9bdd081cdd58d8d95cdcd99d5b60221b60448201526064016105b2565b98975050505050505050565b600060016108ef600a5490565b6108f99190611c92565b905090565b61090f610909610e9a565b82611015565b61092b5760405162461bcd60e51b81526004016105b290611ca9565b6106f48383836110d7565b6106f483838360405180602001604052806000815250610c0e565b6000818152600260205260408120546001600160a01b0316806104b25760405162461bcd60e51b815260206004820152602960248201527f4552433732313a206f776e657220717565727920666f72206e6f6e657869737460448201526832b73a103a37b5b2b760b91b60648201526084016105b2565b60006001600160a01b038216610a335760405162461bcd60e51b815260206004820152602a60248201527f4552433732313a2062616c616e636520717565727920666f7220746865207a65604482015269726f206164647265737360b01b60648201526084016105b2565b506001600160a01b031660009081526003602052604090205490565b610a57610e9a565b6001600160a01b0316610a68610bde565b6001600160a01b031614610a8e5760405162461bcd60e51b81526004016105b290611cfa565b610a986000611265565b565b610aa2610e9a565b6001600160a01b0316610ab3610bde565b6001600160a01b031614610ad95760405162461bcd60e51b81526004016105b290611cfa565b6000610ae4600a5490565b9050610af4600a80546001019055565b610afe82826112b7565b5050565b610b0a610e9a565b6001600160a01b0316610b1c82610951565b6001600160a01b031614610b2f57600080fd5b60005b600c54811015610bd157600e54600d546001600160a01b039091169081906394bf804d90610b5e610e9a565b6040516001600160e01b031960e085901b16815260048101929092526001600160a01b03166024820152604401600060405180830381600087803b158015610ba557600080fd5b505af1158015610bb9573d6000803e3d6000fd5b50505050508080610bc990611d2f565b915050610b32565b50610bdb816112d1565b50565b6009546001600160a01b031690565b6060600180546104c790611bbf565b610afe610c07610e9a565b838361135a565b610c1f610c19610e9a565b83611015565b610c3b5760405162461bcd60e51b81526004016105b290611ca9565b610c4784848484611424565b50505050565b6060610c57610c87565b610c6083611457565b604051602001610c71929190611d48565b6040516020818303038152906040529050919050565b60606040518060600160405280602d8152602001611f10602d9139905090565b600b5460405163c455279160e01b81526000916001600160a01b039081169190841690829063c455279190610ce0908890600401611916565b602060405180830381865afa158015610cfd573d6000803e3d6000fd5b505050506040513d601f19601f82011682018060405250810190610d219190611d77565b6001600160a01b031603610d395760019150506104b2565b6001600160a01b0380851660009081526005602090815260408083209387168352929052205460ff165b949350505050565b610d73610e9a565b6001600160a01b0316610d84610bde565b6001600160a01b031614610daa5760405162461bcd60e51b81526004016105b290611cfa565b6001600160a01b038116610e0f5760405162461bcd60e51b815260206004820152602660248201527f4f776e61626c653a206e6577206f776e657220697320746865207a65726f206160448201526564647265737360d01b60648201526084016105b2565b610bdb81611265565b80546001019055565b6000303303610e7757600080368080601f0160208091040260200160405190810160405280939291908181526020018383808284376000920191909152505050503601516001600160a01b03169150610e7a9050565b50335b90565b6000908152600260205260409020546001600160a01b0316151590565b60006108f9610e21565b600081815260046020526040902080546001600160a01b0319166001600160a01b0384169081179091558190610ed982610951565b6001600160a01b03167f8c5be1e5ebec7d5bd14f71427d1e84f3dd0314c0f7b2291e5b200ac8c7c3b92560405160405180910390a45050565b60006001600160a01b038616610f785760405162461bcd60e51b815260206004820152602560248201527f4e61746976654d6574615472616e73616374696f6e3a20494e56414c49445f5360448201526424a3a722a960d91b60648201526084016105b2565b6001610f8b610f8687611557565b6115d4565b6040805160008152602081018083529290925260ff851690820152606081018690526080810185905260a0016020604051602081039080840390855afa158015610fd9573d6000803e3d6000fd5b505050602060405103516001600160a01b0316866001600160a01b031614905095945050505050565b600061100e8284611d94565b9392505050565b600061102082610e7d565b6110815760405162461bcd60e51b815260206004820152602c60248201527f4552433732313a206f70657261746f7220717565727920666f72206e6f6e657860448201526b34b9ba32b73a103a37b5b2b760a11b60648201526084016105b2565b600061108c83610951565b9050806001600160a01b0316846001600160a01b031614806110c75750836001600160a01b03166110bc8461054a565b6001600160a01b0316145b80610d635750610d638185610ca7565b826001600160a01b03166110ea82610951565b6001600160a01b0316146111525760405162461bcd60e51b815260206004820152602960248201527f4552433732313a207472616e73666572206f6620746f6b656e2074686174206960448201526839903737ba1037bbb760b91b60648201526084016105b2565b6001600160a01b0382166111b45760405162461bcd60e51b8152602060048201526024808201527f4552433732313a207472616e7366657220746f20746865207a65726f206164646044820152637265737360e01b60648201526084016105b2565b6111bf600082610ea4565b6001600160a01b03831660009081526003602052604081208054600192906111e8908490611c92565b90915550506001600160a01b0382166000908152600360205260408120805460019290611216908490611d94565b909155505060008181526002602052604080822080546001600160a01b0319166001600160a01b038681169182179092559151849391871691600080516020611ef083398151915291a4505050565b600980546001600160a01b038381166001600160a01b0319831681179093556040519116919082907f8be0079c531659141344cd1fd0a4f28419497f9722a3daafe3b4186f6b6457e090600090a35050565b610afe828260405180602001604052806000815250611604565b60006112dc82610951565b90506112e9600083610ea4565b6001600160a01b0381166000908152600360205260408120805460019290611312908490611c92565b909155505060008281526002602052604080822080546001600160a01b0319169055518391906001600160a01b03841690600080516020611ef0833981519152908390a45050565b816001600160a01b0316836001600160a01b0316036113b75760405162461bcd60e51b815260206004820152601960248201527822a9219b99189d1030b8383937bb32903a379031b0b63632b960391b60448201526064016105b2565b6001600160a01b03838116600081815260056020908152604080832094871680845294825291829020805460ff191686151590811790915591519182527f17307eab39ab6107e8899845ad3d59bd9653f200f220920489ca2b5937696c31910160405180910390a3505050565b61142f8484846110d7565b61143b84848484611637565b610c475760405162461bcd60e51b81526004016105b290611dac565b60608160000361147e5750506040805180820190915260018152600360fc1b602082015290565b8160005b81156114a8578061149281611d2f565b91506114a19050600a83611e14565b9150611482565b6000816001600160401b038111156114c2576114c261196b565b6040519080825280601f01601f1916602001820160405280156114ec576020820181803683370190505b5090505b8415610d6357611501600183611c92565b915061150e600a86611e28565b611519906030611d94565b60f81b81838151811061152e5761152e611e3c565b60200101906001600160f81b031916908160001a905350611550600a86611e14565b94506114f0565b6000604051806080016040528060438152602001611ead60439139805160209182012083518483015160408087015180519086012090516115b7950193845260208401929092526001600160a01b03166040830152606082015260800190565b604051602081830303815290604052805190602001209050919050565b60006115df60075490565b60405161190160f01b60208201526022810191909152604281018390526062016115b7565b61160e838361173f565b61161b6000848484611637565b6106f45760405162461bcd60e51b81526004016105b290611dac565b60006001600160a01b0384163b1561173457836001600160a01b031663150b7a02611660610e9a565b8786866040518563ffffffff1660e01b81526004016116829493929190611e52565b6020604051808303816000875af19250505080156116bd575060408051601f3d908101601f191682019092526116ba91810190611e8f565b60015b61171a573d8080156116eb576040519150601f19603f3d011682016040523d82523d6000602084013e6116f0565b606091505b5080516000036117125760405162461bcd60e51b81526004016105b290611dac565b805181602001fd5b6001600160e01b031916630a85bd0160e11b149050610d63565b506001949350505050565b6001600160a01b0382166117955760405162461bcd60e51b815260206004820181905260248201527f4552433732313a206d696e7420746f20746865207a65726f206164647265737360448201526064016105b2565b61179e81610e7d565b156117ea5760405162461bcd60e51b815260206004820152601c60248201527b115490cdcc8c4e881d1bdad95b88185b1c9958591e481b5a5b9d195960221b60448201526064016105b2565b6001600160a01b0382166000908152600360205260408120805460019290611813908490611d94565b909155505060008181526002602052604080822080546001600160a01b0319166001600160a01b0386169081179091559051839290600080516020611ef0833981519152908290a45050565b6001600160e01b031981168114610bdb57600080fd5b60006020828403121561188757600080fd5b813561100e8161185f565b60005b838110156118ad578181015183820152602001611895565b83811115610c475750506000910152565b600081518084526118d6816020860160208601611892565b601f01601f19169290920160200192915050565b60208152600061100e60208301846118be565b60006020828403121561190f57600080fd5b5035919050565b6001600160a01b0391909116815260200190565b6001600160a01b0381168114610bdb57600080fd5b6000806040838503121561195257600080fd5b823561195d8161192a565b946020939093013593505050565b634e487b7160e01b600052604160045260246000fd5b600082601f83011261199257600080fd5b81356001600160401b03808211156119ac576119ac61196b565b604051601f8301601f19908116603f011681019082821181831017156119d4576119d461196b565b816040528381528660208588010111156119ed57600080fd5b836020870160208301376000602085830101528094505050505092915050565b600080600080600060a08688031215611a2557600080fd5b8535611a308161192a565b945060208601356001600160401b03811115611a4b57600080fd5b611a5788828901611981565b9450506040860135925060608601359150608086013560ff81168114611a7c57600080fd5b809150509295509295909350565b600080600060608486031215611a9f57600080fd5b8335611aaa8161192a565b92506020840135611aba8161192a565b929592945050506040919091013590565b600060208284031215611add57600080fd5b813561100e8161192a565b60008060408385031215611afb57600080fd5b8235611b068161192a565b915060208301358015158114611b1b57600080fd5b809150509250929050565b60008060008060808587031215611b3c57600080fd5b8435611b478161192a565b93506020850135611b578161192a565b92506040850135915060608501356001600160401b03811115611b7957600080fd5b611b8587828801611981565b91505092959194509250565b60008060408385031215611ba457600080fd5b8235611baf8161192a565b91506020830135611b1b8161192a565b600181811c90821680611bd357607f821691505b602082108103611bf357634e487b7160e01b600052602260045260246000fd5b50919050565b6001600160a01b03848116825283166020820152606060408201819052600090611c25908301846118be565b95945050505050565b60008351611c40818460208801611892565b60609390931b6001600160601b0319169190920190815260140192915050565b60008251611c72818460208701611892565b9190910192915050565b634e487b7160e01b600052601160045260246000fd5b600082821015611ca457611ca4611c7c565b500390565b60208082526031908201527f4552433732313a207472616e736665722063616c6c6572206973206e6f74206f6040820152701ddb995c881b9bdc88185c1c1c9bdd9959607a1b606082015260800190565b6020808252818101527f4f776e61626c653a2063616c6c6572206973206e6f7420746865206f776e6572604082015260600190565b600060018201611d4157611d41611c7c565b5060010190565b60008351611d5a818460208801611892565b835190830190611d6e818360208801611892565b01949350505050565b600060208284031215611d8957600080fd5b815161100e8161192a565b60008219821115611da757611da7611c7c565b500190565b60208082526032908201527f4552433732313a207472616e7366657220746f206e6f6e20455243373231526560408201527131b2b4bb32b91034b6b83632b6b2b73a32b960711b606082015260800190565b634e487b7160e01b600052601260045260246000fd5b600082611e2357611e23611dfe565b500490565b600082611e3757611e37611dfe565b500690565b634e487b7160e01b600052603260045260246000fd5b6001600160a01b0385811682528416602082015260408101839052608060608201819052600090611e85908301846118be565b9695505050505050565b600060208284031215611ea157600080fd5b815161100e8161185f56fe4d6574615472616e73616374696f6e2875696e74323536206e6f6e63652c616464726573732066726f6d2c62797465732066756e6374696f6e5369676e617475726529ddf252ad1be2c89b69c2b068fc378daa952ba7f163c4a11628f55a4df523b3ef68747470733a2f2f62726f6b656e666c6f776572732d6170692e6f70656e7365612e696f2f6170692f626f782fa26469706673582212200e73f359e96dc2150782eb459741fbe3e2a8df679c64546ba6b882674112f6e064736f6c634300080f0033454950373132446f6d61696e28737472696e67206e616d652c737472696e672076657273696f6e2c6164647265737320766572696679696e67436f6e74726163742c627974657333322073616c7429",
  "immutableReferences": {},
  "source": "// SPDX-License-Identifier: MIT\n\npragma solidity ^0.8.0;\n\nimport \"./ERC721Tradable.sol\";\nimport \"./BrokenFlower.sol\";\nimport \"./IFactoryERC721.sol\";\n\n/**\n * @title BrokenFlowerLootBox\n *\n * BrokenFlowerLootBox - a tradeable loot box of BrokenFlowers.\n */\ncontract BrokenFlowerLootBox is ERC721Tradable {\n    uint256 NUM_CREATURES_PER_BOX = 3;\n    uint256 OPTION_ID = 0;\n    address factoryAddress;\n\n    constructor(address _proxyRegistryAddress, address _factoryAddress)\n        ERC721Tradable(\"BrokenFlowerLootBox\", \"LOOTBOX\", _proxyRegistryAddress)\n    {\n        factoryAddress = _factoryAddress;\n    }\n\n    function unpack(uint256 _tokenId) public {\n        require(ownerOf(_tokenId) == _msgSender());\n\n        // Insert custom logic for configuring the item here.\n        for (uint256 i = 0; i < NUM_CREATURES_PER_BOX; i++) {\n            // Mint the ERC721 item(s).\n            FactoryERC721 factory = FactoryERC721(factoryAddress);\n            factory.mint(OPTION_ID, _msgSender());\n        }\n\n        // Burn the presale item.\n        _burn(_tokenId);\n    }\n\n    function baseTokenURI() override public pure returns (string memory) {\n        return \"https://brokenflowers-api.opensea.io/api/box/\";\n    }\n\n    function itemsPerLootbox() public view returns (uint256) {\n        return NUM_CREATURES_PER_BOX;\n    }\n}\n",
  "sourcePath": "/home/jin/dev/BrokenFlowersApp/public/opensea/contracts/BrokenFlowerLootBox.sol",
  "compiler": {
    "name": "solc",
    "version": "0.8.15+commit.e14f2714.Emscripten.clang"
  },
  "schemaVersion": "3.3.4",
  "updatedAt": "2022-07-08T16:20:57.977Z",
  "devdoc": {
    "kind": "dev",
    "methods": {
      "approve(address,uint256)": {
        "details": "See {IERC721-approve}."
      },
      "balanceOf(address)": {
        "details": "See {IERC721-balanceOf}."
      },
      "getApproved(uint256)": {
        "details": "See {IERC721-getApproved}."
      },
      "mintTo(address)": {
        "details": "Mints a token to an address with a tokenURI.",
        "params": {
          "_to": "address of the future owner of the token"
        }
      },
      "name()": {
        "details": "See {IERC721Metadata-name}."
      },
      "owner()": {
        "details": "Returns the address of the current owner."
      },
      "ownerOf(uint256)": {
        "details": "See {IERC721-ownerOf}."
      },
      "renounceOwnership()": {
        "details": "Leaves the contract without owner. It will not be possible to call `onlyOwner` functions anymore. Can only be called by the current owner. NOTE: Renouncing ownership will leave the contract without an owner, thereby removing any functionality that is only available to the owner."
      },
      "safeTransferFrom(address,address,uint256)": {
        "details": "See {IERC721-safeTransferFrom}."
      },
      "safeTransferFrom(address,address,uint256,bytes)": {
        "details": "See {IERC721-safeTransferFrom}."
      },
      "setApprovalForAll(address,bool)": {
        "details": "See {IERC721-setApprovalForAll}."
      },
      "supportsInterface(bytes4)": {
        "details": "See {IERC165-supportsInterface}."
      },
      "symbol()": {
        "details": "See {IERC721Metadata-symbol}."
      },
      "totalSupply()": {
        "details": "Returns the total tokens minted so far. 1 is always subtracted from the Counter since it tracks the next available tokenId."
      },
      "transferFrom(address,address,uint256)": {
        "details": "See {IERC721-transferFrom}."
      },
      "transferOwnership(address)": {
        "details": "Transfers ownership of the contract to a new account (`newOwner`). Can only be called by the current owner."
      }
    },
    "title": "BrokenFlowerLootBox BrokenFlowerLootBox - a tradeable loot box of BrokenFlowers.",
    "version": 1
  },
  "userdoc": {
    "kind": "user",
    "methods": {
      "isApprovedForAll(address,address)": {
        "notice": "Override isApprovedForAll to whitelist user's OpenSea proxy accounts to enable gas-less listings."
      }
    },
    "version": 1
  }
}