{
  "contractName": "BrokenFlowerAccessoryFactory",
  "abi": [
    {
      "inputs": [
        {
          "internalType": "address",
          "name": "_proxyRegistryAddress",
          "type": "address"
        },
        {
          "internalType": "address",
          "name": "_nftAddress",
          "type": "address"
        },
        {
          "internalType": "address",
          "name": "_lootBoxAddress",
          "type": "address"
        }
      ],
      "stateMutability": "nonpayable",
      "type": "constructor"
    },
    {
      "anonymous": false,
      "inputs": [
        {
          "indexed": true,
          "internalType": "address",
          "name": "previousOwner",
          "type": "address"
        },
        {
          "indexed": true,
          "internalType": "address",
          "name": "newOwner",
          "type": "address"
        }
      ],
      "name": "OwnershipTransferred",
      "type": "event"
    },
    {
      "inputs": [],
      "name": "BASIC_LOOTBOX",
      "outputs": [
        {
          "internalType": "uint256",
          "name": "",
          "type": "uint256"
        }
      ],
      "stateMutability": "view",
      "type": "function"
    },
    {
      "inputs": [],
      "name": "GOLD_LOOTBOX",
      "outputs": [
        {
          "internalType": "uint256",
          "name": "",
          "type": "uint256"
        }
      ],
      "stateMutability": "view",
      "type": "function"
    },
    {
      "inputs": [],
      "name": "NUM_LOOTBOX_OPTIONS",
      "outputs": [
        {
          "internalType": "uint256",
          "name": "",
          "type": "uint256"
        }
      ],
      "stateMutability": "view",
      "type": "function"
    },
    {
      "inputs": [],
      "name": "NUM_OPTIONS",
      "outputs": [
        {
          "internalType": "uint256",
          "name": "",
          "type": "uint256"
        }
      ],
      "stateMutability": "view",
      "type": "function"
    },
    {
      "inputs": [],
      "name": "PREMIUM_LOOTBOX",
      "outputs": [
        {
          "internalType": "uint256",
          "name": "",
          "type": "uint256"
        }
      ],
      "stateMutability": "view",
      "type": "function"
    },
    {
      "inputs": [],
      "name": "lootBoxAddress",
      "outputs": [
        {
          "internalType": "address",
          "name": "",
          "type": "address"
        }
      ],
      "stateMutability": "view",
      "type": "function"
    },
    {
      "inputs": [],
      "name": "nftAddress",
      "outputs": [
        {
          "internalType": "address",
          "name": "",
          "type": "address"
        }
      ],
      "stateMutability": "view",
      "type": "function"
    },
    {
      "inputs": [],
      "name": "owner",
      "outputs": [
        {
          "internalType": "address",
          "name": "",
          "type": "address"
        }
      ],
      "stateMutability": "view",
      "type": "function"
    },
    {
      "inputs": [],
      "name": "proxyRegistryAddress",
      "outputs": [
        {
          "internalType": "address",
          "name": "",
          "type": "address"
        }
      ],
      "stateMutability": "view",
      "type": "function"
    },
    {
      "inputs": [],
      "name": "renounceOwnership",
      "outputs": [],
      "stateMutability": "nonpayable",
      "type": "function"
    },
    {
      "inputs": [
        {
          "internalType": "address",
          "name": "newOwner",
          "type": "address"
        }
      ],
      "name": "transferOwnership",
      "outputs": [],
      "stateMutability": "nonpayable",
      "type": "function"
    },
    {
      "inputs": [],
      "name": "name",
      "outputs": [
        {
          "internalType": "string",
          "name": "",
          "type": "string"
        }
      ],
      "stateMutability": "pure",
      "type": "function"
    },
    {
      "inputs": [],
      "name": "symbol",
      "outputs": [
        {
          "internalType": "string",
          "name": "",
          "type": "string"
        }
      ],
      "stateMutability": "pure",
      "type": "function"
    },
    {
      "inputs": [],
      "name": "supportsFactoryInterface",
      "outputs": [
        {
          "internalType": "bool",
          "name": "",
          "type": "bool"
        }
      ],
      "stateMutability": "pure",
      "type": "function"
    },
    {
      "inputs": [],
      "name": "factorySchemaName",
      "outputs": [
        {
          "internalType": "string",
          "name": "",
          "type": "string"
        }
      ],
      "stateMutability": "pure",
      "type": "function"
    },
    {
      "inputs": [],
      "name": "numOptions",
      "outputs": [
        {
          "internalType": "uint256",
          "name": "",
          "type": "uint256"
        }
      ],
      "stateMutability": "pure",
      "type": "function"
    },
    {
      "inputs": [
        {
          "internalType": "uint256",
          "name": "_optionId",
          "type": "uint256"
        }
      ],
      "name": "uri",
      "outputs": [
        {
          "internalType": "string",
          "name": "",
          "type": "string"
        }
      ],
      "stateMutability": "pure",
      "type": "function"
    },
    {
      "inputs": [
        {
          "internalType": "uint256",
          "name": "_optionId",
          "type": "uint256"
        },
        {
          "internalType": "uint256",
          "name": "_amount",
          "type": "uint256"
        }
      ],
      "name": "canMint",
      "outputs": [
        {
          "internalType": "bool",
          "name": "",
          "type": "bool"
        }
      ],
      "stateMutability": "view",
      "type": "function"
    },
    {
      "inputs": [
        {
          "internalType": "uint256",
          "name": "_optionId",
          "type": "uint256"
        },
        {
          "internalType": "address",
          "name": "_toAddress",
          "type": "address"
        },
        {
          "internalType": "uint256",
          "name": "_amount",
          "type": "uint256"
        },
        {
          "internalType": "bytes",
          "name": "_data",
          "type": "bytes"
        }
      ],
      "name": "mint",
      "outputs": [],
      "stateMutability": "nonpayable",
      "type": "function"
    },
    {
      "inputs": [
        {
          "internalType": "address",
          "name": "_owner",
          "type": "address"
        },
        {
          "internalType": "uint256",
          "name": "_optionId",
          "type": "uint256"
        }
      ],
      "name": "balanceOf",
      "outputs": [
        {
          "internalType": "uint256",
          "name": "",
          "type": "uint256"
        }
      ],
      "stateMutability": "view",
      "type": "function"
    }
  ],
  "bytecode": "0x608060405234801561001057600080fd5b50604051620011d3380380620011d3833981016040819052610031916100ec565b61003a33610080565b60018055600280546001600160a01b039485166001600160a01b03199182161790915560038054938516938216939093179092556004805491909316911617905561012f565b600080546001600160a01b038381166001600160a01b0319831681178455604051919092169283917f8be0079c531659141344cd1fd0a4f28419497f9722a3daafe3b4186f6b6457e09190a35050565b80516001600160a01b03811681146100e757600080fd5b919050565b60008060006060848603121561010157600080fd5b61010a846100d0565b9250610118602085016100d0565b9150610126604085016100d0565b90509250925092565b611094806200013f6000396000f3fe608060405234801561001057600080fd5b50600436106100fb5760003560e01c8062fdd58e1461010057806306fdde03146101265780630e89341c1461013b57806322e1dea91461014e5780633db62e2c1461017157806345df5787146101795780634b97aed91461019c57806350c9b436146101a45780635bf8633a146101ac578063715018a6146101cc5780638531b06b146101d65780638da5cb5b146101e957806395d89b41146101f1578063a01d9ee414610212578063c0cdf20f1461021a578063c311c52314610222578063c77b66c214610229578063cd7c03261461023c578063f21af56d1461024f578063f2fde38b14610257575b600080fd5b61011361010e366004610c2f565b61026a565b6040519081526020015b60405180910390f35b61012e6103f0565b60405161011d9190610cb3565b61012e610149366004610cc6565b610410565b61016161015c366004610cdf565b61045b565b604051901515815260200161011d565b61011361046f565b6040805180820190915260078152664552433131353560c81b602082015261012e565b61011361047e565b610113610491565b6003546101bf906001600160a01b031681565b60405161011d9190610d01565b6101d461049d565b005b6004546101bf906001600160a01b031681565b6101bf6104e1565b60408051808201909152600581526404f534341560dc1b602082015261012e565b610113600381565b6101136104f0565b6001610161565b6101d4610237366004610d15565b6104fc565b6002546101bf906001600160a01b031681565b6101136105a3565b6101d4610265366004610daa565b6105af565b6000600682101561033a5761027e8361064f565b15801561029957506004546001600160a01b03848116911614155b156102a6575060006103ea565b6003546001600160a01b031660008162fdd58e6102c16104e1565b6040516001600160e01b031960e084901b1681526001600160a01b03909116600482015260248101879052604401602060405180830381865afa15801561030c573d6000803e3d6000fd5b505050506040513d601f19601f820116820180604052508101906103309190610dc7565b92506103ea915050565b6103438361064f565b61034f575060006103ea565b600061035c600684610df6565b6004805460405163bd85b03960e01b81529293506001600160a01b031691600091839163bd85b039916103959187910190815260200190565b602060405180830381865afa1580156103b2573d6000803e3d6000fd5b505050506040513d601f19601f820116820180604052508101906103d69190610dc7565b90506103e46000198261070a565b93505050505b92915050565b606060405180606001604052806023815260200161101760239139905090565b606060405180606001604052806025815260200161103a6025913961043483610716565b604051602001610445929190610e0d565b6040516020818303038152906040529050919050565b600061046833848461081e565b9392505050565b61047b60036006610e50565b81565b600061048c60066003610e50565b905090565b61047b60066002610e50565b336104a66104e1565b6001600160a01b0316146104d55760405162461bcd60e51b81526004016104cc90610e68565b60405180910390fd5b6104df600061083f565b565b6000546001600160a01b031690565b61047b60066000610e50565b60026001540361054e5760405162461bcd60e51b815260206004820152601f60248201527f5265656e7472616e637947756172643a207265656e7472616e742063616c6c0060448201526064016104cc565b600260018190555061059885858585858080601f01602080910402602001604051908101604052809392919081815260200183838082843760009201919091525061088f92505050565b505060018055505050565b61047b60066001610e50565b336105b86104e1565b6001600160a01b0316146105de5760405162461bcd60e51b81526004016104cc90610e68565b6001600160a01b0381166106435760405162461bcd60e51b815260206004820152602660248201527f4f776e61626c653a206e6577206f776e657220697320746865207a65726f206160448201526564647265737360d01b60648201526084016104cc565b61064c8161083f565b50565b6002546000906001600160a01b0390811690831661066b6104e1565b6001600160a01b031614806104685750826001600160a01b0316816001600160a01b031663c455279161069c6104e1565b6040518263ffffffff1660e01b81526004016106b89190610d01565b602060405180830381865afa1580156106d5573d6000803e3d6000fd5b505050506040513d601f19601f820116820180604052508101906106f99190610e9d565b6001600160a01b0316149392505050565b60006104688284610df6565b60608160000361073d5750506040805180820190915260018152600360fc1b602082015290565b8160005b8115610767578061075181610eba565b91506107609050600a83610ee9565b9150610741565b6000816001600160401b0381111561078157610781610efd565b6040519080825280601f01601f1916602001820160405280156107ab576020820181803683370190505b5090505b8415610816576107c0600183610df6565b91506107cd600a86610f13565b6107d8906030610e50565b60f81b8183815181106107ed576107ed610f27565b60200101906001600160f81b031916908160001a90535061080f600a86610ee9565b94506107af565b949350505050565b60008082118015610816575081610835858561026a565b1015949350505050565b600080546001600160a01b038381166001600160a01b0319831681178455604051919092169283917f8be0079c531659141344cd1fd0a4f28419497f9722a3daafe3b4186f6b6457e09190a35050565b61089a33858461081e565b6108ff5760405162461bcd60e51b815260206004820152603060248201527f43726561747572654163636573736f7279466163746f7279235f6d696e743a2060448201526f43414e4e4f545f4d494e545f4d4f524560801b60648201526084016104cc565b60068410156109f1576109113361064f565b8061092f57506004546001600160a01b0316336001600160a01b0316145b61097b5760405162461bcd60e51b815260206004820152601e60248201527f43616c6c65722063616e6e6f74206d696e74206163636573736f72696573000060448201526064016104cc565b6003546001600160a01b03168063f242432a6109956104e1565b868887876040518663ffffffff1660e01b81526004016109b9959493929190610f3d565b600060405180830381600087803b1580156109d357600080fd5b505af11580156109e7573d6000803e3d6000fd5b5050505050610abd565b6109fd60036006610e50565b841015610a8357610a0d3361064f565b610a545760405162461bcd60e51b815260206004820152601860248201527743616c6c65722063616e6e6f74206d696e7420626f78657360401b60448201526064016104cc565b6000610a61600686610df6565b600454909150610a7d906001600160a01b031685838686610ac3565b50610abd565b60405162461bcd60e51b815260206004820152600f60248201526e2ab735b737bbb7102fb7b83a34b7b760891b60448201526064016104cc565b50505050565b604051634f558e7960e01b81526004810184905285906001600160a01b03821690634f558e7990602401602060405180830381865afa158015610b0a573d6000803e3d6000fd5b505050506040513d601f19601f82011682018060405250810190610b2e9190610f82565b610bad576040516336a100d560e01b81526001600160a01b038216906336a100d590610b64908890889088908890600401610fa4565b6020604051808303816000875af1158015610b83573d6000803e3d6000fd5b505050506040513d601f19601f82011682018060405250810190610ba79190610dc7565b50610c12565b60405163731133e960e01b81526001600160a01b0382169063731133e990610bdf908890889088908890600401610fe9565b600060405180830381600087803b158015610bf957600080fd5b505af1158015610c0d573d6000803e3d6000fd5b505050505b505050505050565b6001600160a01b038116811461064c57600080fd5b60008060408385031215610c4257600080fd5b8235610c4d81610c1a565b946020939093013593505050565b60005b83811015610c76578181015183820152602001610c5e565b83811115610abd5750506000910152565b60008151808452610c9f816020860160208601610c5b565b601f01601f19169290920160200192915050565b6020815260006104686020830184610c87565b600060208284031215610cd857600080fd5b5035919050565b60008060408385031215610cf257600080fd5b50508035926020909101359150565b6001600160a01b0391909116815260200190565b600080600080600060808688031215610d2d57600080fd5b853594506020860135610d3f81610c1a565b93506040860135925060608601356001600160401b0380821115610d6257600080fd5b818801915088601f830112610d7657600080fd5b813581811115610d8557600080fd5b896020828501011115610d9757600080fd5b9699959850939650602001949392505050565b600060208284031215610dbc57600080fd5b813561046881610c1a565b600060208284031215610dd957600080fd5b5051919050565b634e487b7160e01b600052601160045260246000fd5b600082821015610e0857610e08610de0565b500390565b60008351610e1f818460208801610c5b565b67666163746f72792f60c01b9083019081528351610e44816008840160208801610c5b565b01600801949350505050565b60008219821115610e6357610e63610de0565b500190565b6020808252818101527f4f776e61626c653a2063616c6c6572206973206e6f7420746865206f776e6572604082015260600190565b600060208284031215610eaf57600080fd5b815161046881610c1a565b600060018201610ecc57610ecc610de0565b5060010190565b634e487b7160e01b600052601260045260246000fd5b600082610ef857610ef8610ed3565b500490565b634e487b7160e01b600052604160045260246000fd5b600082610f2257610f22610ed3565b500690565b634e487b7160e01b600052603260045260246000fd5b6001600160a01b03868116825285166020820152604081018490526060810183905260a060808201819052600090610f7790830184610c87565b979650505050505050565b600060208284031215610f9457600080fd5b8151801515811461046857600080fd5b60018060a01b038516815283602082015282604082015260a06060820152600060a082015260c060808201526000610fdf60c0830184610c87565b9695505050505050565b60018060a01b0385168152836020820152826040820152608060608201526000610fdf6080830184610c8756fe4f70656e536561204372656174757265204163636573736f7279205072652d53616c6568747470733a2f2f6372656174757265732d6170692e6f70656e7365612e696f2f6170692fa26469706673582212206561436ae407cd465ed713ddacbdcb2a58ef2c393049fda07717ad100466703364736f6c634300080f0033",
  "immutableReferences": {},
  "source": "// SPDX-License-Identifier: MIT\n\npragma solidity ^0.8.0;\n\nimport \"@openzeppelin/contracts/access/Ownable.sol\";\nimport \"@openzeppelin/contracts/security/ReentrancyGuard.sol\";\nimport \"@openzeppelin/contracts/utils/Strings.sol\";\nimport \"./IFactoryERC1155.sol\";\nimport \"./ERC1155Tradable.sol\";\n\n/**\n * @title BrokenFlowerAccessoryFactory\n * BrokenFlowerAccessory - a factory contract for BrokenFlower Accessory semi-fungible\n * tokens.\n */\ncontract BrokenFlowerAccessoryFactory is FactoryERC1155, Ownable, ReentrancyGuard {\n    using Strings for string;\n    using SafeMath for uint256;\n\n    address public proxyRegistryAddress;\n    address public nftAddress;\n    address public lootBoxAddress;\n    string\n        internal constant baseMetadataURI = \"https://brokenflowers-api.opensea.io/api/\";\n    uint256 constant UINT256_MAX = ~uint256(0);\n\n    /*\n     * Optionally set this to a small integer to enforce limited existence per option/token ID\n     * (Otherwise rely on sell orders on OpenSea, which can only be made by the factory owner.)\n     */\n    uint256 constant SUPPLY_PER_TOKEN_ID = UINT256_MAX;\n\n    // The number of brokenflower accessories (not brokenflower accessory rarity classes!)\n    uint256 constant NUM_ITEM_OPTIONS = 6;\n\n    /*\n     * Three different options for minting BrokenFlowerAccessories (basic, premium, and gold).\n     */\n    uint256 public constant BASIC_LOOTBOX = NUM_ITEM_OPTIONS + 0;\n    uint256 public constant PREMIUM_LOOTBOX = NUM_ITEM_OPTIONS + 1;\n    uint256 public constant GOLD_LOOTBOX = NUM_ITEM_OPTIONS + 2;\n    uint256 public constant NUM_LOOTBOX_OPTIONS = 3;\n\n    uint256 public constant NUM_OPTIONS = NUM_ITEM_OPTIONS +\n        NUM_LOOTBOX_OPTIONS;\n\n    constructor(\n        address _proxyRegistryAddress,\n        address _nftAddress,\n        address _lootBoxAddress\n    ) {\n        proxyRegistryAddress = _proxyRegistryAddress;\n        nftAddress = _nftAddress;\n        lootBoxAddress = _lootBoxAddress;\n    }\n\n    /////\n    // FACTORY INTERFACE METHODS\n    /////\n\n    function name() override external pure returns (string memory) {\n        return \"OpenSea BrokenFlower Accessory Pre-Sale\";\n    }\n\n    function symbol() override external pure returns (string memory) {\n        return \"OSCAP\";\n    }\n\n    function supportsFactoryInterface() override external pure returns (bool) {\n        return true;\n    }\n\n    function factorySchemaName() override external pure returns (string memory) {\n        return \"ERC1155\";\n    }\n\n    function numOptions() override external pure returns (uint256) {\n        return NUM_LOOTBOX_OPTIONS + NUM_ITEM_OPTIONS;\n    }\n\n    function uri(uint256 _optionId) override external pure returns (string memory) {\n        return\n            string(\n                abi.encodePacked(\n                    baseMetadataURI,\n                    \"factory/\",\n                    Strings.toString(_optionId)\n                    )\n                );\n    }\n\n    function canMint(uint256 _optionId, uint256 _amount)\n        override\n        external\n        view\n        returns (bool)\n    {\n        return _canMint(_msgSender(), _optionId, _amount);\n    }\n\n    function mint(\n        uint256 _optionId,\n        address _toAddress,\n        uint256 _amount,\n        bytes calldata _data\n    ) override external nonReentrant() {\n        return _mint(_optionId, _toAddress, _amount, _data);\n    }\n\n    /**\n     * @dev Main minting logic implemented here!\n     */\n    function _mint(\n        uint256 _option,\n        address _toAddress,\n        uint256 _amount,\n        bytes memory _data\n    ) internal {\n        require(\n            _canMint(_msgSender(), _option, _amount),\n            \"BrokenFlowerAccessoryFactory#_mint: CANNOT_MINT_MORE\"\n        );\n        if (_option < NUM_ITEM_OPTIONS) {\n            require(\n                _isOwnerOrProxy(_msgSender()) || _msgSender() == lootBoxAddress,\n                \"Caller cannot mint accessories\"\n            );\n            // Items are pre-mined (by the owner), so transfer them (We are an\n            // operator for the owner).\n            ERC1155Tradable items = ERC1155Tradable(nftAddress);\n            // Option is used as a token ID here\n            items.safeTransferFrom(\n                owner(),\n                _toAddress,\n                _option,\n                _amount,\n                _data\n            );\n        } else if (_option < NUM_OPTIONS) {\n            require(_isOwnerOrProxy(_msgSender()), \"Caller cannot mint boxes\");\n            uint256 lootBoxOption = _option - NUM_ITEM_OPTIONS;\n            // LootBoxes are not premined, so we need to create or mint them.\n            // lootBoxOption is used as a token ID here.\n            _createOrMint(\n                lootBoxAddress,\n                _toAddress,\n                lootBoxOption,\n                _amount,\n                _data\n            );\n        } else {\n            revert(\"Unknown _option\");\n        }\n    }\n\n    /*\n     * Note: make sure code that calls this is non-reentrant.\n     * Note: this is the token _id *within* the ERC1155 contract, not the option\n     *       id from this contract.\n     */\n    function _createOrMint(\n        address _erc1155Address,\n        address _to,\n        uint256 _id,\n        uint256 _amount,\n        bytes memory _data\n    ) internal {\n        ERC1155Tradable tradable = ERC1155Tradable(_erc1155Address);\n        // Lazily create the token\n        if (!tradable.exists(_id)) {\n            tradable.create(_to, _id, _amount, \"\", _data);\n        } else {\n            tradable.mint(_to, _id, _amount, _data);\n        }\n    }\n\n    /**\n     * Get the factory's ownership of Option.\n     * Should be the amount it can still mint.\n     * NOTE: Called by `canMint`\n     */\n    function balanceOf(address _owner, uint256 _optionId)\n        override\n        public\n        view\n        returns (uint256)\n    {\n        if (_optionId < NUM_ITEM_OPTIONS) {\n            if (!_isOwnerOrProxy(_owner) && _owner != lootBoxAddress) {\n                // Only the factory's owner or owner's proxy,\n                // or the lootbox can have supply\n                return 0;\n            }\n            // The pre-minted balance belongs to the address that minted this contract\n            ERC1155Tradable lootBox = ERC1155Tradable(nftAddress);\n            // OptionId is used as a token ID here\n            uint256 currentSupply = lootBox.balanceOf(owner(), _optionId);\n            return currentSupply;\n        } else {\n            if (!_isOwnerOrProxy(_owner)) {\n                // Only the factory owner or owner's proxy can have supply\n                return 0;\n            }\n            // We explicitly calculate the token ID here\n            uint256 tokenId = (_optionId - NUM_ITEM_OPTIONS);\n            ERC1155Tradable lootBox = ERC1155Tradable(lootBoxAddress);\n            uint256 currentSupply = lootBox.totalSupply(tokenId);\n            // We can mint up to a balance of SUPPLY_PER_TOKEN_ID\n            return SUPPLY_PER_TOKEN_ID.sub(currentSupply);\n        }\n    }\n\n    function _canMint(\n        address _fromAddress,\n        uint256 _optionId,\n        uint256 _amount\n    ) internal view returns (bool) {\n        return _amount > 0 && balanceOf(_fromAddress, _optionId) >= _amount;\n    }\n\n    function _isOwnerOrProxy(address _address) internal view returns (bool) {\n        ProxyRegistry proxyRegistry = ProxyRegistry(proxyRegistryAddress);\n        return\n            owner() == _address ||\n            address(proxyRegistry.proxies(owner())) == _address;\n    }\n}\n",
  "sourcePath": "/home/jin/dev/BrokenFlowersApp/public/opensea/contracts/BrokenFlowerAccessoryFactory.sol",
  "compiler": {
    "name": "solc",
    "version": "0.8.15+commit.e14f2714.Emscripten.clang"
  },
  "schemaVersion": "3.3.4",
  "updatedAt": "2022-07-08T15:37:59.419Z",
  "devdoc": {
    "kind": "dev",
    "methods": {
      "canMint(uint256,uint256)": {
        "details": "Returns whether the option ID can be minted. Can return false if the developer wishes to restrict a total supply per option ID (or overall)."
      },
      "mint(uint256,address,uint256,bytes)": {
        "details": "Mints asset(s) in accordance to a specific address with a particular \"option\". This should be callable only by the contract owner or the owner's Wyvern Proxy (later universal login will solve this). Options should also be delineated 0 - (numOptions() - 1) for convenient indexing.",
        "params": {
          "_amount": "amount of the option to mint",
          "_data": "Extra data to pass during safeTransferFrom",
          "_optionId": "the option id",
          "_toAddress": "address of the future owner of the asset(s)"
        }
      },
      "owner()": {
        "details": "Returns the address of the current owner."
      },
      "renounceOwnership()": {
        "details": "Leaves the contract without owner. It will not be possible to call `onlyOwner` functions anymore. Can only be called by the current owner. NOTE: Renouncing ownership will leave the contract without an owner, thereby removing any functionality that is only available to the owner."
      },
      "transferOwnership(address)": {
        "details": "Transfers ownership of the contract to a new account (`newOwner`). Can only be called by the current owner."
      },
      "uri(uint256)": {
        "details": "Returns a URL specifying some metadata about the option. This metadata can be of the same structure as the ERC1155 metadata."
      }
    },
    "title": "BrokenFlowerAccessoryFactory BrokenFlowerAccessory - a factory contract for BrokenFlower Accessory semi-fungible tokens.",
    "version": 1
  },
  "userdoc": {
    "kind": "user",
    "methods": {
      "balanceOf(address,uint256)": {
        "notice": "Get the factory's ownership of Option. Should be the amount it can still mint. NOTE: Called by `canMint`"
      },
      "factorySchemaName()": {
        "notice": "Indicates the Wyvern schema name for assets in this lootbox, e.g. \"ERC1155\""
      },
      "name()": {
        "notice": "Returns the name of this factory."
      },
      "numOptions()": {
        "notice": "Number of options the factory supports."
      },
      "supportsFactoryInterface()": {
        "notice": "Indicates that this is a factory contract. Ideally would use EIP 165 supportsInterface()"
      },
      "symbol()": {
        "notice": "Returns the symbol for this factory."
      }
    },
    "version": 1
  }
}