{
  "contractName": "BrokenFlowerFactory",
  "abi": [
    {
      "inputs": [
        {
          "internalType": "address",
          "name": "_proxyRegistryAddress",
          "type": "address"
        },
        {
          "internalType": "address",
          "name": "_nftAddress",
          "type": "address"
        }
      ],
      "stateMutability": "nonpayable",
      "type": "constructor"
    },
    {
      "anonymous": false,
      "inputs": [
        {
          "indexed": true,
          "internalType": "address",
          "name": "previousOwner",
          "type": "address"
        },
        {
          "indexed": true,
          "internalType": "address",
          "name": "newOwner",
          "type": "address"
        }
      ],
      "name": "OwnershipTransferred",
      "type": "event"
    },
    {
      "anonymous": false,
      "inputs": [
        {
          "indexed": true,
          "internalType": "address",
          "name": "from",
          "type": "address"
        },
        {
          "indexed": true,
          "internalType": "address",
          "name": "to",
          "type": "address"
        },
        {
          "indexed": true,
          "internalType": "uint256",
          "name": "tokenId",
          "type": "uint256"
        }
      ],
      "name": "Transfer",
      "type": "event"
    },
    {
      "inputs": [],
      "name": "baseURI",
      "outputs": [
        {
          "internalType": "string",
          "name": "",
          "type": "string"
        }
      ],
      "stateMutability": "view",
      "type": "function"
    },
    {
      "inputs": [],
      "name": "lootBoxNftAddress",
      "outputs": [
        {
          "internalType": "address",
          "name": "",
          "type": "address"
        }
      ],
      "stateMutability": "view",
      "type": "function"
    },
    {
      "inputs": [],
      "name": "nftAddress",
      "outputs": [
        {
          "internalType": "address",
          "name": "",
          "type": "address"
        }
      ],
      "stateMutability": "view",
      "type": "function"
    },
    {
      "inputs": [],
      "name": "owner",
      "outputs": [
        {
          "internalType": "address",
          "name": "",
          "type": "address"
        }
      ],
      "stateMutability": "view",
      "type": "function"
    },
    {
      "inputs": [],
      "name": "proxyRegistryAddress",
      "outputs": [
        {
          "internalType": "address",
          "name": "",
          "type": "address"
        }
      ],
      "stateMutability": "view",
      "type": "function"
    },
    {
      "inputs": [],
      "name": "renounceOwnership",
      "outputs": [],
      "stateMutability": "nonpayable",
      "type": "function"
    },
    {
      "inputs": [],
      "name": "name",
      "outputs": [
        {
          "internalType": "string",
          "name": "",
          "type": "string"
        }
      ],
      "stateMutability": "pure",
      "type": "function"
    },
    {
      "inputs": [],
      "name": "symbol",
      "outputs": [
        {
          "internalType": "string",
          "name": "",
          "type": "string"
        }
      ],
      "stateMutability": "pure",
      "type": "function"
    },
    {
      "inputs": [],
      "name": "supportsFactoryInterface",
      "outputs": [
        {
          "internalType": "bool",
          "name": "",
          "type": "bool"
        }
      ],
      "stateMutability": "pure",
      "type": "function"
    },
    {
      "inputs": [],
      "name": "numOptions",
      "outputs": [
        {
          "internalType": "uint256",
          "name": "",
          "type": "uint256"
        }
      ],
      "stateMutability": "view",
      "type": "function"
    },
    {
      "inputs": [
        {
          "internalType": "address",
          "name": "newOwner",
          "type": "address"
        }
      ],
      "name": "transferOwnership",
      "outputs": [],
      "stateMutability": "nonpayable",
      "type": "function"
    },
    {
      "inputs": [
        {
          "internalType": "uint256",
          "name": "_optionId",
          "type": "uint256"
        },
        {
          "internalType": "address",
          "name": "_toAddress",
          "type": "address"
        }
      ],
      "name": "mint",
      "outputs": [],
      "stateMutability": "nonpayable",
      "type": "function"
    },
    {
      "inputs": [
        {
          "internalType": "uint256",
          "name": "_optionId",
          "type": "uint256"
        }
      ],
      "name": "canMint",
      "outputs": [
        {
          "internalType": "bool",
          "name": "",
          "type": "bool"
        }
      ],
      "stateMutability": "view",
      "type": "function"
    },
    {
      "inputs": [
        {
          "internalType": "uint256",
          "name": "_optionId",
          "type": "uint256"
        }
      ],
      "name": "tokenURI",
      "outputs": [
        {
          "internalType": "string",
          "name": "",
          "type": "string"
        }
      ],
      "stateMutability": "view",
      "type": "function"
    },
    {
      "inputs": [
        {
          "internalType": "address",
          "name": "",
          "type": "address"
        },
        {
          "internalType": "address",
          "name": "_to",
          "type": "address"
        },
        {
          "internalType": "uint256",
          "name": "_tokenId",
          "type": "uint256"
        }
      ],
      "name": "transferFrom",
      "outputs": [],
      "stateMutability": "nonpayable",
      "type": "function"
    },
    {
      "inputs": [
        {
          "internalType": "address",
          "name": "_owner",
          "type": "address"
        },
        {
          "internalType": "address",
          "name": "_operator",
          "type": "address"
        }
      ],
      "name": "isApprovedForAll",
      "outputs": [
        {
          "internalType": "bool",
          "name": "",
          "type": "bool"
        }
      ],
      "stateMutability": "view",
      "type": "function"
    },
    {
      "inputs": [
        {
          "internalType": "uint256",
          "name": "",
          "type": "uint256"
        }
      ],
      "name": "ownerOf",
      "outputs": [
        {
          "internalType": "address",
          "name": "_owner",
          "type": "address"
        }
      ],
      "stateMutability": "view",
      "type": "function"
    }
  ],
  "bytecode": "0x60e0604052602d6080818152906200374c60a03960049062000022908262000292565b50606460055560036006556000600755600160085560026009556004600a553480156200004e57600080fd5b50604051620037793803806200377983398101604081905262000071916200037b565b6200007c3362000127565b600180546001600160a01b038085166001600160a01b031992831617909255600280549284169290911691909117905560405182903090620000be90620001e0565b6001600160a01b03928316815291166020820152604001604051809103906000f080158015620000f2573d6000803e3d6000fd5b50600380546001600160a01b0319166001600160a01b03928316179055600080546200011f921662000177565b5050620003db565b600080546001600160a01b038381166001600160a01b0319831681178455604051919092169283917f8be0079c531659141344cd1fd0a4f28419497f9722a3daafe3b4186f6b6457e09190a35050565b60005b600654811015620001db5780826001600160a01b0316846001600160a01b03167fddf252ad1be2c89b69c2b068fc378daa952ba7f163c4a11628f55a4df523b3ef60405160405180910390a480620001d281620003b3565b9150506200017a565b505050565b6124a880620012a483390190565b634e487b7160e01b600052604160045260246000fd5b600181811c908216806200021957607f821691505b6020821081036200023a57634e487b7160e01b600052602260045260246000fd5b50919050565b601f821115620001db57600081815260208120601f850160051c81016020861015620002695750805b601f850160051c820191505b818110156200028a5782815560010162000275565b505050505050565b81516001600160401b03811115620002ae57620002ae620001ee565b620002c681620002bf845462000204565b8462000240565b602080601f831160018114620002fe5760008415620002e55750858301515b600019600386901b1c1916600185901b1785556200028a565b600085815260208120601f198616915b828110156200032f578886015182559484019460019091019084016200030e565b50858210156200034e5787850151600019600388901b60f8161c191681555b5050505050600190811b01905550565b80516001600160a01b03811681146200037657600080fd5b919050565b600080604083850312156200038f57600080fd5b6200039a836200035e565b9150620003aa602084016200035e565b90509250929050565b600060018201620003d457634e487b7160e01b600052601160045260246000fd5b5060010190565b610eb980620003eb6000396000f3fe608060405234801561001057600080fd5b50600436106100db5760003560e01c806306fdde03146100e057806323b872dd146101275780634b97aed91461013c5780635bf8633a1461014d5780635dd871a31461016d5780636352211e146101905780636c0360eb146101a3578063715018a6146101ab5780638da5cb5b146101b357806394bf804d146101bb57806395d89b41146101ce578063c311c523146101ed578063c87b56dd146101f4578063cd7c032614610207578063e985e9c51461021a578063ec07d02e1461022d578063f2fde38b14610240575b600080fd5b6040805180820190915260198152784f70656e5365614372656174757265204974656d2053616c6560381b60208201525b60405161011e9190610b02565b60405180910390f35b61013a610135366004610b4a565b610253565b005b60065460405190815260200161011e565b600254610160906001600160a01b031681565b60405161011e9190610b8b565b61018061017b366004610b9f565b610262565b604051901515815260200161011e565b61016061019e366004610b9f565b6103a4565b6101116103b4565b61013a610442565b610160610486565b61013a6101c9366004610bb8565b610495565b60408051808201909152600381526221a82360e91b6020820152610111565b6001610180565b610111610202366004610b9f565b6106ea565b600154610160906001600160a01b031681565b610180610228366004610be8565b61071e565b600354610160906001600160a01b031681565b61013a61024e366004610c16565b61082b565b61025d8183610495565b505050565b6000600654821061027557506000919050565b600254604080516318160ddd60e01b815290516001600160a01b039092169160009183916318160ddd916004808201926020929091908290030181865afa1580156102c4573d6000803e3d6000fd5b505050506040513d601f19601f820116820180604052508101906102e89190610c3a565b9050600060075485036102fd5750600161038b565b600854850361030f5750600a5461038b565b600954850361038b57600354604080516319d554e160e01b815290516001600160a01b039092169182916319d554e19160048083019260209291908290030181865afa158015610363573d6000803e3d6000fd5b505050506040513d601f19601f820116820180604052508101906103879190610c3a565b9150505b806005546103999190610c69565b909110949350505050565b60006103ae610486565b92915050565b600480546103c190610c80565b80601f01602080910402602001604051908101604052809291908181526020018280546103ed90610c80565b801561043a5780601f1061040f5761010080835404028352916020019161043a565b820191906000526020600020905b81548152906001019060200180831161041d57829003601f168201915b505050505081565b3361044b610486565b6001600160a01b03161461047a5760405162461bcd60e51b815260040161047190610cba565b60405180910390fd5b610484600061087d565b565b6000546001600160a01b031690565b6001546001600160a01b0316338163c45527916104b0610486565b6040518263ffffffff1660e01b81526004016104cc9190610b8b565b602060405180830381865afa1580156104e9573d6000803e3d6000fd5b505050506040513d601f19601f8201168201806040525081019061050d9190610cef565b6001600160a01b03161480610531575033610526610486565b6001600160a01b0316145b8061054f57506003546001600160a01b0316336001600160a01b0316145b61055b5761055b610d0c565b61056483610262565b61056d57600080fd5b6002546007546001600160a01b039091169084036105e85760405163755edd1760e01b81526001600160a01b0382169063755edd17906105b1908690600401610b8b565b600060405180830381600087803b1580156105cb57600080fd5b505af11580156105df573d6000803e3d6000fd5b505050506106e4565b60085484036106755760005b600a5481101561066f5760405163755edd1760e01b81526001600160a01b0383169063755edd179061062a908790600401610b8b565b600060405180830381600087803b15801561064457600080fd5b505af1158015610658573d6000803e3d6000fd5b50505050808061066790610d22565b9150506105f4565b506106e4565b60095484036106e45760035460405163755edd1760e01b81526001600160a01b0390911690819063755edd17906106b0908790600401610b8b565b600060405180830381600087803b1580156106ca57600080fd5b505af11580156106de573d6000803e3d6000fd5b50505050505b50505050565b606060046106f7836108cd565b604051602001610708929190610d57565b6040516020818303038152906040529050919050565b6000826001600160a01b0316610732610486565b6001600160a01b03161480156107595750816001600160a01b0316836001600160a01b0316145b15610766575060016103ae565b6001546001600160a01b0390811690841661077f610486565b6001600160a01b03161480156108125750826001600160a01b0316816001600160a01b031663c4552791866040518263ffffffff1660e01b81526004016107c69190610b8b565b602060405180830381865afa1580156107e3573d6000803e3d6000fd5b505050506040513d601f19601f820116820180604052508101906108079190610cef565b6001600160a01b0316145b156108215760019150506103ae565b5060009392505050565b33610834610486565b6001600160a01b03161461085a5760405162461bcd60e51b815260040161047190610cba565b6000610864610486565b905061086f826109d6565b6108798183610a76565b5050565b600080546001600160a01b038381166001600160a01b0319831681178455604051919092169283917f8be0079c531659141344cd1fd0a4f28419497f9722a3daafe3b4186f6b6457e09190a35050565b6060816000036108f45750506040805180820190915260018152600360fc1b602082015290565b8160005b811561091e578061090881610d22565b91506109179050600a83610e17565b91506108f8565b60008167ffffffffffffffff81111561093957610939610e2b565b6040519080825280601f01601f191660200182016040528015610963576020820181803683370190505b5090505b84156109ce57610978600183610c69565b9150610985600a86610e41565b610990906030610e55565b60f81b8183815181106109a5576109a5610e6d565b60200101906001600160f81b031916908160001a9053506109c7600a86610e17565b9450610967565b949350505050565b336109df610486565b6001600160a01b031614610a055760405162461bcd60e51b815260040161047190610cba565b6001600160a01b038116610a6a5760405162461bcd60e51b815260206004820152602660248201527f4f776e61626c653a206e6577206f776e657220697320746865207a65726f206160448201526564647265737360d01b6064820152608401610471565b610a738161087d565b50565b60005b60065481101561025d5780826001600160a01b0316846001600160a01b03167fddf252ad1be2c89b69c2b068fc378daa952ba7f163c4a11628f55a4df523b3ef60405160405180910390a480610ace81610d22565b915050610a79565b60005b83811015610af1578181015183820152602001610ad9565b838111156106e45750506000910152565b6020815260008251806020840152610b21816040850160208701610ad6565b601f01601f19169190910160400192915050565b6001600160a01b0381168114610a7357600080fd5b600080600060608486031215610b5f57600080fd5b8335610b6a81610b35565b92506020840135610b7a81610b35565b929592945050506040919091013590565b6001600160a01b0391909116815260200190565b600060208284031215610bb157600080fd5b5035919050565b60008060408385031215610bcb57600080fd5b823591506020830135610bdd81610b35565b809150509250929050565b60008060408385031215610bfb57600080fd5b8235610c0681610b35565b91506020830135610bdd81610b35565b600060208284031215610c2857600080fd5b8135610c3381610b35565b9392505050565b600060208284031215610c4c57600080fd5b5051919050565b634e487b7160e01b600052601160045260246000fd5b600082821015610c7b57610c7b610c53565b500390565b600181811c90821680610c9457607f821691505b602082108103610cb457634e487b7160e01b600052602260045260246000fd5b50919050565b6020808252818101527f4f776e61626c653a2063616c6c6572206973206e6f7420746865206f776e6572604082015260600190565b600060208284031215610d0157600080fd5b8151610c3381610b35565b634e487b7160e01b600052600160045260246000fd5b600060018201610d3457610d34610c53565b5060010190565b60008151610d4d818560208601610ad6565b9290920192915050565b600080845481600182811c915080831680610d7357607f831692505b60208084108203610d9257634e487b7160e01b86526022600452602486fd5b818015610da65760018114610dbb57610de8565b60ff1986168952841515850289019650610de8565b60008b81526020902060005b86811015610de05781548b820152908501908301610dc7565b505084890196505b505050505050610df88185610d3b565b95945050505050565b634e487b7160e01b600052601260045260246000fd5b600082610e2657610e26610e01565b500490565b634e487b7160e01b600052604160045260246000fd5b600082610e5057610e50610e01565b500690565b60008219821115610e6857610e68610c53565b500190565b634e487b7160e01b600052603260045260246000fdfea26469706673582212208a680a61ee584590ce2d8383b6fe8509c296f0cdb86f581242e02f76df51396064736f6c634300080f003360806040526006805460ff191690556003600c556000600d553480156200002557600080fd5b50604051620024a8380380620024a8833981016040819052620000489162000332565b6040518060400160405280600f81526020016e086e4cac2e8eae4ca98dedee884def608b1b815250604051806040016040528060078152602001660989e9ea8849eb60cb1b8152508382828160009081620000a491906200040f565b506001620000b382826200040f565b505050620000d0620000ca6200013a60201b60201c565b62000156565b600b80546001600160a01b0319166001600160a01b03831617905562000103600a620001a8602090811b62000e1817901c565b6200010e83620001b1565b5050600e80546001600160a01b0319166001600160a01b03939093169290921790915550620004db9050565b6000620001516200021560201b62000e211760201c565b905090565b600980546001600160a01b038381166001600160a01b0319831681179093556040519116919082907f8be0079c531659141344cd1fd0a4f28419497f9722a3daafe3b4186f6b6457e090600090a35050565b80546001019055565b60065460ff1615620001fa5760405162461bcd60e51b815260206004820152600e60248201526d185b1c9958591e481a5b9a5d195960921b604482015260640160405180910390fd5b620002058162000273565b506006805460ff19166001179055565b60003033036200026d57600080368080601f0160208091040260200160405190810160405280939291908181526020018383808284376000920191909152505050503601516001600160a01b03169150620002709050565b50335b90565b6040518060800160405280604f815260200162002459604f9139805160209182012082519282019290922060408051808201825260018152603160f81b90840152805180840194909452838101919091527fc89efdaa54c0f20c7adf612882df0950f5a951637e0307cdcb4c672f298b8bc660608401523060808401524660a0808501919091528151808503909101815260c090930190528151910120600755565b80516001600160a01b03811681146200032d57600080fd5b919050565b600080604083850312156200034657600080fd5b620003518362000315565b9150620003616020840162000315565b90509250929050565b634e487b7160e01b600052604160045260246000fd5b600181811c908216806200039557607f821691505b602082108103620003b657634e487b7160e01b600052602260045260246000fd5b50919050565b601f8211156200040a57600081815260208120601f850160051c81016020861015620003e55750805b601f850160051c820191505b818110156200040657828155600101620003f1565b5050505b505050565b81516001600160401b038111156200042b576200042b6200036a565b62000443816200043c845462000380565b84620003bc565b602080601f8311600181146200047b5760008415620004625750858301515b600019600386901b1c1916600185901b17855562000406565b600085815260208120601f198616915b82811015620004ac578886015182559484019460019091019084016200048b565b5085821015620004cb5787850151600019600388901b60f8161c191681555b5050505050600190811b01905550565b611f6e80620004eb6000396000f3fe6080604052600436106101315760003560e01c806301ffc9a71461013657806306fdde031461016b578063081812fc1461018d578063095ea7b3146101ba5780630c53c51c146101dc5780630f7e5970146101ef57806318160ddd1461021c57806319d554e11461023f57806320379ee51461025457806323b872dd146102695780632d0335ab146102895780633408e470146102bf57806342842e0e146102d25780636352211e146102f257806370a0823114610312578063715018a614610332578063755edd17146103475780638a02be68146103675780638da5cb5b1461038757806395d89b411461039c578063a22cb465146103b1578063b88d4fde146103d1578063c87b56dd146103f1578063d547cfb714610411578063e985e9c514610426578063f2fde38b14610446575b600080fd5b34801561014257600080fd5b50610156610151366004611875565b610466565b60405190151581526020015b60405180910390f35b34801561017757600080fd5b506101806104b8565b60405161016291906118ea565b34801561019957600080fd5b506101ad6101a83660046118fd565b61054a565b6040516101629190611916565b3480156101c657600080fd5b506101da6101d536600461193f565b6105d7565b005b6101806101ea366004611a0d565b6106f9565b3480156101fb57600080fd5b50610180604051806040016040528060018152602001603160f81b81525081565b34801561022857600080fd5b506102316108e2565b604051908152602001610162565b34801561024b57600080fd5b50600c54610231565b34801561026057600080fd5b50600754610231565b34801561027557600080fd5b506101da610284366004611a8a565b6108fe565b34801561029557600080fd5b506102316102a4366004611acb565b6001600160a01b031660009081526008602052604090205490565b3480156102cb57600080fd5b5046610231565b3480156102de57600080fd5b506101da6102ed366004611a8a565b610936565b3480156102fe57600080fd5b506101ad61030d3660046118fd565b610951565b34801561031e57600080fd5b5061023161032d366004611acb565b6109c8565b34801561033e57600080fd5b506101da610a4f565b34801561035357600080fd5b506101da610362366004611acb565b610a9a565b34801561037357600080fd5b506101da6103823660046118fd565b610b02565b34801561039357600080fd5b506101ad610bde565b3480156103a857600080fd5b50610180610bed565b3480156103bd57600080fd5b506101da6103cc366004611ae8565b610bfc565b3480156103dd57600080fd5b506101da6103ec366004611b26565b610c0e565b3480156103fd57600080fd5b5061018061040c3660046118fd565b610c4d565b34801561041d57600080fd5b50610180610c87565b34801561043257600080fd5b50610156610441366004611b91565b610ca7565b34801561045257600080fd5b506101da610461366004611acb565b610d6b565b60006001600160e01b031982166380ac58cd60e01b148061049757506001600160e01b03198216635b5e139f60e01b145b806104b257506301ffc9a760e01b6001600160e01b03198316145b92915050565b6060600080546104c790611bbf565b80601f01602080910402602001604051908101604052809291908181526020018280546104f390611bbf565b80156105405780601f1061051557610100808354040283529160200191610540565b820191906000526020600020905b81548152906001019060200180831161052357829003601f168201915b5050505050905090565b600061055582610e7d565b6105bb5760405162461bcd60e51b815260206004820152602c60248201527f4552433732313a20617070726f76656420717565727920666f72206e6f6e657860448201526b34b9ba32b73a103a37b5b2b760a11b60648201526084015b60405180910390fd5b506000908152600460205260409020546001600160a01b031690565b60006105e282610951565b9050806001600160a01b0316836001600160a01b03160361064f5760405162461bcd60e51b815260206004820152602160248201527f4552433732313a20617070726f76616c20746f2063757272656e74206f776e656044820152603960f91b60648201526084016105b2565b806001600160a01b0316610661610e9a565b6001600160a01b0316148061067d575061067d81610441610e9a565b6106ea5760405162461bcd60e51b815260206004820152603860248201527f4552433732313a20617070726f76652063616c6c6572206973206e6f74206f776044820152771b995c881b9bdc88185c1c1c9bdd995908199bdc88185b1b60421b60648201526084016105b2565b6106f48383610ea4565b505050565b60408051606081810183526001600160a01b038816600081815260086020908152908590205484528301529181018690526107378782878787610f12565b61078d5760405162461bcd60e51b815260206004820152602160248201527f5369676e657220616e64207369676e617475726520646f206e6f74206d6174636044820152600d60fb1b60648201526084016105b2565b6001600160a01b0387166000908152600860205260409020546107b1906001611002565b6001600160a01b0388166000908152600860205260409081902091909155517f5845892132946850460bff5a0083f71031bc5bf9aadcd40f1de79423eac9b10b9061080190899033908a90611bf9565b60405180910390a1600080306001600160a01b0316888a604051602001610829929190611c2e565b60408051601f198184030181529082905261084391611c60565b6000604051808303816000865af19150503d8060008114610880576040519150601f19603f3d011682016040523d82523d6000602084013e610885565b606091505b5091509150816108d65760405162461bcd60e51b815260206004820152601c60248201527b119d5b98dd1a5bdb8818d85b1b081b9bdd081cdd58d8d95cdcd99d5b60221b60448201526064016105b2565b98975050505050505050565b600060016108ef600a5490565b6108f99190611c92565b905090565b61090f610909610e9a565b82611015565b61092b5760405162461bcd60e51b81526004016105b290611ca9565b6106f48383836110d7565b6106f483838360405180602001604052806000815250610c0e565b6000818152600260205260408120546001600160a01b0316806104b25760405162461bcd60e51b815260206004820152602960248201527f4552433732313a206f776e657220717565727920666f72206e6f6e657869737460448201526832b73a103a37b5b2b760b91b60648201526084016105b2565b60006001600160a01b038216610a335760405162461bcd60e51b815260206004820152602a60248201527f4552433732313a2062616c616e636520717565727920666f7220746865207a65604482015269726f206164647265737360b01b60648201526084016105b2565b506001600160a01b031660009081526003602052604090205490565b610a57610e9a565b6001600160a01b0316610a68610bde565b6001600160a01b031614610a8e5760405162461bcd60e51b81526004016105b290611cfa565b610a986000611265565b565b610aa2610e9a565b6001600160a01b0316610ab3610bde565b6001600160a01b031614610ad95760405162461bcd60e51b81526004016105b290611cfa565b6000610ae4600a5490565b9050610af4600a80546001019055565b610afe82826112b7565b5050565b610b0a610e9a565b6001600160a01b0316610b1c82610951565b6001600160a01b031614610b2f57600080fd5b60005b600c54811015610bd157600e54600d546001600160a01b039091169081906394bf804d90610b5e610e9a565b6040516001600160e01b031960e085901b16815260048101929092526001600160a01b03166024820152604401600060405180830381600087803b158015610ba557600080fd5b505af1158015610bb9573d6000803e3d6000fd5b50505050508080610bc990611d2f565b915050610b32565b50610bdb816112d1565b50565b6009546001600160a01b031690565b6060600180546104c790611bbf565b610afe610c07610e9a565b838361135a565b610c1f610c19610e9a565b83611015565b610c3b5760405162461bcd60e51b81526004016105b290611ca9565b610c4784848484611424565b50505050565b6060610c57610c87565b610c6083611457565b604051602001610c71929190611d48565b6040516020818303038152906040529050919050565b6060604051806060016040528060298152602001611ef060299139905090565b600b5460405163c455279160e01b81526000916001600160a01b039081169190841690829063c455279190610ce0908890600401611916565b602060405180830381865afa158015610cfd573d6000803e3d6000fd5b505050506040513d601f19601f82011682018060405250810190610d219190611d77565b6001600160a01b031603610d395760019150506104b2565b6001600160a01b0380851660009081526005602090815260408083209387168352929052205460ff165b949350505050565b610d73610e9a565b6001600160a01b0316610d84610bde565b6001600160a01b031614610daa5760405162461bcd60e51b81526004016105b290611cfa565b6001600160a01b038116610e0f5760405162461bcd60e51b815260206004820152602660248201527f4f776e61626c653a206e6577206f776e657220697320746865207a65726f206160448201526564647265737360d01b60648201526084016105b2565b610bdb81611265565b80546001019055565b6000303303610e7757600080368080601f0160208091040260200160405190810160405280939291908181526020018383808284376000920191909152505050503601516001600160a01b03169150610e7a9050565b50335b90565b6000908152600260205260409020546001600160a01b0316151590565b60006108f9610e21565b600081815260046020526040902080546001600160a01b0319166001600160a01b0384169081179091558190610ed982610951565b6001600160a01b03167f8c5be1e5ebec7d5bd14f71427d1e84f3dd0314c0f7b2291e5b200ac8c7c3b92560405160405180910390a45050565b60006001600160a01b038616610f785760405162461bcd60e51b815260206004820152602560248201527f4e61746976654d6574615472616e73616374696f6e3a20494e56414c49445f5360448201526424a3a722a960d91b60648201526084016105b2565b6001610f8b610f8687611557565b6115d4565b6040805160008152602081018083529290925260ff851690820152606081018690526080810185905260a0016020604051602081039080840390855afa158015610fd9573d6000803e3d6000fd5b505050602060405103516001600160a01b0316866001600160a01b031614905095945050505050565b600061100e8284611d94565b9392505050565b600061102082610e7d565b6110815760405162461bcd60e51b815260206004820152602c60248201527f4552433732313a206f70657261746f7220717565727920666f72206e6f6e657860448201526b34b9ba32b73a103a37b5b2b760a11b60648201526084016105b2565b600061108c83610951565b9050806001600160a01b0316846001600160a01b031614806110c75750836001600160a01b03166110bc8461054a565b6001600160a01b0316145b80610d635750610d638185610ca7565b826001600160a01b03166110ea82610951565b6001600160a01b0316146111525760405162461bcd60e51b815260206004820152602960248201527f4552433732313a207472616e73666572206f6620746f6b656e2074686174206960448201526839903737ba1037bbb760b91b60648201526084016105b2565b6001600160a01b0382166111b45760405162461bcd60e51b8152602060048201526024808201527f4552433732313a207472616e7366657220746f20746865207a65726f206164646044820152637265737360e01b60648201526084016105b2565b6111bf600082610ea4565b6001600160a01b03831660009081526003602052604081208054600192906111e8908490611c92565b90915550506001600160a01b0382166000908152600360205260408120805460019290611216908490611d94565b909155505060008181526002602052604080822080546001600160a01b0319166001600160a01b038681169182179092559151849391871691600080516020611f1983398151915291a4505050565b600980546001600160a01b038381166001600160a01b0319831681179093556040519116919082907f8be0079c531659141344cd1fd0a4f28419497f9722a3daafe3b4186f6b6457e090600090a35050565b610afe828260405180602001604052806000815250611604565b60006112dc82610951565b90506112e9600083610ea4565b6001600160a01b0381166000908152600360205260408120805460019290611312908490611c92565b909155505060008281526002602052604080822080546001600160a01b0319169055518391906001600160a01b03841690600080516020611f19833981519152908390a45050565b816001600160a01b0316836001600160a01b0316036113b75760405162461bcd60e51b815260206004820152601960248201527822a9219b99189d1030b8383937bb32903a379031b0b63632b960391b60448201526064016105b2565b6001600160a01b03838116600081815260056020908152604080832094871680845294825291829020805460ff191686151590811790915591519182527f17307eab39ab6107e8899845ad3d59bd9653f200f220920489ca2b5937696c31910160405180910390a3505050565b61142f8484846110d7565b61143b84848484611637565b610c475760405162461bcd60e51b81526004016105b290611dac565b60608160000361147e5750506040805180820190915260018152600360fc1b602082015290565b8160005b81156114a8578061149281611d2f565b91506114a19050600a83611e14565b9150611482565b6000816001600160401b038111156114c2576114c261196b565b6040519080825280601f01601f1916602001820160405280156114ec576020820181803683370190505b5090505b8415610d6357611501600183611c92565b915061150e600a86611e28565b611519906030611d94565b60f81b81838151811061152e5761152e611e3c565b60200101906001600160f81b031916908160001a905350611550600a86611e14565b94506114f0565b6000604051806080016040528060438152602001611ead60439139805160209182012083518483015160408087015180519086012090516115b7950193845260208401929092526001600160a01b03166040830152606082015260800190565b604051602081830303815290604052805190602001209050919050565b60006115df60075490565b60405161190160f01b60208201526022810191909152604281018390526062016115b7565b61160e838361173f565b61161b6000848484611637565b6106f45760405162461bcd60e51b81526004016105b290611dac565b60006001600160a01b0384163b1561173457836001600160a01b031663150b7a02611660610e9a565b8786866040518563ffffffff1660e01b81526004016116829493929190611e52565b6020604051808303816000875af19250505080156116bd575060408051601f3d908101601f191682019092526116ba91810190611e8f565b60015b61171a573d8080156116eb576040519150601f19603f3d011682016040523d82523d6000602084013e6116f0565b606091505b5080516000036117125760405162461bcd60e51b81526004016105b290611dac565b805181602001fd5b6001600160e01b031916630a85bd0160e11b149050610d63565b506001949350505050565b6001600160a01b0382166117955760405162461bcd60e51b815260206004820181905260248201527f4552433732313a206d696e7420746f20746865207a65726f206164647265737360448201526064016105b2565b61179e81610e7d565b156117ea5760405162461bcd60e51b815260206004820152601c60248201527b115490cdcc8c4e881d1bdad95b88185b1c9958591e481b5a5b9d195960221b60448201526064016105b2565b6001600160a01b0382166000908152600360205260408120805460019290611813908490611d94565b909155505060008181526002602052604080822080546001600160a01b0319166001600160a01b0386169081179091559051839290600080516020611f19833981519152908290a45050565b6001600160e01b031981168114610bdb57600080fd5b60006020828403121561188757600080fd5b813561100e8161185f565b60005b838110156118ad578181015183820152602001611895565b83811115610c475750506000910152565b600081518084526118d6816020860160208601611892565b601f01601f19169290920160200192915050565b60208152600061100e60208301846118be565b60006020828403121561190f57600080fd5b5035919050565b6001600160a01b0391909116815260200190565b6001600160a01b0381168114610bdb57600080fd5b6000806040838503121561195257600080fd5b823561195d8161192a565b946020939093013593505050565b634e487b7160e01b600052604160045260246000fd5b600082601f83011261199257600080fd5b81356001600160401b03808211156119ac576119ac61196b565b604051601f8301601f19908116603f011681019082821181831017156119d4576119d461196b565b816040528381528660208588010111156119ed57600080fd5b836020870160208301376000602085830101528094505050505092915050565b600080600080600060a08688031215611a2557600080fd5b8535611a308161192a565b945060208601356001600160401b03811115611a4b57600080fd5b611a5788828901611981565b9450506040860135925060608601359150608086013560ff81168114611a7c57600080fd5b809150509295509295909350565b600080600060608486031215611a9f57600080fd5b8335611aaa8161192a565b92506020840135611aba8161192a565b929592945050506040919091013590565b600060208284031215611add57600080fd5b813561100e8161192a565b60008060408385031215611afb57600080fd5b8235611b068161192a565b915060208301358015158114611b1b57600080fd5b809150509250929050565b60008060008060808587031215611b3c57600080fd5b8435611b478161192a565b93506020850135611b578161192a565b92506040850135915060608501356001600160401b03811115611b7957600080fd5b611b8587828801611981565b91505092959194509250565b60008060408385031215611ba457600080fd5b8235611baf8161192a565b91506020830135611b1b8161192a565b600181811c90821680611bd357607f821691505b602082108103611bf357634e487b7160e01b600052602260045260246000fd5b50919050565b6001600160a01b03848116825283166020820152606060408201819052600090611c25908301846118be565b95945050505050565b60008351611c40818460208801611892565b60609390931b6001600160601b0319169190920190815260140192915050565b60008251611c72818460208701611892565b9190910192915050565b634e487b7160e01b600052601160045260246000fd5b600082821015611ca457611ca4611c7c565b500390565b60208082526031908201527f4552433732313a207472616e736665722063616c6c6572206973206e6f74206f6040820152701ddb995c881b9bdc88185c1c1c9bdd9959607a1b606082015260800190565b6020808252818101527f4f776e61626c653a2063616c6c6572206973206e6f7420746865206f776e6572604082015260600190565b600060018201611d4157611d41611c7c565b5060010190565b60008351611d5a818460208801611892565b835190830190611d6e818360208801611892565b01949350505050565b600060208284031215611d8957600080fd5b815161100e8161192a565b60008219821115611da757611da7611c7c565b500190565b60208082526032908201527f4552433732313a207472616e7366657220746f206e6f6e20455243373231526560408201527131b2b4bb32b91034b6b83632b6b2b73a32b960711b606082015260800190565b634e487b7160e01b600052601260045260246000fd5b600082611e2357611e23611dfe565b500490565b600082611e3757611e37611dfe565b500690565b634e487b7160e01b600052603260045260246000fd5b6001600160a01b0385811682528416602082015260408101839052608060608201819052600090611e85908301846118be565b9695505050505050565b600060208284031215611ea157600080fd5b815161100e8161185f56fe4d6574615472616e73616374696f6e2875696e74323536206e6f6e63652c616464726573732066726f6d2c62797465732066756e6374696f6e5369676e61747572652968747470733a2f2f6372656174757265732d6170692e6f70656e7365612e696f2f6170692f626f782fddf252ad1be2c89b69c2b068fc378daa952ba7f163c4a11628f55a4df523b3efa2646970667358221220eca86ccbaca4518e45655db7e02edb117bd4e44b2d9d72e0ef2fdfd68f04faeb64736f6c634300080f0033454950373132446f6d61696e28737472696e67206e616d652c737472696e672076657273696f6e2c6164647265737320766572696679696e67436f6e74726163742c627974657333322073616c742968747470733a2f2f6372656174757265732d6170692e6f70656e7365612e696f2f6170692f666163746f72792f",
  "immutableReferences": {},
  "source": "// SPDX-License-Identifier: MIT\n\npragma solidity ^0.8.0;\n\nimport \"@openzeppelin/contracts/access/Ownable.sol\";\nimport \"@openzeppelin/contracts/utils/Strings.sol\";\nimport \"./IFactoryERC721.sol\";\nimport \"./BrokenFlower.sol\";\nimport \"./BrokenFlowerLootBox.sol\";\n\ncontract BrokenFlowerFactory is FactoryERC721, Ownable {\n    using Strings for string;\n\n    event Transfer(\n        address indexed from,\n        address indexed to,\n        uint256 indexed tokenId\n    );\n\n    address public proxyRegistryAddress;\n    address public nftAddress;\n    address public lootBoxNftAddress;\n    string public baseURI = \"https://brokenflowers-api.opensea.io/api/factory/\";\n\n    /*\n     * Enforce the existence of only 100 OpenSea brokenflowers.\n     */\n    uint256 CREATURE_SUPPLY = 100;\n\n    /*\n     * Three different options for minting BrokenFlowers (basic, premium, and gold).\n     */\n    uint256 NUM_OPTIONS = 3;\n    uint256 SINGLE_CREATURE_OPTION = 0;\n    uint256 MULTIPLE_CREATURE_OPTION = 1;\n    uint256 LOOTBOX_OPTION = 2;\n    uint256 NUM_CREATURES_IN_MULTIPLE_CREATURE_OPTION = 4;\n\n    constructor(address _proxyRegistryAddress, address _nftAddress) {\n        proxyRegistryAddress = _proxyRegistryAddress;\n        nftAddress = _nftAddress;\n        lootBoxNftAddress = address(\n            new BrokenFlowerLootBox(_proxyRegistryAddress, address(this))\n        );\n\n        fireTransferEvents(address(0), owner());\n    }\n\n    function name() override external pure returns (string memory) {\n        return \"OpenSeaBrokenFlower Item Sale\";\n    }\n\n    function symbol() override external pure returns (string memory) {\n        return \"CPF\";\n    }\n\n    function supportsFactoryInterface() override public pure returns (bool) {\n        return true;\n    }\n\n    function numOptions() override public view returns (uint256) {\n        return NUM_OPTIONS;\n    }\n\n    function transferOwnership(address newOwner) override public onlyOwner {\n        address _prevOwner = owner();\n        super.transferOwnership(newOwner);\n        fireTransferEvents(_prevOwner, newOwner);\n    }\n\n    function fireTransferEvents(address _from, address _to) private {\n        for (uint256 i = 0; i < NUM_OPTIONS; i++) {\n            emit Transfer(_from, _to, i);\n        }\n    }\n\n    function mint(uint256 _optionId, address _toAddress) override public {\n        // Must be sent from the owner proxy or owner.\n        ProxyRegistry proxyRegistry = ProxyRegistry(proxyRegistryAddress);\n        assert(\n            address(proxyRegistry.proxies(owner())) == _msgSender() ||\n                owner() == _msgSender() ||\n                _msgSender() == lootBoxNftAddress\n        );\n        require(canMint(_optionId));\n\n        BrokenFlower openSeaBrokenFlower = BrokenFlower(nftAddress);\n        if (_optionId == SINGLE_CREATURE_OPTION) {\n            openSeaBrokenFlower.mintTo(_toAddress);\n        } else if (_optionId == MULTIPLE_CREATURE_OPTION) {\n            for (\n                uint256 i = 0;\n                i < NUM_CREATURES_IN_MULTIPLE_CREATURE_OPTION;\n                i++\n            ) {\n                openSeaBrokenFlower.mintTo(_toAddress);\n            }\n        } else if (_optionId == LOOTBOX_OPTION) {\n            BrokenFlowerLootBox openSeaBrokenFlowerLootBox = BrokenFlowerLootBox(\n                lootBoxNftAddress\n            );\n            openSeaBrokenFlowerLootBox.mintTo(_toAddress);\n        }\n    }\n\n    function canMint(uint256 _optionId) override public view returns (bool) {\n        if (_optionId >= NUM_OPTIONS) {\n            return false;\n        }\n\n        BrokenFlower openSeaBrokenFlower = BrokenFlower(nftAddress);\n        uint256 brokenflowerSupply = openSeaBrokenFlower.totalSupply();\n\n        uint256 numItemsAllocated = 0;\n        if (_optionId == SINGLE_CREATURE_OPTION) {\n            numItemsAllocated = 1;\n        } else if (_optionId == MULTIPLE_CREATURE_OPTION) {\n            numItemsAllocated = NUM_CREATURES_IN_MULTIPLE_CREATURE_OPTION;\n        } else if (_optionId == LOOTBOX_OPTION) {\n            BrokenFlowerLootBox openSeaBrokenFlowerLootBox = BrokenFlowerLootBox(\n                lootBoxNftAddress\n            );\n            numItemsAllocated = openSeaBrokenFlowerLootBox.itemsPerLootbox();\n        }\n        return brokenflowerSupply < (CREATURE_SUPPLY - numItemsAllocated);\n    }\n\n    function tokenURI(uint256 _optionId) override external view returns (string memory) {\n        return string(abi.encodePacked(baseURI, Strings.toString(_optionId)));\n    }\n\n    /**\n     * Hack to get things to work automatically on OpenSea.\n     * Use transferFrom so the frontend doesn't have to worry about different method names.\n     */\n    function transferFrom(\n        address,\n        address _to,\n        uint256 _tokenId\n    ) public {\n        mint(_tokenId, _to);\n    }\n\n    /**\n     * Hack to get things to work automatically on OpenSea.\n     * Use isApprovedForAll so the frontend doesn't have to worry about different method names.\n     */\n    function isApprovedForAll(address _owner, address _operator)\n        public\n        view\n        returns (bool)\n    {\n        if (owner() == _owner && _owner == _operator) {\n            return true;\n        }\n\n        ProxyRegistry proxyRegistry = ProxyRegistry(proxyRegistryAddress);\n        if (\n            owner() == _owner &&\n            address(proxyRegistry.proxies(_owner)) == _operator\n        ) {\n            return true;\n        }\n\n        return false;\n    }\n\n    /**\n     * Hack to get things to work automatically on OpenSea.\n     * Use isApprovedForAll so the frontend doesn't have to worry about different method names.\n     */\n    function ownerOf(uint256) public view returns (address _owner) {\n        return owner();\n    }\n}\n",
  "sourcePath": "/home/jin/dev/BrokenFlowersApp/public/opensea/contracts/BrokenFlowerFactory.sol",
  "compiler": {
    "name": "solc",
    "version": "0.8.15+commit.e14f2714.Emscripten.clang"
  },
  "schemaVersion": "3.3.4",
  "updatedAt": "2022-07-08T15:37:59.484Z",
  "devdoc": {
    "kind": "dev",
    "methods": {
      "canMint(uint256)": {
        "details": "Returns whether the option ID can be minted. Can return false if the developer wishes to restrict a total supply per option ID (or overall)."
      },
      "mint(uint256,address)": {
        "details": "Mints asset(s) in accordance to a specific address with a particular \"option\". This should be callable only by the contract owner or the owner's Wyvern Proxy (later universal login will solve this). Options should also be delineated 0 - (numOptions() - 1) for convenient indexing.",
        "params": {
          "_optionId": "the option id",
          "_toAddress": "address of the future owner of the asset(s)"
        }
      },
      "owner()": {
        "details": "Returns the address of the current owner."
      },
      "renounceOwnership()": {
        "details": "Leaves the contract without owner. It will not be possible to call `onlyOwner` functions anymore. Can only be called by the current owner. NOTE: Renouncing ownership will leave the contract without an owner, thereby removing any functionality that is only available to the owner."
      },
      "tokenURI(uint256)": {
        "details": "Returns a URL specifying some metadata about the option. This metadata can be of the same structure as the ERC721 metadata."
      },
      "transferOwnership(address)": {
        "details": "Transfers ownership of the contract to a new account (`newOwner`). Can only be called by the current owner."
      }
    },
    "version": 1
  },
  "userdoc": {
    "kind": "user",
    "methods": {
      "isApprovedForAll(address,address)": {
        "notice": "Hack to get things to work automatically on OpenSea. Use isApprovedForAll so the frontend doesn't have to worry about different method names."
      },
      "name()": {
        "notice": "Returns the name of this factory."
      },
      "numOptions()": {
        "notice": "Number of options the factory supports."
      },
      "ownerOf(uint256)": {
        "notice": "Hack to get things to work automatically on OpenSea. Use isApprovedForAll so the frontend doesn't have to worry about different method names."
      },
      "supportsFactoryInterface()": {
        "notice": "Indicates that this is a factory contract. Ideally would use EIP 165 supportsInterface()"
      },
      "symbol()": {
        "notice": "Returns the symbol for this factory."
      },
      "transferFrom(address,address,uint256)": {
        "notice": "Hack to get things to work automatically on OpenSea. Use transferFrom so the frontend doesn't have to worry about different method names."
      }
    },
    "version": 1
  }
}