{
  "contractName": "BrokenFlower",
  "abi": [
    {
      "inputs": [
        {
          "internalType": "address",
          "name": "_proxyRegistryAddress",
          "type": "address"
        }
      ],
      "stateMutability": "nonpayable",
      "type": "constructor"
    },
    {
      "anonymous": false,
      "inputs": [
        {
          "indexed": true,
          "internalType": "address",
          "name": "owner",
          "type": "address"
        },
        {
          "indexed": true,
          "internalType": "address",
          "name": "approved",
          "type": "address"
        },
        {
          "indexed": true,
          "internalType": "uint256",
          "name": "tokenId",
          "type": "uint256"
        }
      ],
      "name": "Approval",
      "type": "event"
    },
    {
      "anonymous": false,
      "inputs": [
        {
          "indexed": true,
          "internalType": "address",
          "name": "owner",
          "type": "address"
        },
        {
          "indexed": true,
          "internalType": "address",
          "name": "operator",
          "type": "address"
        },
        {
          "indexed": false,
          "internalType": "bool",
          "name": "approved",
          "type": "bool"
        }
      ],
      "name": "ApprovalForAll",
      "type": "event"
    },
    {
      "anonymous": false,
      "inputs": [
        {
          "indexed": false,
          "internalType": "address",
          "name": "userAddress",
          "type": "address"
        },
        {
          "indexed": false,
          "internalType": "address payable",
          "name": "relayerAddress",
          "type": "address"
        },
        {
          "indexed": false,
          "internalType": "bytes",
          "name": "functionSignature",
          "type": "bytes"
        }
      ],
      "name": "MetaTransactionExecuted",
      "type": "event"
    },
    {
      "anonymous": false,
      "inputs": [
        {
          "indexed": true,
          "internalType": "address",
          "name": "previousOwner",
          "type": "address"
        },
        {
          "indexed": true,
          "internalType": "address",
          "name": "newOwner",
          "type": "address"
        }
      ],
      "name": "OwnershipTransferred",
      "type": "event"
    },
    {
      "anonymous": false,
      "inputs": [
        {
          "indexed": true,
          "internalType": "address",
          "name": "from",
          "type": "address"
        },
        {
          "indexed": true,
          "internalType": "address",
          "name": "to",
          "type": "address"
        },
        {
          "indexed": true,
          "internalType": "uint256",
          "name": "tokenId",
          "type": "uint256"
        }
      ],
      "name": "Transfer",
      "type": "event"
    },
    {
      "inputs": [],
      "name": "ERC712_VERSION",
      "outputs": [
        {
          "internalType": "string",
          "name": "",
          "type": "string"
        }
      ],
      "stateMutability": "view",
      "type": "function"
    },
    {
      "inputs": [
        {
          "internalType": "address",
          "name": "to",
          "type": "address"
        },
        {
          "internalType": "uint256",
          "name": "tokenId",
          "type": "uint256"
        }
      ],
      "name": "approve",
      "outputs": [],
      "stateMutability": "nonpayable",
      "type": "function"
    },
    {
      "inputs": [
        {
          "internalType": "address",
          "name": "owner",
          "type": "address"
        }
      ],
      "name": "balanceOf",
      "outputs": [
        {
          "internalType": "uint256",
          "name": "",
          "type": "uint256"
        }
      ],
      "stateMutability": "view",
      "type": "function"
    },
    {
      "inputs": [
        {
          "internalType": "address",
          "name": "userAddress",
          "type": "address"
        },
        {
          "internalType": "bytes",
          "name": "functionSignature",
          "type": "bytes"
        },
        {
          "internalType": "bytes32",
          "name": "sigR",
          "type": "bytes32"
        },
        {
          "internalType": "bytes32",
          "name": "sigS",
          "type": "bytes32"
        },
        {
          "internalType": "uint8",
          "name": "sigV",
          "type": "uint8"
        }
      ],
      "name": "executeMetaTransaction",
      "outputs": [
        {
          "internalType": "bytes",
          "name": "",
          "type": "bytes"
        }
      ],
      "stateMutability": "payable",
      "type": "function"
    },
    {
      "inputs": [
        {
          "internalType": "uint256",
          "name": "tokenId",
          "type": "uint256"
        }
      ],
      "name": "getApproved",
      "outputs": [
        {
          "internalType": "address",
          "name": "",
          "type": "address"
        }
      ],
      "stateMutability": "view",
      "type": "function"
    },
    {
      "inputs": [],
      "name": "getChainId",
      "outputs": [
        {
          "internalType": "uint256",
          "name": "",
          "type": "uint256"
        }
      ],
      "stateMutability": "view",
      "type": "function"
    },
    {
      "inputs": [],
      "name": "getDomainSeperator",
      "outputs": [
        {
          "internalType": "bytes32",
          "name": "",
          "type": "bytes32"
        }
      ],
      "stateMutability": "view",
      "type": "function"
    },
    {
      "inputs": [
        {
          "internalType": "address",
          "name": "user",
          "type": "address"
        }
      ],
      "name": "getNonce",
      "outputs": [
        {
          "internalType": "uint256",
          "name": "nonce",
          "type": "uint256"
        }
      ],
      "stateMutability": "view",
      "type": "function"
    },
    {
      "inputs": [
        {
          "internalType": "address",
          "name": "owner",
          "type": "address"
        },
        {
          "internalType": "address",
          "name": "operator",
          "type": "address"
        }
      ],
      "name": "isApprovedForAll",
      "outputs": [
        {
          "internalType": "bool",
          "name": "",
          "type": "bool"
        }
      ],
      "stateMutability": "view",
      "type": "function"
    },
    {
      "inputs": [
        {
          "internalType": "address",
          "name": "_to",
          "type": "address"
        }
      ],
      "name": "mintTo",
      "outputs": [],
      "stateMutability": "nonpayable",
      "type": "function"
    },
    {
      "inputs": [],
      "name": "name",
      "outputs": [
        {
          "internalType": "string",
          "name": "",
          "type": "string"
        }
      ],
      "stateMutability": "view",
      "type": "function"
    },
    {
      "inputs": [],
      "name": "owner",
      "outputs": [
        {
          "internalType": "address",
          "name": "",
          "type": "address"
        }
      ],
      "stateMutability": "view",
      "type": "function"
    },
    {
      "inputs": [
        {
          "internalType": "uint256",
          "name": "tokenId",
          "type": "uint256"
        }
      ],
      "name": "ownerOf",
      "outputs": [
        {
          "internalType": "address",
          "name": "",
          "type": "address"
        }
      ],
      "stateMutability": "view",
      "type": "function"
    },
    {
      "inputs": [],
      "name": "renounceOwnership",
      "outputs": [],
      "stateMutability": "nonpayable",
      "type": "function"
    },
    {
      "inputs": [
        {
          "internalType": "address",
          "name": "from",
          "type": "address"
        },
        {
          "internalType": "address",
          "name": "to",
          "type": "address"
        },
        {
          "internalType": "uint256",
          "name": "tokenId",
          "type": "uint256"
        }
      ],
      "name": "safeTransferFrom",
      "outputs": [],
      "stateMutability": "nonpayable",
      "type": "function"
    },
    {
      "inputs": [
        {
          "internalType": "address",
          "name": "from",
          "type": "address"
        },
        {
          "internalType": "address",
          "name": "to",
          "type": "address"
        },
        {
          "internalType": "uint256",
          "name": "tokenId",
          "type": "uint256"
        },
        {
          "internalType": "bytes",
          "name": "_data",
          "type": "bytes"
        }
      ],
      "name": "safeTransferFrom",
      "outputs": [],
      "stateMutability": "nonpayable",
      "type": "function"
    },
    {
      "inputs": [
        {
          "internalType": "address",
          "name": "operator",
          "type": "address"
        },
        {
          "internalType": "bool",
          "name": "approved",
          "type": "bool"
        }
      ],
      "name": "setApprovalForAll",
      "outputs": [],
      "stateMutability": "nonpayable",
      "type": "function"
    },
    {
      "inputs": [
        {
          "internalType": "bytes4",
          "name": "interfaceId",
          "type": "bytes4"
        }
      ],
      "name": "supportsInterface",
      "outputs": [
        {
          "internalType": "bool",
          "name": "",
          "type": "bool"
        }
      ],
      "stateMutability": "view",
      "type": "function"
    },
    {
      "inputs": [],
      "name": "symbol",
      "outputs": [
        {
          "internalType": "string",
          "name": "",
          "type": "string"
        }
      ],
      "stateMutability": "view",
      "type": "function"
    },
    {
      "inputs": [
        {
          "internalType": "uint256",
          "name": "_tokenId",
          "type": "uint256"
        }
      ],
      "name": "tokenURI",
      "outputs": [
        {
          "internalType": "string",
          "name": "",
          "type": "string"
        }
      ],
      "stateMutability": "pure",
      "type": "function"
    },
    {
      "inputs": [],
      "name": "totalSupply",
      "outputs": [
        {
          "internalType": "uint256",
          "name": "",
          "type": "uint256"
        }
      ],
      "stateMutability": "view",
      "type": "function"
    },
    {
      "inputs": [
        {
          "internalType": "address",
          "name": "from",
          "type": "address"
        },
        {
          "internalType": "address",
          "name": "to",
          "type": "address"
        },
        {
          "internalType": "uint256",
          "name": "tokenId",
          "type": "uint256"
        }
      ],
      "name": "transferFrom",
      "outputs": [],
      "stateMutability": "nonpayable",
      "type": "function"
    },
    {
      "inputs": [
        {
          "internalType": "address",
          "name": "newOwner",
          "type": "address"
        }
      ],
      "name": "transferOwnership",
      "outputs": [],
      "stateMutability": "nonpayable",
      "type": "function"
    },
    {
      "inputs": [],
      "name": "baseTokenURI",
      "outputs": [
        {
          "internalType": "string",
          "name": "",
          "type": "string"
        }
      ],
      "stateMutability": "pure",
      "type": "function"
    },
    {
      "inputs": [],
      "name": "contractURI",
      "outputs": [
        {
          "internalType": "string",
          "name": "",
          "type": "string"
        }
      ],
      "stateMutability": "pure",
      "type": "function"
    }
  ],
  "bytecode": "0x60806040526006805460ff191690553480156200001b57600080fd5b506040516200232f3803806200232f8339810160408190526200003e91620002de565b60405180604001604052806008815260200167437265617475726560c01b815250604051806040016040528060038152602001624f534360e81b81525082828281600090816200008f9190620003b5565b5060016200009e8282620003b5565b505050620000bb620000b56200010360201b60201c565b6200011f565b600b80546001600160a01b0319166001600160a01b038316179055620000ee600a62000171602090811b62000d3417901c565b620000f9836200017a565b5050505062000481565b60006200011a620001de60201b62000d3d1760201c565b905090565b600980546001600160a01b038381166001600160a01b0319831681179093556040519116919082907f8be0079c531659141344cd1fd0a4f28419497f9722a3daafe3b4186f6b6457e090600090a35050565b80546001019055565b60065460ff1615620001c35760405162461bcd60e51b815260206004820152600e60248201526d185b1c9958591e481a5b9a5d195960921b604482015260640160405180910390fd5b620001ce816200023c565b506006805460ff19166001179055565b60003033036200023657600080368080601f0160208091040260200160405190810160405280939291908181526020018383808284376000920191909152505050503601516001600160a01b03169150620002399050565b50335b90565b6040518060800160405280604f8152602001620022e0604f9139805160209182012082519282019290922060408051808201825260018152603160f81b90840152805180840194909452838101919091527fc89efdaa54c0f20c7adf612882df0950f5a951637e0307cdcb4c672f298b8bc660608401523060808401524660a0808501919091528151808503909101815260c090930190528151910120600755565b600060208284031215620002f157600080fd5b81516001600160a01b03811681146200030957600080fd5b9392505050565b634e487b7160e01b600052604160045260246000fd5b600181811c908216806200033b57607f821691505b6020821081036200035c57634e487b7160e01b600052602260045260246000fd5b50919050565b601f821115620003b057600081815260208120601f850160051c810160208610156200038b5750805b601f850160051c820191505b81811015620003ac5782815560010162000397565b5050505b505050565b81516001600160401b03811115620003d157620003d162000310565b620003e981620003e2845462000326565b8462000362565b602080601f831160018114620004215760008415620004085750858301515b600019600386901b1c1916600185901b178555620003ac565b600085815260208120601f198616915b82811015620004525788860151825594840194600190910190840162000431565b5085821015620004715787850151600019600388901b60f8161c191681555b5050505050600190811b01905550565b611e4f80620004916000396000f3fe6080604052600436106101265760003560e01c806301ffc9a71461012b57806306fdde0314610160578063081812fc14610182578063095ea7b3146101af5780630c53c51c146101d15780630f7e5970146101e457806318160ddd1461021157806320379ee51461023457806323b872dd146102495780632d0335ab146102695780633408e4701461029f57806342842e0e146102b25780636352211e146102d257806370a08231146102f2578063715018a614610312578063755edd17146103275780638da5cb5b1461034757806395d89b411461035c578063a22cb46514610371578063b88d4fde14610391578063c87b56dd146103b1578063d547cfb7146103d1578063e8a3d485146103e6578063e985e9c5146103fb578063f2fde38b1461041b575b600080fd5b34801561013757600080fd5b5061014b61014636600461172c565b61043b565b60405190151581526020015b60405180910390f35b34801561016c57600080fd5b5061017561048d565b60405161015791906117a1565b34801561018e57600080fd5b506101a261019d3660046117b4565b61051f565b60405161015791906117cd565b3480156101bb57600080fd5b506101cf6101ca3660046117f6565b6105ac565b005b6101756101df3660046118c4565b6106ce565b3480156101f057600080fd5b50610175604051806040016040528060018152602001603160f81b81525081565b34801561021d57600080fd5b506102266108b7565b604051908152602001610157565b34801561024057600080fd5b50600754610226565b34801561025557600080fd5b506101cf610264366004611941565b6108d3565b34801561027557600080fd5b50610226610284366004611982565b6001600160a01b031660009081526008602052604090205490565b3480156102ab57600080fd5b5046610226565b3480156102be57600080fd5b506101cf6102cd366004611941565b61090b565b3480156102de57600080fd5b506101a26102ed3660046117b4565b610926565b3480156102fe57600080fd5b5061022661030d366004611982565b61099d565b34801561031e57600080fd5b506101cf610a24565b34801561033357600080fd5b506101cf610342366004611982565b610a6f565b34801561035357600080fd5b506101a2610ad7565b34801561036857600080fd5b50610175610ae6565b34801561037d57600080fd5b506101cf61038c36600461199f565b610af5565b34801561039d57600080fd5b506101cf6103ac3660046119dd565b610b07565b3480156103bd57600080fd5b506101756103cc3660046117b4565b610b46565b3480156103dd57600080fd5b50610175610b80565b3480156103f257600080fd5b50610175610ba0565b34801561040757600080fd5b5061014b610416366004611a48565b610bc0565b34801561042757600080fd5b506101cf610436366004611982565b610c84565b60006001600160e01b031982166380ac58cd60e01b148061046c57506001600160e01b03198216635b5e139f60e01b145b8061048757506301ffc9a760e01b6001600160e01b03198316145b92915050565b60606000805461049c90611a76565b80601f01602080910402602001604051908101604052809291908181526020018280546104c890611a76565b80156105155780601f106104ea57610100808354040283529160200191610515565b820191906000526020600020905b8154815290600101906020018083116104f857829003601f168201915b5050505050905090565b600061052a82610d99565b6105905760405162461bcd60e51b815260206004820152602c60248201527f4552433732313a20617070726f76656420717565727920666f72206e6f6e657860448201526b34b9ba32b73a103a37b5b2b760a11b60648201526084015b60405180910390fd5b506000908152600460205260409020546001600160a01b031690565b60006105b782610926565b9050806001600160a01b0316836001600160a01b0316036106245760405162461bcd60e51b815260206004820152602160248201527f4552433732313a20617070726f76616c20746f2063757272656e74206f776e656044820152603960f91b6064820152608401610587565b806001600160a01b0316610636610db6565b6001600160a01b03161480610652575061065281610416610db6565b6106bf5760405162461bcd60e51b815260206004820152603860248201527f4552433732313a20617070726f76652063616c6c6572206973206e6f74206f776044820152771b995c881b9bdc88185c1c1c9bdd995908199bdc88185b1b60421b6064820152608401610587565b6106c98383610dc0565b505050565b60408051606081810183526001600160a01b0388166000818152600860209081529085902054845283015291810186905261070c8782878787610e2e565b6107625760405162461bcd60e51b815260206004820152602160248201527f5369676e657220616e64207369676e617475726520646f206e6f74206d6174636044820152600d60fb1b6064820152608401610587565b6001600160a01b038716600090815260086020526040902054610786906001610f1e565b6001600160a01b0388166000908152600860205260409081902091909155517f5845892132946850460bff5a0083f71031bc5bf9aadcd40f1de79423eac9b10b906107d690899033908a90611ab0565b60405180910390a1600080306001600160a01b0316888a6040516020016107fe929190611ae5565b60408051601f198184030181529082905261081891611b17565b6000604051808303816000865af19150503d8060008114610855576040519150601f19603f3d011682016040523d82523d6000602084013e61085a565b606091505b5091509150816108ab5760405162461bcd60e51b815260206004820152601c60248201527b119d5b98dd1a5bdb8818d85b1b081b9bdd081cdd58d8d95cdcd99d5b60221b6044820152606401610587565b98975050505050505050565b600060016108c4600a5490565b6108ce9190611b49565b905090565b6108e46108de610db6565b82610f31565b6109005760405162461bcd60e51b815260040161058790611b60565b6106c9838383610ff3565b6106c983838360405180602001604052806000815250610b07565b6000818152600260205260408120546001600160a01b0316806104875760405162461bcd60e51b815260206004820152602960248201527f4552433732313a206f776e657220717565727920666f72206e6f6e657869737460448201526832b73a103a37b5b2b760b91b6064820152608401610587565b60006001600160a01b038216610a085760405162461bcd60e51b815260206004820152602a60248201527f4552433732313a2062616c616e636520717565727920666f7220746865207a65604482015269726f206164647265737360b01b6064820152608401610587565b506001600160a01b031660009081526003602052604090205490565b610a2c610db6565b6001600160a01b0316610a3d610ad7565b6001600160a01b031614610a635760405162461bcd60e51b815260040161058790611bb1565b610a6d6000611193565b565b610a77610db6565b6001600160a01b0316610a88610ad7565b6001600160a01b031614610aae5760405162461bcd60e51b815260040161058790611bb1565b6000610ab9600a5490565b9050610ac9600a80546001019055565b610ad382826111e5565b5050565b6009546001600160a01b031690565b60606001805461049c90611a76565b610ad3610b00610db6565b83836111ff565b610b18610b12610db6565b83610f31565b610b345760405162461bcd60e51b815260040161058790611b60565b610b40848484846112c9565b50505050565b6060610b50610b80565b610b59836112fc565b604051602001610b6a929190611be6565b6040516020818303038152906040529050919050565b60606040518060600160405280602e8152602001611dec602e9139905090565b6060604051806080016040528060458152602001611da760459139905090565b600b5460405163c455279160e01b81526000916001600160a01b039081169190841690829063c455279190610bf99088906004016117cd565b602060405180830381865afa158015610c16573d6000803e3d6000fd5b505050506040513d601f19601f82011682018060405250810190610c3a9190611c15565b6001600160a01b031603610c52576001915050610487565b6001600160a01b0380851660009081526005602090815260408083209387168352929052205460ff165b949350505050565b610c8c610db6565b6001600160a01b0316610c9d610ad7565b6001600160a01b031614610cc35760405162461bcd60e51b815260040161058790611bb1565b6001600160a01b038116610d285760405162461bcd60e51b815260206004820152602660248201527f4f776e61626c653a206e6577206f776e657220697320746865207a65726f206160448201526564647265737360d01b6064820152608401610587565b610d3181611193565b50565b80546001019055565b6000303303610d9357600080368080601f0160208091040260200160405190810160405280939291908181526020018383808284376000920191909152505050503601516001600160a01b03169150610d969050565b50335b90565b6000908152600260205260409020546001600160a01b0316151590565b60006108ce610d3d565b600081815260046020526040902080546001600160a01b0319166001600160a01b0384169081179091558190610df582610926565b6001600160a01b03167f8c5be1e5ebec7d5bd14f71427d1e84f3dd0314c0f7b2291e5b200ac8c7c3b92560405160405180910390a45050565b60006001600160a01b038616610e945760405162461bcd60e51b815260206004820152602560248201527f4e61746976654d6574615472616e73616374696f6e3a20494e56414c49445f5360448201526424a3a722a960d91b6064820152608401610587565b6001610ea7610ea2876113fc565b611479565b6040805160008152602081018083529290925260ff851690820152606081018690526080810185905260a0016020604051602081039080840390855afa158015610ef5573d6000803e3d6000fd5b505050602060405103516001600160a01b0316866001600160a01b031614905095945050505050565b6000610f2a8284611c32565b9392505050565b6000610f3c82610d99565b610f9d5760405162461bcd60e51b815260206004820152602c60248201527f4552433732313a206f70657261746f7220717565727920666f72206e6f6e657860448201526b34b9ba32b73a103a37b5b2b760a11b6064820152608401610587565b6000610fa883610926565b9050806001600160a01b0316846001600160a01b03161480610fe35750836001600160a01b0316610fd88461051f565b6001600160a01b0316145b80610c7c5750610c7c8185610bc0565b826001600160a01b031661100682610926565b6001600160a01b03161461106e5760405162461bcd60e51b815260206004820152602960248201527f4552433732313a207472616e73666572206f6620746f6b656e2074686174206960448201526839903737ba1037bbb760b91b6064820152608401610587565b6001600160a01b0382166110d05760405162461bcd60e51b8152602060048201526024808201527f4552433732313a207472616e7366657220746f20746865207a65726f206164646044820152637265737360e01b6064820152608401610587565b6110db600082610dc0565b6001600160a01b0383166000908152600360205260408120805460019290611104908490611b49565b90915550506001600160a01b0382166000908152600360205260408120805460019290611132908490611c32565b909155505060008181526002602052604080822080546001600160a01b0319166001600160a01b0386811691821790925591518493918716917fddf252ad1be2c89b69c2b068fc378daa952ba7f163c4a11628f55a4df523b3ef91a4505050565b600980546001600160a01b038381166001600160a01b0319831681179093556040519116919082907f8be0079c531659141344cd1fd0a4f28419497f9722a3daafe3b4186f6b6457e090600090a35050565b610ad38282604051806020016040528060008152506114a9565b816001600160a01b0316836001600160a01b03160361125c5760405162461bcd60e51b815260206004820152601960248201527822a9219b99189d1030b8383937bb32903a379031b0b63632b960391b6044820152606401610587565b6001600160a01b03838116600081815260056020908152604080832094871680845294825291829020805460ff191686151590811790915591519182527f17307eab39ab6107e8899845ad3d59bd9653f200f220920489ca2b5937696c31910160405180910390a3505050565b6112d4848484610ff3565b6112e0848484846114dc565b610b405760405162461bcd60e51b815260040161058790611c4a565b6060816000036113235750506040805180820190915260018152600360fc1b602082015290565b8160005b811561134d578061133781611c9c565b91506113469050600a83611ccb565b9150611327565b6000816001600160401b0381111561136757611367611822565b6040519080825280601f01601f191660200182016040528015611391576020820181803683370190505b5090505b8415610c7c576113a6600183611b49565b91506113b3600a86611cdf565b6113be906030611c32565b60f81b8183815181106113d3576113d3611cf3565b60200101906001600160f81b031916908160001a9053506113f5600a86611ccb565b9450611395565b6000604051806080016040528060438152602001611d64604391398051602091820120835184830151604080870151805190860120905161145c950193845260208401929092526001600160a01b03166040830152606082015260800190565b604051602081830303815290604052805190602001209050919050565b600061148460075490565b60405161190160f01b602082015260228101919091526042810183905260620161145c565b6114b383836115e4565b6114c060008484846114dc565b6106c95760405162461bcd60e51b815260040161058790611c4a565b60006001600160a01b0384163b156115d957836001600160a01b031663150b7a02611505610db6565b8786866040518563ffffffff1660e01b81526004016115279493929190611d09565b6020604051808303816000875af1925050508015611562575060408051601f3d908101601f1916820190925261155f91810190611d46565b60015b6115bf573d808015611590576040519150601f19603f3d011682016040523d82523d6000602084013e611595565b606091505b5080516000036115b75760405162461bcd60e51b815260040161058790611c4a565b805181602001fd5b6001600160e01b031916630a85bd0160e11b149050610c7c565b506001949350505050565b6001600160a01b03821661163a5760405162461bcd60e51b815260206004820181905260248201527f4552433732313a206d696e7420746f20746865207a65726f20616464726573736044820152606401610587565b61164381610d99565b1561168f5760405162461bcd60e51b815260206004820152601c60248201527b115490cdcc8c4e881d1bdad95b88185b1c9958591e481b5a5b9d195960221b6044820152606401610587565b6001600160a01b03821660009081526003602052604081208054600192906116b8908490611c32565b909155505060008181526002602052604080822080546001600160a01b0319166001600160a01b03861690811790915590518392907fddf252ad1be2c89b69c2b068fc378daa952ba7f163c4a11628f55a4df523b3ef908290a45050565b6001600160e01b031981168114610d3157600080fd5b60006020828403121561173e57600080fd5b8135610f2a81611716565b60005b8381101561176457818101518382015260200161174c565b83811115610b405750506000910152565b6000815180845261178d816020860160208601611749565b601f01601f19169290920160200192915050565b602081526000610f2a6020830184611775565b6000602082840312156117c657600080fd5b5035919050565b6001600160a01b0391909116815260200190565b6001600160a01b0381168114610d3157600080fd5b6000806040838503121561180957600080fd5b8235611814816117e1565b946020939093013593505050565b634e487b7160e01b600052604160045260246000fd5b600082601f83011261184957600080fd5b81356001600160401b038082111561186357611863611822565b604051601f8301601f19908116603f0116810190828211818310171561188b5761188b611822565b816040528381528660208588010111156118a457600080fd5b836020870160208301376000602085830101528094505050505092915050565b600080600080600060a086880312156118dc57600080fd5b85356118e7816117e1565b945060208601356001600160401b0381111561190257600080fd5b61190e88828901611838565b9450506040860135925060608601359150608086013560ff8116811461193357600080fd5b809150509295509295909350565b60008060006060848603121561195657600080fd5b8335611961816117e1565b92506020840135611971816117e1565b929592945050506040919091013590565b60006020828403121561199457600080fd5b8135610f2a816117e1565b600080604083850312156119b257600080fd5b82356119bd816117e1565b9150602083013580151581146119d257600080fd5b809150509250929050565b600080600080608085870312156119f357600080fd5b84356119fe816117e1565b93506020850135611a0e816117e1565b92506040850135915060608501356001600160401b03811115611a3057600080fd5b611a3c87828801611838565b91505092959194509250565b60008060408385031215611a5b57600080fd5b8235611a66816117e1565b915060208301356119d2816117e1565b600181811c90821680611a8a57607f821691505b602082108103611aaa57634e487b7160e01b600052602260045260246000fd5b50919050565b6001600160a01b03848116825283166020820152606060408201819052600090611adc90830184611775565b95945050505050565b60008351611af7818460208801611749565b60609390931b6001600160601b0319169190920190815260140192915050565b60008251611b29818460208701611749565b9190910192915050565b634e487b7160e01b600052601160045260246000fd5b600082821015611b5b57611b5b611b33565b500390565b60208082526031908201527f4552433732313a207472616e736665722063616c6c6572206973206e6f74206f6040820152701ddb995c881b9bdc88185c1c1c9bdd9959607a1b606082015260800190565b6020808252818101527f4f776e61626c653a2063616c6c6572206973206e6f7420746865206f776e6572604082015260600190565b60008351611bf8818460208801611749565b835190830190611c0c818360208801611749565b01949350505050565b600060208284031215611c2757600080fd5b8151610f2a816117e1565b60008219821115611c4557611c45611b33565b500190565b60208082526032908201527f4552433732313a207472616e7366657220746f206e6f6e20455243373231526560408201527131b2b4bb32b91034b6b83632b6b2b73a32b960711b606082015260800190565b600060018201611cae57611cae611b33565b5060010190565b634e487b7160e01b600052601260045260246000fd5b600082611cda57611cda611cb5565b500490565b600082611cee57611cee611cb5565b500690565b634e487b7160e01b600052603260045260246000fd5b6001600160a01b0385811682528416602082015260408101839052608060608201819052600090611d3c90830184611775565b9695505050505050565b600060208284031215611d5857600080fd5b8151610f2a8161171656fe4d6574615472616e73616374696f6e2875696e74323536206e6f6e63652c616464726573732066726f6d2c62797465732066756e6374696f6e5369676e61747572652968747470733a2f2f6574682d72696e6b6562792e616c6368656d796170692e696f2f76322f5a514a677678707071375175724c75794c2d496f57335941543753556966306968747470733a2f2f6372656174757265732d6170692e6f70656e7365612e696f2f6170692f63726561747572652fa2646970667358221220ab08d52693236706851ecc5fa46694ca96d201004deb158fcdc01f59a7a57f4d64736f6c634300080f0033454950373132446f6d61696e28737472696e67206e616d652c737472696e672076657273696f6e2c6164647265737320766572696679696e67436f6e74726163742c627974657333322073616c7429",
  "immutableReferences": {},
  "source": "// SPDX-License-Identifier: MIT\n\npragma solidity ^0.8.0;\n\nimport \"./ERC721Tradable.sol\";\n\n/**\n * @title BrokenFlower\n * BrokenFlower - a contract for my non-fungible brokenflowers.\n */\ncontract BrokenFlower is ERC721Tradable {\n    constructor(address _proxyRegistryAddress)\n        ERC721Tradable(\"BrokenFlower\", \"OSC\", _proxyRegistryAddress)\n    {}\n\n    function baseTokenURI() override public pure returns (string memory) {\n        return \"https://brokenflowers-api.opensea.io/api/brokenflower/\";\n    }\n\n    function contractURI() public pure returns (string memory) {\n        return \"https://eth-rinkeby.alchemyapi.io/v2/ZQJgvxppq7QurLuyL-IoW3YAT7SUif0i\";\n    }\n}\n",
  "sourcePath": "/home/jin/dev/BrokenFlowersApp/public/opensea/contracts/BrokenFlower.sol",
  "compiler": {
    "name": "solc",
    "version": "0.8.15+commit.e14f2714.Emscripten.clang"
  },
  "schemaVersion": "3.3.4",
  "updatedAt": "2022-07-08T15:37:59.364Z",
  "devdoc": {
    "kind": "dev",
    "methods": {
      "approve(address,uint256)": {
        "details": "See {IERC721-approve}."
      },
      "balanceOf(address)": {
        "details": "See {IERC721-balanceOf}."
      },
      "getApproved(uint256)": {
        "details": "See {IERC721-getApproved}."
      },
      "mintTo(address)": {
        "details": "Mints a token to an address with a tokenURI.",
        "params": {
          "_to": "address of the future owner of the token"
        }
      },
      "name()": {
        "details": "See {IERC721Metadata-name}."
      },
      "owner()": {
        "details": "Returns the address of the current owner."
      },
      "ownerOf(uint256)": {
        "details": "See {IERC721-ownerOf}."
      },
      "renounceOwnership()": {
        "details": "Leaves the contract without owner. It will not be possible to call `onlyOwner` functions anymore. Can only be called by the current owner. NOTE: Renouncing ownership will leave the contract without an owner, thereby removing any functionality that is only available to the owner."
      },
      "safeTransferFrom(address,address,uint256)": {
        "details": "See {IERC721-safeTransferFrom}."
      },
      "safeTransferFrom(address,address,uint256,bytes)": {
        "details": "See {IERC721-safeTransferFrom}."
      },
      "setApprovalForAll(address,bool)": {
        "details": "See {IERC721-setApprovalForAll}."
      },
      "supportsInterface(bytes4)": {
        "details": "See {IERC165-supportsInterface}."
      },
      "symbol()": {
        "details": "See {IERC721Metadata-symbol}."
      },
      "totalSupply()": {
        "details": "Returns the total tokens minted so far. 1 is always subtracted from the Counter since it tracks the next available tokenId."
      },
      "transferFrom(address,address,uint256)": {
        "details": "See {IERC721-transferFrom}."
      },
      "transferOwnership(address)": {
        "details": "Transfers ownership of the contract to a new account (`newOwner`). Can only be called by the current owner."
      }
    },
    "title": "BrokenFlower BrokenFlower - a contract for my non-fungible brokenflowers.",
    "version": 1
  },
  "userdoc": {
    "kind": "user",
    "methods": {
      "isApprovedForAll(address,address)": {
        "notice": "Override isApprovedForAll to whitelist user's OpenSea proxy accounts to enable gas-less listings."
      }
    },
    "version": 1
  }
}