{
  "contractName": "BrokenFlowerAccessoryLootBox",
  "abi": [
    {
      "inputs": [
        {
          "internalType": "address",
          "name": "_proxyRegistryAddress",
          "type": "address"
        }
      ],
      "stateMutability": "nonpayable",
      "type": "constructor"
    },
    {
      "anonymous": false,
      "inputs": [
        {
          "indexed": true,
          "internalType": "address",
          "name": "account",
          "type": "address"
        },
        {
          "indexed": true,
          "internalType": "address",
          "name": "operator",
          "type": "address"
        },
        {
          "indexed": false,
          "internalType": "bool",
          "name": "approved",
          "type": "bool"
        }
      ],
      "name": "ApprovalForAll",
      "type": "event"
    },
    {
      "anonymous": false,
      "inputs": [
        {
          "indexed": false,
          "internalType": "address",
          "name": "userAddress",
          "type": "address"
        },
        {
          "indexed": false,
          "internalType": "address payable",
          "name": "relayerAddress",
          "type": "address"
        },
        {
          "indexed": false,
          "internalType": "bytes",
          "name": "functionSignature",
          "type": "bytes"
        }
      ],
      "name": "MetaTransactionExecuted",
      "type": "event"
    },
    {
      "anonymous": false,
      "inputs": [
        {
          "indexed": true,
          "internalType": "address",
          "name": "previousOwner",
          "type": "address"
        },
        {
          "indexed": true,
          "internalType": "address",
          "name": "newOwner",
          "type": "address"
        }
      ],
      "name": "OwnershipTransferred",
      "type": "event"
    },
    {
      "anonymous": false,
      "inputs": [
        {
          "indexed": true,
          "internalType": "address",
          "name": "operator",
          "type": "address"
        },
        {
          "indexed": true,
          "internalType": "address",
          "name": "from",
          "type": "address"
        },
        {
          "indexed": true,
          "internalType": "address",
          "name": "to",
          "type": "address"
        },
        {
          "indexed": false,
          "internalType": "uint256[]",
          "name": "ids",
          "type": "uint256[]"
        },
        {
          "indexed": false,
          "internalType": "uint256[]",
          "name": "values",
          "type": "uint256[]"
        }
      ],
      "name": "TransferBatch",
      "type": "event"
    },
    {
      "anonymous": false,
      "inputs": [
        {
          "indexed": true,
          "internalType": "address",
          "name": "operator",
          "type": "address"
        },
        {
          "indexed": true,
          "internalType": "address",
          "name": "from",
          "type": "address"
        },
        {
          "indexed": true,
          "internalType": "address",
          "name": "to",
          "type": "address"
        },
        {
          "indexed": false,
          "internalType": "uint256",
          "name": "id",
          "type": "uint256"
        },
        {
          "indexed": false,
          "internalType": "uint256",
          "name": "value",
          "type": "uint256"
        }
      ],
      "name": "TransferSingle",
      "type": "event"
    },
    {
      "anonymous": false,
      "inputs": [
        {
          "indexed": false,
          "internalType": "string",
          "name": "value",
          "type": "string"
        },
        {
          "indexed": true,
          "internalType": "uint256",
          "name": "id",
          "type": "uint256"
        }
      ],
      "name": "URI",
      "type": "event"
    },
    {
      "inputs": [],
      "name": "ERC712_VERSION",
      "outputs": [
        {
          "internalType": "string",
          "name": "",
          "type": "string"
        }
      ],
      "stateMutability": "view",
      "type": "function"
    },
    {
      "inputs": [
        {
          "internalType": "address",
          "name": "account",
          "type": "address"
        },
        {
          "internalType": "uint256",
          "name": "id",
          "type": "uint256"
        }
      ],
      "name": "balanceOf",
      "outputs": [
        {
          "internalType": "uint256",
          "name": "",
          "type": "uint256"
        }
      ],
      "stateMutability": "view",
      "type": "function"
    },
    {
      "inputs": [
        {
          "internalType": "address[]",
          "name": "accounts",
          "type": "address[]"
        },
        {
          "internalType": "uint256[]",
          "name": "ids",
          "type": "uint256[]"
        }
      ],
      "name": "balanceOfBatch",
      "outputs": [
        {
          "internalType": "uint256[]",
          "name": "",
          "type": "uint256[]"
        }
      ],
      "stateMutability": "view",
      "type": "function"
    },
    {
      "inputs": [
        {
          "internalType": "address",
          "name": "_to",
          "type": "address"
        },
        {
          "internalType": "uint256[]",
          "name": "_ids",
          "type": "uint256[]"
        },
        {
          "internalType": "uint256[]",
          "name": "_quantities",
          "type": "uint256[]"
        },
        {
          "internalType": "bytes",
          "name": "_data",
          "type": "bytes"
        }
      ],
      "name": "batchMint",
      "outputs": [],
      "stateMutability": "nonpayable",
      "type": "function"
    },
    {
      "inputs": [
        {
          "internalType": "address",
          "name": "_initialOwner",
          "type": "address"
        },
        {
          "internalType": "uint256",
          "name": "_id",
          "type": "uint256"
        },
        {
          "internalType": "uint256",
          "name": "_initialSupply",
          "type": "uint256"
        },
        {
          "internalType": "string",
          "name": "_uri",
          "type": "string"
        },
        {
          "internalType": "bytes",
          "name": "_data",
          "type": "bytes"
        }
      ],
      "name": "create",
      "outputs": [
        {
          "internalType": "uint256",
          "name": "",
          "type": "uint256"
        }
      ],
      "stateMutability": "nonpayable",
      "type": "function"
    },
    {
      "inputs": [
        {
          "internalType": "uint256",
          "name": "",
          "type": "uint256"
        }
      ],
      "name": "creators",
      "outputs": [
        {
          "internalType": "address",
          "name": "",
          "type": "address"
        }
      ],
      "stateMutability": "view",
      "type": "function"
    },
    {
      "inputs": [
        {
          "internalType": "address",
          "name": "userAddress",
          "type": "address"
        },
        {
          "internalType": "bytes",
          "name": "functionSignature",
          "type": "bytes"
        },
        {
          "internalType": "bytes32",
          "name": "sigR",
          "type": "bytes32"
        },
        {
          "internalType": "bytes32",
          "name": "sigS",
          "type": "bytes32"
        },
        {
          "internalType": "uint8",
          "name": "sigV",
          "type": "uint8"
        }
      ],
      "name": "executeMetaTransaction",
      "outputs": [
        {
          "internalType": "bytes",
          "name": "",
          "type": "bytes"
        }
      ],
      "stateMutability": "payable",
      "type": "function"
    },
    {
      "inputs": [
        {
          "internalType": "uint256",
          "name": "_id",
          "type": "uint256"
        }
      ],
      "name": "exists",
      "outputs": [
        {
          "internalType": "bool",
          "name": "",
          "type": "bool"
        }
      ],
      "stateMutability": "view",
      "type": "function"
    },
    {
      "inputs": [],
      "name": "getChainId",
      "outputs": [
        {
          "internalType": "uint256",
          "name": "",
          "type": "uint256"
        }
      ],
      "stateMutability": "view",
      "type": "function"
    },
    {
      "inputs": [],
      "name": "getDomainSeperator",
      "outputs": [
        {
          "internalType": "bytes32",
          "name": "",
          "type": "bytes32"
        }
      ],
      "stateMutability": "view",
      "type": "function"
    },
    {
      "inputs": [
        {
          "internalType": "address",
          "name": "user",
          "type": "address"
        }
      ],
      "name": "getNonce",
      "outputs": [
        {
          "internalType": "uint256",
          "name": "nonce",
          "type": "uint256"
        }
      ],
      "stateMutability": "view",
      "type": "function"
    },
    {
      "inputs": [
        {
          "internalType": "address",
          "name": "_owner",
          "type": "address"
        },
        {
          "internalType": "address",
          "name": "_operator",
          "type": "address"
        }
      ],
      "name": "isApprovedForAll",
      "outputs": [
        {
          "internalType": "bool",
          "name": "isOperator",
          "type": "bool"
        }
      ],
      "stateMutability": "view",
      "type": "function"
    },
    {
      "inputs": [],
      "name": "name",
      "outputs": [
        {
          "internalType": "string",
          "name": "",
          "type": "string"
        }
      ],
      "stateMutability": "view",
      "type": "function"
    },
    {
      "inputs": [],
      "name": "owner",
      "outputs": [
        {
          "internalType": "address",
          "name": "",
          "type": "address"
        }
      ],
      "stateMutability": "view",
      "type": "function"
    },
    {
      "inputs": [],
      "name": "renounceOwnership",
      "outputs": [],
      "stateMutability": "nonpayable",
      "type": "function"
    },
    {
      "inputs": [
        {
          "internalType": "address",
          "name": "from",
          "type": "address"
        },
        {
          "internalType": "address",
          "name": "to",
          "type": "address"
        },
        {
          "internalType": "uint256[]",
          "name": "ids",
          "type": "uint256[]"
        },
        {
          "internalType": "uint256[]",
          "name": "amounts",
          "type": "uint256[]"
        },
        {
          "internalType": "bytes",
          "name": "data",
          "type": "bytes"
        }
      ],
      "name": "safeBatchTransferFrom",
      "outputs": [],
      "stateMutability": "nonpayable",
      "type": "function"
    },
    {
      "inputs": [
        {
          "internalType": "address",
          "name": "from",
          "type": "address"
        },
        {
          "internalType": "address",
          "name": "to",
          "type": "address"
        },
        {
          "internalType": "uint256",
          "name": "id",
          "type": "uint256"
        },
        {
          "internalType": "uint256",
          "name": "amount",
          "type": "uint256"
        },
        {
          "internalType": "bytes",
          "name": "data",
          "type": "bytes"
        }
      ],
      "name": "safeTransferFrom",
      "outputs": [],
      "stateMutability": "nonpayable",
      "type": "function"
    },
    {
      "inputs": [
        {
          "internalType": "address",
          "name": "operator",
          "type": "address"
        },
        {
          "internalType": "bool",
          "name": "approved",
          "type": "bool"
        }
      ],
      "name": "setApprovalForAll",
      "outputs": [],
      "stateMutability": "nonpayable",
      "type": "function"
    },
    {
      "inputs": [
        {
          "internalType": "address",
          "name": "_to",
          "type": "address"
        },
        {
          "internalType": "uint256[]",
          "name": "_ids",
          "type": "uint256[]"
        }
      ],
      "name": "setCreator",
      "outputs": [],
      "stateMutability": "nonpayable",
      "type": "function"
    },
    {
      "inputs": [
        {
          "internalType": "uint256",
          "name": "_tokenId",
          "type": "uint256"
        },
        {
          "internalType": "string",
          "name": "_newURI",
          "type": "string"
        }
      ],
      "name": "setCustomURI",
      "outputs": [],
      "stateMutability": "nonpayable",
      "type": "function"
    },
    {
      "inputs": [
        {
          "internalType": "string",
          "name": "_newURI",
          "type": "string"
        }
      ],
      "name": "setURI",
      "outputs": [],
      "stateMutability": "nonpayable",
      "type": "function"
    },
    {
      "inputs": [
        {
          "internalType": "bytes4",
          "name": "interfaceId",
          "type": "bytes4"
        }
      ],
      "name": "supportsInterface",
      "outputs": [
        {
          "internalType": "bool",
          "name": "",
          "type": "bool"
        }
      ],
      "stateMutability": "view",
      "type": "function"
    },
    {
      "inputs": [],
      "name": "symbol",
      "outputs": [
        {
          "internalType": "string",
          "name": "",
          "type": "string"
        }
      ],
      "stateMutability": "view",
      "type": "function"
    },
    {
      "inputs": [
        {
          "internalType": "uint256",
          "name": "",
          "type": "uint256"
        }
      ],
      "name": "tokenSupply",
      "outputs": [
        {
          "internalType": "uint256",
          "name": "",
          "type": "uint256"
        }
      ],
      "stateMutability": "view",
      "type": "function"
    },
    {
      "inputs": [
        {
          "internalType": "uint256",
          "name": "_id",
          "type": "uint256"
        }
      ],
      "name": "totalSupply",
      "outputs": [
        {
          "internalType": "uint256",
          "name": "",
          "type": "uint256"
        }
      ],
      "stateMutability": "view",
      "type": "function"
    },
    {
      "inputs": [
        {
          "internalType": "address",
          "name": "newOwner",
          "type": "address"
        }
      ],
      "name": "transferOwnership",
      "outputs": [],
      "stateMutability": "nonpayable",
      "type": "function"
    },
    {
      "inputs": [
        {
          "internalType": "uint256",
          "name": "_id",
          "type": "uint256"
        }
      ],
      "name": "uri",
      "outputs": [
        {
          "internalType": "string",
          "name": "",
          "type": "string"
        }
      ],
      "stateMutability": "view",
      "type": "function"
    },
    {
      "inputs": [
        {
          "internalType": "address",
          "name": "_factoryAddress",
          "type": "address"
        },
        {
          "internalType": "uint256",
          "name": "_numOptions",
          "type": "uint256"
        },
        {
          "internalType": "uint256",
          "name": "_numClasses",
          "type": "uint256"
        },
        {
          "internalType": "uint256",
          "name": "_seed",
          "type": "uint256"
        }
      ],
      "name": "setState",
      "outputs": [],
      "stateMutability": "nonpayable",
      "type": "function"
    },
    {
      "inputs": [
        {
          "internalType": "uint256",
          "name": "_classId",
          "type": "uint256"
        },
        {
          "internalType": "uint256[]",
          "name": "_tokenIds",
          "type": "uint256[]"
        }
      ],
      "name": "setTokenIdsForClass",
      "outputs": [],
      "stateMutability": "nonpayable",
      "type": "function"
    },
    {
      "inputs": [
        {
          "internalType": "uint256",
          "name": "_option",
          "type": "uint256"
        },
        {
          "internalType": "uint256",
          "name": "_maxQuantityPerOpen",
          "type": "uint256"
        },
        {
          "internalType": "uint16[]",
          "name": "_classProbabilities",
          "type": "uint16[]"
        },
        {
          "internalType": "uint16[]",
          "name": "_guarantees",
          "type": "uint16[]"
        }
      ],
      "name": "setOptionSettings",
      "outputs": [],
      "stateMutability": "nonpayable",
      "type": "function"
    },
    {
      "inputs": [
        {
          "internalType": "uint256",
          "name": "_optionId",
          "type": "uint256"
        },
        {
          "internalType": "address",
          "name": "_toAddress",
          "type": "address"
        },
        {
          "internalType": "uint256",
          "name": "_amount",
          "type": "uint256"
        }
      ],
      "name": "unpack",
      "outputs": [],
      "stateMutability": "nonpayable",
      "type": "function"
    },
    {
      "inputs": [
        {
          "internalType": "address",
          "name": "_to",
          "type": "address"
        },
        {
          "internalType": "uint256",
          "name": "_optionId",
          "type": "uint256"
        },
        {
          "internalType": "uint256",
          "name": "_amount",
          "type": "uint256"
        },
        {
          "internalType": "bytes",
          "name": "_data",
          "type": "bytes"
        }
      ],
      "name": "mint",
      "outputs": [],
      "stateMutability": "nonpayable",
      "type": "function"
    }
  ],
  "bytecode": "0x60806040526003805460ff191690553480156200001b57600080fd5b5060405162004228380380620042288339810160408190526200003e916200037f565b60405180606001604052806023815260200162004205602391396040518060400160405280600881526020016713d4d0d05313d3d560c21b8152506040518060200160405280600081525083816200009c816200019b60201b60201c565b50620000b1620000ab620001ad565b620001c9565b600b620000bf858262000456565b50600c620000ce848262000456565b50600780546001600160a01b0319166001600160a01b038316179055600b80546200018a9190620000ff90620003c7565b80601f01602080910402602001604051908101604052809291908181526020018280546200012d90620003c7565b80156200017e5780601f1062000152576101008083540402835291602001916200017e565b820191906000526020600020905b8154815290600101906020018083116200016057829003601f168201915b50506200021b92505050565b50506001600d555062000522915050565b6002620001a9828262000456565b5050565b6000620001c46200027f60201b620016931760201c565b905090565b600680546001600160a01b038381166001600160a01b0319831681179093556040519116919082907f8be0079c531659141344cd1fd0a4f28419497f9722a3daafe3b4186f6b6457e090600090a35050565b60035460ff1615620002645760405162461bcd60e51b815260206004820152600e60248201526d185b1c9958591e481a5b9a5d195960921b604482015260640160405180910390fd5b6200026f81620002dd565b506003805460ff19166001179055565b6000303303620002d757600080368080601f0160208091040260200160405190810160405280939291908181526020018383808284376000920191909152505050503601516001600160a01b03169150620002da9050565b50335b90565b6040518060800160405280604f8152602001620041b6604f9139805160209182012082519282019290922060408051808201825260018152603160f81b90840152805180840194909452838101919091527fc89efdaa54c0f20c7adf612882df0950f5a951637e0307cdcb4c672f298b8bc660608401523060808401524660a0808501919091528151808503909101815260c090930190528151910120600455565b6000602082840312156200039257600080fd5b81516001600160a01b0381168114620003aa57600080fd5b9392505050565b634e487b7160e01b600052604160045260246000fd5b600181811c90821680620003dc57607f821691505b602082108103620003fd57634e487b7160e01b600052602260045260246000fd5b50919050565b601f8211156200045157600081815260208120601f850160051c810160208610156200042c5750805b601f850160051c820191505b818110156200044d5782815560010162000438565b5050505b505050565b81516001600160401b03811115620004725762000472620003b1565b6200048a81620004838454620003c7565b8462000403565b602080601f831160018114620004c25760008415620004a95750858301515b600019600386901b1c1916600185901b1785556200044d565b600085815260208120601f198616915b82811015620004f357888601518255948401946001909101908401620004d2565b5085821015620005125787850151600019600388901b60f8161c191681555b5050505050600190811b01905550565b613c8480620005326000396000f3fe6080604052600436106101725760003560e01c8062fdd58e1461017757806301ffc9a7146101aa57806302fe5305146101da57806306fdde03146101fc5780630c53c51c1461021e5780630e89341c146102315780630f7e59701461025157806320379ee51461027e57806322629f9e146102935780632693ebf2146102b35780632d0335ab146102e05780632eb2c2d6146103165780633408e4701461033657806336a100d5146103495780633adf80b4146103695780634e1273f4146103895780634f558e79146103b657806360ea2797146103d6578063715018a6146103f6578063731133e91461040b5780638da5cb5b1461042b57806395d89b411461044d578063a22cb46514610462578063b48ab8b614610482578063bd85b039146104a2578063cd53d08e146104cf578063d2a6b51a14610505578063e985e9c514610525578063f0fee98c14610545578063f242432a14610565578063f2fde38b14610585578063f7188246146105a5575b600080fd5b34801561018357600080fd5b50610197610192366004612be2565b6105c5565b6040519081526020015b60405180910390f35b3480156101b657600080fd5b506101ca6101c5366004612c24565b61065f565b60405190151581526020016101a1565b3480156101e657600080fd5b506101fa6101f5366004612cf6565b6106af565b005b34801561020857600080fd5b506102116106fa565b6040516101a19190612d82565b61021161022c366004612d95565b610788565b34801561023d57600080fd5b5061021161024c366004612e12565b610971565b34801561025d57600080fd5b50610211604051806040016040528060018152602001603160f81b81525081565b34801561028a57600080fd5b50600454610197565b34801561029f57600080fd5b506101fa6102ae366004612e2b565b610b2f565b3480156102bf57600080fd5b506101976102ce366004612e12565b60096020526000908152604090205481565b3480156102ec57600080fd5b506101976102fb366004612e66565b6001600160a01b031660009081526005602052604090205490565b34801561032257600080fd5b506101fa610331366004612f17565b610bfc565b34801561034257600080fd5b5046610197565b34801561035557600080fd5b50610197610364366004612fc4565b610ca5565b34801561037557600080fd5b506101fa61038436600461301d565b610de7565b34801561039557600080fd5b506103a96103a4366004613063565b610e7f565b6040516101a19190613160565b3480156103c257600080fd5b506101ca6103d1366004612e12565b610fa8565b3480156103e257600080fd5b506101fa6103f13660046131ea565b610fb3565b34801561040257600080fd5b506101fa611032565b34801561041757600080fd5b506101fa610426366004613260565b61107d565b34801561043757600080fd5b50610440611191565b6040516101a191906132b6565b34801561045957600080fd5b506102116111a0565b34801561046e57600080fd5b506101fa61047d3660046132ca565b6111ad565b34801561048e57600080fd5b506101fa61049d366004613308565b6111c3565b3480156104ae57600080fd5b506101976104bd366004612e12565b60009081526009602052604090205490565b3480156104db57600080fd5b506104406104ea366004612e12565b6008602052600090815260409020546001600160a01b031681565b34801561051157600080fd5b506101fa610520366004613396565b6112f3565b34801561053157600080fd5b506101ca6105403660046133db565b6113aa565b34801561055157600080fd5b506101fa610560366004613409565b61146e565b34801561057157600080fd5b506101fa610580366004613441565b61149e565b34801561059157600080fd5b506101fa6105a0366004612e66565b611537565b3480156105b157600080fd5b506101fa6105c03660046134a9565b6115e4565b60006001600160a01b0383166106365760405162461bcd60e51b815260206004820152602b60248201527f455243313135353a2062616c616e636520717565727920666f7220746865207a60448201526a65726f206164647265737360a81b60648201526084015b60405180910390fd5b506000818152602081815260408083206001600160a01b03861684529091529020545b92915050565b60006001600160e01b03198216636cdb3d1360e11b148061069057506001600160e01b031982166303a24d0760e21b145b8061065957506301ffc9a760e01b6001600160e01b0319831614610659565b6106b76116ef565b6001600160a01b03166106c8611191565b6001600160a01b0316146106ee5760405162461bcd60e51b815260040161062d906134d9565b6106f7816116fe565b50565b600b80546107079061350e565b80601f01602080910402602001604051908101604052809291908181526020018280546107339061350e565b80156107805780601f1061075557610100808354040283529160200191610780565b820191906000526020600020905b81548152906001019060200180831161076357829003601f168201915b505050505081565b60408051606081810183526001600160a01b038816600081815260056020908152908590205484528301529181018690526107c6878287878761170a565b61081c5760405162461bcd60e51b815260206004820152602160248201527f5369676e657220616e64207369676e617475726520646f206e6f74206d6174636044820152600d60fb1b606482015260840161062d565b6001600160a01b0387166000908152600560205260409020546108409060016117fa565b6001600160a01b0388166000908152600560205260409081902091909155517f5845892132946850460bff5a0083f71031bc5bf9aadcd40f1de79423eac9b10b9061089090899033908a90613542565b60405180910390a1600080306001600160a01b0316888a6040516020016108b8929190613577565b60408051601f19818403018152908290526108d2916135a9565b6000604051808303816000865af19150503d806000811461090f576040519150601f19603f3d011682016040523d82523d6000602084013e610914565b606091505b5091509150816109655760405162461bcd60e51b815260206004820152601c60248201527b119d5b98dd1a5bdb8818d85b1b081b9bdd081cdd58d8d95cdcd99d5b60221b604482015260640161062d565b98975050505050505050565b606061097c82611806565b6109d75760405162461bcd60e51b815260206004820152602660248201527f455243313135355472616461626c65237572693a204e4f4e4558495354454e546044820152652faa27a5a2a760d11b606482015260840161062d565b6000828152600a6020526040812080546109f09061350e565b80601f0160208091040260200160405190810160405280929190818152602001828054610a1c9061350e565b8015610a695780601f10610a3e57610100808354040283529160200191610a69565b820191906000526020600020905b815481529060010190602001808311610a4c57829003601f168201915b50505050509050600081511115610b19576000838152600a602052604090208054610a939061350e565b80601f0160208091040260200160405190810160405280929190818152602001828054610abf9061350e565b8015610b0c5780601f10610ae157610100808354040283529160200191610b0c565b820191906000526020600020905b815481529060010190602001808311610aef57829003601f168201915b5050505050915050919050565b610b2283611823565b9392505050565b50919050565b610b376116ef565b6001600160a01b0316610b48611191565b6001600160a01b031614610b6e5760405162461bcd60e51b815260040161062d906134d9565b604051636306b42b60e01b8152600e60048201526001600160a01b038516602482015260448101849052606481018390526084810182905273__LootBoxRandomness_____________________90636306b42b9060a4015b60006040518083038186803b158015610bde57600080fd5b505af4158015610bf2573d6000803e3d6000fd5b5050505050505050565b610c046116ef565b6001600160a01b0316856001600160a01b03161480610c2a5750610c2a856105406116ef565b610c915760405162461bcd60e51b815260206004820152603260248201527f455243313135353a207472616e736665722063616c6c6572206973206e6f74206044820152711bdddb995c881b9bdc88185c1c1c9bdd995960721b606482015260840161062d565b610c9e85858585856118b7565b5050505050565b6000610caf6116ef565b6001600160a01b0316610cc0611191565b6001600160a01b031614610ce65760405162461bcd60e51b815260040161062d906134d9565b610cef85611806565b15610d375760405162461bcd60e51b8152602060048201526018602482015277746f6b656e205f696420616c72656164792065786973747360401b604482015260640161062d565b610d3f6116ef565b600086815260086020526040902080546001600160a01b0319166001600160a01b0392909216919091179055825115610dc4576000858152600a60205260409020610d8a848261360b565b50847f6bb7ff708619ba0610cba295a58592e0451dee2622938c8755667688daf3529b84604051610dbb9190612d82565b60405180910390a25b610dd086868685611a56565b505050600082815260096020526040902055919050565b81610df06116ef565b6000828152600860205260409020546001600160a01b03908116911614610e295760405162461bcd60e51b815260040161062d906136ca565b6000838152600a60205260409020610e41838261360b565b50827f6bb7ff708619ba0610cba295a58592e0451dee2622938c8755667688daf3529b83604051610e729190612d82565b60405180910390a2505050565b60608151835114610ee45760405162461bcd60e51b815260206004820152602960248201527f455243313135353a206163636f756e747320616e6420696473206c656e677468604482015268040dad2e6dac2e8c6d60bb1b606482015260840161062d565b600083516001600160401b03811115610eff57610eff612c41565b604051908082528060200260200182016040528015610f28578160200160208202803683370190505b50905060005b8451811015610fa057610f73858281518110610f4c57610f4c61371b565b6020026020010151858381518110610f6657610f6661371b565b60200260200101516105c5565b828281518110610f8557610f8561371b565b6020908102919091010152610f9981613747565b9050610f2e565b509392505050565b600061065982611806565b610fbb6116ef565b6001600160a01b0316610fcc611191565b6001600160a01b031614610ff25760405162461bcd60e51b815260040161062d906134d9565b60405163b13d6c3560e01b815273__LootBoxRandomness_____________________9063b13d6c3590610bc690600e908890889088908890600401613794565b61103a6116ef565b6001600160a01b031661104b611191565b6001600160a01b0316146110715760405162461bcd60e51b815260040161062d906134d9565b61107b6000611a8a565b565b6002600d54036110cf5760405162461bcd60e51b815260206004820152601f60248201527f5265656e7472616e637947756172643a207265656e7472616e742063616c6c00604482015260640161062d565b6002600d556110e46110df6116ef565b611adc565b61112f5760405162461bcd60e51b815260206004820152601c60248201527b4c6f6f74626f783a206f776e6572206f722070726f7879206f6e6c7960201b604482015260640161062d565b600f54831061117a5760405162461bcd60e51b81526020600482015260176024820152762637b7ba3137bc1d1024b73b30b634b21027b83a34b7b760491b604482015260640161062d565b61118684848484611a56565b50506001600d555050565b6006546001600160a01b031690565b600c80546107079061350e565b6111bf6111b86116ef565b8383611b97565b5050565b60005b83518110156112e05760008482815181106111e3576111e361371b565b602002602001015190506111f56116ef565b6000828152600860205260409020546001600160a01b039081169116146112765760405162461bcd60e51b815260206004820152602f60248201527f455243313135355472616461626c652362617463684d696e743a204f4e4c595f60448201526e10d491505513d497d0531313d5d151608a1b606482015260840161062d565b600084838151811061128a5761128a61371b565b602002602001015190506112ba8160096000858152602001908152602001600020546117fa90919063ffffffff16565b6000928352600960205260409092209190915550806112d881613747565b9150506111c6565b506112ed84848484611c77565b50505050565b6001600160a01b03821661135e5760405162461bcd60e51b815260206004820152602c60248201527f455243313135355472616461626c652373657443726561746f723a20494e564160448201526b2624a22fa0a2222922a9a99760a11b606482015260840161062d565b60005b81518110156113a557600082828151811061137e5761137e61371b565b602002602001015190506113928482611dcd565b508061139d81613747565b915050611361565b505050565b60075460405163c455279160e01b81526000916001600160a01b039081169190841690829063c4552791906113e39088906004016132b6565b602060405180830381865afa158015611400573d6000803e3d6000fd5b505050506040513d601f19601f8201168201806040525081019061142491906137cb565b6001600160a01b03160361143c576001915050610659565b6001600160a01b0380851660009081526001602090815260408083209387168352929052205460ff165b949350505050565b6114806114796116ef565b8483611e3e565b6113a5600e8484846040518060200160405280600081525030611fb1565b6114a66116ef565b6001600160a01b0316856001600160a01b031614806114cc57506114cc856105406116ef565b61152a5760405162461bcd60e51b815260206004820152602960248201527f455243313135353a2063616c6c6572206973206e6f74206f776e6572206e6f7260448201526808185c1c1c9bdd995960ba1b606482015260840161062d565b610c9e85858585856122ca565b61153f6116ef565b6001600160a01b0316611550611191565b6001600160a01b0316146115765760405162461bcd60e51b815260040161062d906134d9565b6001600160a01b0381166115db5760405162461bcd60e51b815260206004820152602660248201527f4f776e61626c653a206e6577206f776e657220697320746865207a65726f206160448201526564647265737360d01b606482015260840161062d565b6106f781611a8a565b6115ec6116ef565b6001600160a01b03166115fd611191565b6001600160a01b0316146116235760405162461bcd60e51b815260040161062d906134d9565b60405163195f3e8960e21b815273__LootBoxRandomness_____________________9063657cfa249061165f90600e90869086906004016137e8565b60006040518083038186803b15801561167757600080fd5b505af415801561168b573d6000803e3d6000fd5b505050505050565b60003033036116e957600080368080601f0160208091040260200160405190810160405280939291908181526020018383808284376000920191909152505050503601516001600160a01b031691506116ec9050565b50335b90565b60006116f9611693565b905090565b60026111bf828261360b565b60006001600160a01b0386166117705760405162461bcd60e51b815260206004820152602560248201527f4e61746976654d6574615472616e73616374696f6e3a20494e56414c49445f5360448201526424a3a722a960d91b606482015260840161062d565b600161178361177e876123e9565b612466565b6040805160008152602081018083529290925260ff851690820152606081018690526080810185905260a0016020604051602081039080840390855afa1580156117d1573d6000803e3d6000fd5b505050602060405103516001600160a01b0316866001600160a01b031614905095945050505050565b6000610b22828461383d565b6000908152600860205260409020546001600160a01b0316151590565b6060600280546118329061350e565b80601f016020809104026020016040519081016040528092919081815260200182805461185e9061350e565b80156118ab5780601f10611880576101008083540402835291602001916118ab565b820191906000526020600020905b81548152906001019060200180831161188e57829003601f168201915b50505050509050919050565b81518351146118d85760405162461bcd60e51b815260040161062d90613855565b6001600160a01b0384166118fe5760405162461bcd60e51b815260040161062d9061389d565b60006119086116ef565b905060005b84518110156119f057600085828151811061192a5761192a61371b565b6020026020010151905060008583815181106119485761194861371b565b602090810291909101810151600084815280835260408082206001600160a01b038e1683529093529190912054909150818110156119985760405162461bcd60e51b815260040161062d906138e2565b6000838152602081815260408083206001600160a01b038e8116855292528083208585039055908b168252812080548492906119d590849061383d565b92505081905550505050806119e990613747565b905061190d565b50846001600160a01b0316866001600160a01b0316826001600160a01b03167f4a39dc06d4c0dbc64b70af90fd698a233a518aa5d07e595d983b8c0526c8f7fb8787604051611a4092919061392c565b60405180910390a461168b818787878787612496565b600083815260096020526040902054611a6f90836117fa565b6000848152600960205260409020556112ed848484846125f1565b600680546001600160a01b038381166001600160a01b0319831681179093556040519116919082907f8be0079c531659141344cd1fd0a4f28419497f9722a3daafe3b4186f6b6457e090600090a35050565b6007546000906001600160a01b03908116908316611af8611191565b6001600160a01b03161480610b225750826001600160a01b0316816001600160a01b031663c4552791611b29611191565b6040518263ffffffff1660e01b8152600401611b4591906132b6565b602060405180830381865afa158015611b62573d6000803e3d6000fd5b505050506040513d601f19601f82011682018060405250810190611b8691906137cb565b6001600160a01b0316149392505050565b816001600160a01b0316836001600160a01b031603611c0a5760405162461bcd60e51b815260206004820152602960248201527f455243313135353a2073657474696e6720617070726f76616c20737461747573604482015268103337b91039b2b63360b91b606482015260840161062d565b6001600160a01b03838116600081815260016020908152604080832094871680845294825291829020805460ff191686151590811790915591519182527f17307eab39ab6107e8899845ad3d59bd9653f200f220920489ca2b5937696c31910160405180910390a3505050565b6001600160a01b038416611c9d5760405162461bcd60e51b815260040161062d90613951565b8151835114611cbe5760405162461bcd60e51b815260040161062d90613855565b6000611cc86116ef565b905060005b8451811015611d6557838181518110611ce857611ce861371b565b6020026020010151600080878481518110611d0557611d0561371b565b602002602001015181526020019081526020016000206000886001600160a01b03166001600160a01b031681526020019081526020016000206000828254611d4d919061383d565b90915550819050611d5d81613747565b915050611ccd565b50846001600160a01b031660006001600160a01b0316826001600160a01b03167f4a39dc06d4c0dbc64b70af90fd698a233a518aa5d07e595d983b8c0526c8f7fb8787604051611db692919061392c565b60405180910390a4610c9e81600087878787612496565b80611dd66116ef565b6000828152600860205260409020546001600160a01b03908116911614611e0f5760405162461bcd60e51b815260040161062d906136ca565b50600090815260086020526040902080546001600160a01b0319166001600160a01b0392909216919091179055565b6001600160a01b038316611ea05760405162461bcd60e51b815260206004820152602360248201527f455243313135353a206275726e2066726f6d20746865207a65726f206164647260448201526265737360e81b606482015260840161062d565b6000611eaa6116ef565b9050611edb81856000611ebc876126b1565b611ec5876126b1565b5050604080516020810190915260009052505050565b6000838152602081815260408083206001600160a01b038816845290915290205482811015611f585760405162461bcd60e51b8152602060048201526024808201527f455243313135353a206275726e20616d6f756e7420657863656564732062616c604482015263616e636560e01b606482015260840161062d565b6000848152602081815260408083206001600160a01b0389811680865291845282852088870390558251898152938401889052909290861691600080516020613bec833981519152910160405180910390a45050505050565b85600101548510611ffb5760405162461bcd60e51b81526020600482015260146024820152735f6f7074696f6e206f7574206f662072616e676560601b604482015260640161062d565b60008581526003870160209081526040808320815160808101835281548152600182018054845181870281018701909552808552919492938584019390929083018282801561209157602002820191906000526020600020906000905b82829054906101000a900461ffff1661ffff16815260200190600201906020826001010492830192600103820291508084116120585790505b5050509183525050600282015460ff161515602080830191909152600383018054604080518285028101850182528281529401939283018282801561211d57602002820191906000526020600020906000905b82829054906101000a900461ffff1661ffff16815260200190600201906020826001010492830192600103820291508084116120e45790505b505050505081525050905060008160000151116121905760405162461bcd60e51b815260206004820152602b60248201527f4c6f6f74426f7852616e646f6d6e657373235f6d696e743a204f5054494f4e5f60448201526a1393d517d0531313d5d15160aa1b606482015260840161062d565b6000805b858110156122795760008360400151156122175760005b846060015151811015612215576000856060015182815181106121d0576121d061371b565b602002602001015161ffff1690506000811115612202576121f48c838c848b6126fc565b506121ff818461383d565b92505b508061220d81613747565b9150506121ab565b505b83518110156122595760006001905060006122368c87602001516127c1565b90506122458c828c858b6126fc565b50612250828461383d565b92505050612217565b612263818461383d565b925050808061227190613747565b915050612194565b5060408051868152602081018390526001600160a01b0388169189917fd8c55eae4f6ffa3dfbfba23f50cb5e242e86d347736fe1b910ad11bff616d839910160405180910390a35050505050505050565b6001600160a01b0384166122f05760405162461bcd60e51b815260040161062d9061389d565b60006122fa6116ef565b905061231481878761230b886126b1565b610c9e886126b1565b6000848152602081815260408083206001600160a01b038a168452909152902054838110156123555760405162461bcd60e51b815260040161062d906138e2565b6000858152602081815260408083206001600160a01b038b811685529252808320878503905590881682528120805486929061239290849061383d565b909155505060408051868152602081018690526001600160a01b03808916928a82169291861691600080516020613bec833981519152910160405180910390a46123e0828888888888612856565b50505050505050565b6000604051806080016040528060438152602001613c0c6043913980516020918201208351848301516040808701518051908601209051612449950193845260208401929092526001600160a01b03166040830152606082015260800190565b604051602081830303815290604052805190602001209050919050565b600061247160045490565b60405161190160f01b6020820152602281019190915260428101839052606201612449565b6001600160a01b0384163b1561168b5760405163bc197c8160e01b81526001600160a01b0385169063bc197c81906124da9089908990889088908890600401613992565b6020604051808303816000875af1925050508015612515575060408051601f3d908101601f19168201909252612512918101906139e4565b60015b6125c157612521613a01565b806308c379a00361255a5750612535613a1c565b80612540575061255c565b8060405162461bcd60e51b815260040161062d9190612d82565b505b60405162461bcd60e51b815260206004820152603460248201527f455243313135353a207472616e7366657220746f206e6f6e20455243313135356044820152732932b1b2b4bb32b91034b6b83632b6b2b73a32b960611b606482015260840161062d565b6001600160e01b0319811663bc197c8160e01b146123e05760405162461bcd60e51b815260040161062d90613aa5565b6001600160a01b0384166126175760405162461bcd60e51b815260040161062d90613951565b60006126216116ef565b90506126338160008761230b886126b1565b6000848152602081815260408083206001600160a01b03891684529091528120805485929061266390849061383d565b909155505060408051858152602081018590526001600160a01b038088169260009291851691600080516020613bec833981519152910160405180910390a4610c9e81600087878787612856565b604080516001808252818301909252606091600091906020808301908036833701905050905082816000815181106126eb576126eb61371b565b602090810291909101015292915050565b6000856002015485106127215760405162461bcd60e51b815260040161062d90613aed565b85546001600160a01b0316600061273a88888787612911565b6040516363bdb36160e11b8152600481018290526001600160a01b0388811660248301526044820188905260806064830152600060848301529192509083169063c77b66c29060a401600060405180830381600087803b15801561279d57600080fd5b505af11580156127b1573d6000803e3d6000fd5b50929a9950505050505050505050565b6000806127d96127106127d386612b62565b90612bc1565b90506000600184516127eb9190613b1a565b90505b801561284b5760008482815181106128085761280861371b565b602002602001015190508061ffff168361ffff16101561282c575091506106599050565b6128368184613b31565b9250508061284381613b54565b9150506127ee565b506000949350505050565b6001600160a01b0384163b1561168b5760405163f23a6e6160e01b81526001600160a01b0385169063f23a6e619061289a9089908990889088908890600401613b6b565b6020604051808303816000875af19250505080156128d5575060408051601f3d908101601f191682019092526128d2918101906139e4565b60015b6128e157612521613a01565b6001600160e01b0319811663f23a6e6160e01b146123e05760405162461bcd60e51b815260040161062d90613aa5565b6000846002015484106129365760405162461bcd60e51b815260040161062d90613aed565b600084815260048601602090815260408083208054825181850281018501909352808352919290919083018282801561298e57602002820191906000526020600020905b81548152602001906001019080831161297a575b5050505050905060008151116129e25760405162461bcd60e51b8152602060048201526019602482015278139bc81d1bdad95b881a591cc8199bdc8817d8db185cdcd259603a1b604482015260640161062d565b60006129f282516127d389612b62565b87549091506001600160a01b0316815b8351612a0e908461383d565b811015612ad857600084855183612a259190613bb0565b81518110612a3557612a3561371b565b6020908102919091010151604051627eeac760e11b81526001600160a01b03898116600483015260248201839052919250899185169062fdd58e90604401602060405180830381865afa158015612a90573d6000803e3d6000fd5b505050506040513d601f19601f82011682018060405250810190612ab49190613bd2565b10612ac55794506114669350505050565b5080612ad081613747565b915050612a02565b5060405162461bcd60e51b815260206004820152605260248201527f4c6f6f74426f7852616e646f6d6e657373235f7069636b52616e646f6d41766160448201527f696c61626c65546f6b656e4964466f72436c6173733a204e4f545f454e4f5547606482015271485f544f4b454e535f464f525f434c41535360701b608482015260a40161062d565b600080612b70600143613b1a565b600584015460408051924060208401526001600160601b03193360601b1690830152605482015260740160408051601f19818403018152919052805160209091012060059093018390555090919050565b6000610b228284613bb0565b6001600160a01b03811681146106f757600080fd5b60008060408385031215612bf557600080fd5b8235612c0081612bcd565b946020939093013593505050565b6001600160e01b0319811681146106f757600080fd5b600060208284031215612c3657600080fd5b8135610b2281612c0e565b634e487b7160e01b600052604160045260246000fd5b601f8201601f191681016001600160401b0381118282101715612c7c57612c7c612c41565b6040525050565b600082601f830112612c9457600080fd5b81356001600160401b03811115612cad57612cad612c41565b604051612cc4601f8301601f191660200182612c57565b818152846020838601011115612cd957600080fd5b816020850160208301376000918101602001919091529392505050565b600060208284031215612d0857600080fd5b81356001600160401b03811115612d1e57600080fd5b61146684828501612c83565b60005b83811015612d45578181015183820152602001612d2d565b838111156112ed5750506000910152565b60008151808452612d6e816020860160208601612d2a565b601f01601f19169290920160200192915050565b602081526000610b226020830184612d56565b600080600080600060a08688031215612dad57600080fd5b8535612db881612bcd565b945060208601356001600160401b03811115612dd357600080fd5b612ddf88828901612c83565b9450506040860135925060608601359150608086013560ff81168114612e0457600080fd5b809150509295509295909350565b600060208284031215612e2457600080fd5b5035919050565b60008060008060808587031215612e4157600080fd5b8435612e4c81612bcd565b966020860135965060408601359560600135945092505050565b600060208284031215612e7857600080fd5b8135610b2281612bcd565b60006001600160401b03821115612e9c57612e9c612c41565b5060051b60200190565b600082601f830112612eb757600080fd5b81356020612ec482612e83565b604051612ed18282612c57565b83815260059390931b8501820192828101915086841115612ef157600080fd5b8286015b84811015612f0c5780358352918301918301612ef5565b509695505050505050565b600080600080600060a08688031215612f2f57600080fd5b8535612f3a81612bcd565b94506020860135612f4a81612bcd565b935060408601356001600160401b0380821115612f6657600080fd5b612f7289838a01612ea6565b94506060880135915080821115612f8857600080fd5b612f9489838a01612ea6565b93506080880135915080821115612faa57600080fd5b50612fb788828901612c83565b9150509295509295909350565b600080600080600060a08688031215612fdc57600080fd5b8535612fe781612bcd565b9450602086013593506040860135925060608601356001600160401b038082111561301157600080fd5b612f9489838a01612c83565b6000806040838503121561303057600080fd5b8235915060208301356001600160401b0381111561304d57600080fd5b61305985828601612c83565b9150509250929050565b6000806040838503121561307657600080fd5b82356001600160401b038082111561308d57600080fd5b818501915085601f8301126130a157600080fd5b813560206130ae82612e83565b6040516130bb8282612c57565b83815260059390931b85018201928281019150898411156130db57600080fd5b948201945b838610156131025785356130f381612bcd565b825294820194908201906130e0565b9650508601359250508082111561311857600080fd5b5061305985828601612ea6565b600081518084526020808501945080840160005b8381101561315557815187529582019590820190600101613139565b509495945050505050565b602081526000610b226020830184613125565b600082601f83011261318457600080fd5b8135602061319182612e83565b60405161319e8282612c57565b83815260059390931b85018201928281019150868411156131be57600080fd5b8286015b84811015612f0c57803561ffff811681146131dd5760008081fd5b83529183019183016131c2565b6000806000806080858703121561320057600080fd5b843593506020850135925060408501356001600160401b038082111561322557600080fd5b61323188838901613173565b9350606087013591508082111561324757600080fd5b5061325487828801613173565b91505092959194509250565b6000806000806080858703121561327657600080fd5b843561328181612bcd565b9350602085013592506040850135915060608501356001600160401b038111156132aa57600080fd5b61325487828801612c83565b6001600160a01b0391909116815260200190565b600080604083850312156132dd57600080fd5b82356132e881612bcd565b9150602083013580151581146132fd57600080fd5b809150509250929050565b6000806000806080858703121561331e57600080fd5b843561332981612bcd565b935060208501356001600160401b038082111561334557600080fd5b61335188838901612ea6565b9450604087013591508082111561336757600080fd5b61337388838901612ea6565b9350606087013591508082111561338957600080fd5b5061325487828801612c83565b600080604083850312156133a957600080fd5b82356133b481612bcd565b915060208301356001600160401b038111156133cf57600080fd5b61305985828601612ea6565b600080604083850312156133ee57600080fd5b82356133f981612bcd565b915060208301356132fd81612bcd565b60008060006060848603121561341e57600080fd5b83359250602084013561343081612bcd565b929592945050506040919091013590565b600080600080600060a0868803121561345957600080fd5b853561346481612bcd565b9450602086013561347481612bcd565b9350604086013592506060860135915060808601356001600160401b0381111561349d57600080fd5b612fb788828901612c83565b600080604083850312156134bc57600080fd5b8235915060208301356001600160401b038111156133cf57600080fd5b6020808252818101527f4f776e61626c653a2063616c6c6572206973206e6f7420746865206f776e6572604082015260600190565b600181811c9082168061352257607f821691505b602082108103610b2957634e487b7160e01b600052602260045260246000fd5b6001600160a01b0384811682528316602082015260606040820181905260009061356e90830184612d56565b95945050505050565b60008351613589818460208801612d2a565b60609390931b6001600160601b0319169190920190815260140192915050565b600082516135bb818460208701612d2a565b9190910192915050565b601f8211156113a557600081815260208120601f850160051c810160208610156135ec5750805b601f850160051c820191505b8181101561168b578281556001016135f8565b81516001600160401b0381111561362457613624612c41565b61363881613632845461350e565b846135c5565b602080601f83116001811461366d57600084156136555750858301515b600019600386901b1c1916600185901b17855561168b565b600085815260208120601f198616915b8281101561369c5788860151825594840194600190910190840161367d565b50858210156136ba5787850151600019600388901b60f8161c191681555b5050505050600190811b01905550565b60208082526031908201527f455243313135355472616461626c652363726561746f724f6e6c793a204f4e4c6040820152701657d0d491505513d497d0531313d5d151607a1b606082015260800190565b634e487b7160e01b600052603260045260246000fd5b634e487b7160e01b600052601160045260246000fd5b60006001820161375957613759613731565b5060010190565b600081518084526020808501945080840160005b8381101561315557815161ffff1687529582019590820190600101613774565b85815284602082015283604082015260a0606082015260006137b960a0830185613760565b82810360808401526109658185613760565b6000602082840312156137dd57600080fd5b8151610b2281612bcd565b6000606082018583526020858185015260606040850152818551808452608086019150828701935060005b8181101561382f57845183529383019391830191600101613813565b509098975050505050505050565b6000821982111561385057613850613731565b500190565b60208082526028908201527f455243313135353a2069647320616e6420616d6f756e7473206c656e677468206040820152670dad2e6dac2e8c6d60c31b606082015260800190565b60208082526025908201527f455243313135353a207472616e7366657220746f20746865207a65726f206164604082015264647265737360d81b606082015260800190565b6020808252602a908201527f455243313135353a20696e73756666696369656e742062616c616e636520666f60408201526939103a3930b739b332b960b11b606082015260800190565b60408152600061393f6040830185613125565b828103602084015261356e8185613125565b60208082526021908201527f455243313135353a206d696e7420746f20746865207a65726f206164647265736040820152607360f81b606082015260800190565b6001600160a01b0386811682528516602082015260a0604082018190526000906139be90830186613125565b82810360608401526139d08186613125565b905082810360808401526109658185612d56565b6000602082840312156139f657600080fd5b8151610b2281612c0e565b600060033d11156116ec5760046000803e5060005160e01c90565b600060443d1015613a2a5790565b6040516003193d81016004833e81513d6001600160401b038160248401118184111715613a5957505050505090565b8285019150815181811115613a715750505050505090565b843d8701016020828501011115613a8b5750505050505090565b613a9a60208286010187612c57565b509095945050505050565b60208082526028908201527f455243313135353a204552433131353552656365697665722072656a656374656040820152676420746f6b656e7360c01b606082015260800190565b6020808252601390820152725f636c617373206f7574206f662072616e676560681b604082015260600190565b600082821015613b2c57613b2c613731565b500390565b600061ffff83811690831681811015613b4c57613b4c613731565b039392505050565b600081613b6357613b63613731565b506000190190565b6001600160a01b03868116825285166020820152604081018490526060810183905260a060808201819052600090613ba590830184612d56565b979650505050505050565b600082613bcd57634e487b7160e01b600052601260045260246000fd5b500690565b600060208284031215613be457600080fd5b505191905056fec3d58168c5ae7397731d063d5bbf3d657854427343f4c083240f7aacaa2d0f624d6574615472616e73616374696f6e2875696e74323536206e6f6e63652c616464726573732066726f6d2c62797465732066756e6374696f6e5369676e617475726529a2646970667358221220413dc399b7967df1db41209c75c6cefcb399381384c6ea2a588fea6507e2fc2d64736f6c634300080f0033454950373132446f6d61696e28737472696e67206e616d652c737472696e672076657273696f6e2c6164647265737320766572696679696e67436f6e74726163742c627974657333322073616c74294f70656e536561204372656174757265204163636573736f7279204c6f6f7420426f78",
  "immutableReferences": {},
  "source": "// SPDX-License-Identifier: MIT\n\npragma solidity ^0.8.0;\n\nimport \"@openzeppelin/contracts/security/ReentrancyGuard.sol\";\nimport \"@openzeppelin/contracts/utils/math/SafeMath.sol\";\nimport \"./ERC1155Tradable.sol\";\nimport \"./LootBoxRandomness.sol\";\n\n\n/**\n * @title BrokenFlowerAccessoryLootBox\n * BrokenFlowerAccessoryLootBox - a randomized and openable lootbox of BrokenFlower\n * Accessories.\n */\ncontract BrokenFlowerAccessoryLootBox is ERC1155Tradable, ReentrancyGuard {\n  using LootBoxRandomness for LootBoxRandomness.LootBoxRandomnessState;\n  using SafeMath for uint256;\n\n  LootBoxRandomness.LootBoxRandomnessState state;\n\n  /**\n   * @dev Example constructor. Sets minimal configuration.\n   * @param _proxyRegistryAddress The address of the OpenSea/Wyvern proxy registry\n   *                              On Rinkeby: \"0xf57b2c51ded3a29e6891aba85459d600256cf317\"\n   *                              On mainnet: \"0xa5409ec958c83c3f309868babaca7c86dcb077c1\"\n   */\n  constructor(address _proxyRegistryAddress)\n  ERC1155Tradable(\n    \"OpenSea BrokenFlower Accessory Loot Box\",\n    \"OSCALOOT\",\n    \"\",\n    _proxyRegistryAddress\n  ) {}\n\n  function setState(\n    address _factoryAddress,\n    uint256 _numOptions,\n    uint256 _numClasses,\n    uint256 _seed\n  ) public onlyOwner {\n    LootBoxRandomness.initState(state, _factoryAddress, _numOptions, _numClasses, _seed);\n  }\n\n  function setTokenIdsForClass(\n    uint256 _classId,\n    uint256[] memory _tokenIds\n  ) public onlyOwner {\n      LootBoxRandomness.setTokenIdsForClass(state, _classId, _tokenIds);\n  }\n\n  function setOptionSettings(\n    uint256 _option,\n    uint256 _maxQuantityPerOpen,\n    uint16[] memory _classProbabilities,\n    uint16[] memory _guarantees\n  ) public onlyOwner {\n    LootBoxRandomness.setOptionSettings(state, _option, _maxQuantityPerOpen, _classProbabilities, _guarantees);\n  }\n\n  ///////\n  // MAIN FUNCTIONS\n  //////\n\n  function unpack(\n    uint256 _optionId,\n    address _toAddress,\n    uint256 _amount\n  ) external {\n    // This will underflow if _msgSender() does not own enough tokens.\n    _burn(_msgSender(), _optionId, _amount);\n    // Mint nfts contained by LootBox\n    LootBoxRandomness._mint(state, _optionId, _toAddress, _amount, \"\", address(this));\n  }\n\n  /**\n   *  @dev Mint the token/option id.\n   */\n  function mint(\n    address _to,\n    uint256 _optionId,\n    uint256 _amount,\n    bytes memory _data\n  ) override public nonReentrant {\n    require(_isOwnerOrProxy(_msgSender()), \"Lootbox: owner or proxy only\");\n    require(_optionId < state.numOptions, \"Lootbox: Invalid Option\");\n    // Option ID is used as a token ID here\n    _mint(_to, _optionId, _amount, _data);\n  }\n\n  /**\n   *  @dev track the number of tokens minted.\n   */\n  function _mint(\n    address _to,\n    uint256 _id,\n    uint256 _quantity,\n    bytes memory _data\n  ) override internal  {\n    tokenSupply[_id] = tokenSupply[_id].add(_quantity);\n    super._mint(_to, _id, _quantity, _data);\n  }\n\n  function _isOwnerOrProxy(\n    address _address\n  ) internal view returns (bool) {\n    ProxyRegistry proxyRegistry = ProxyRegistry(proxyRegistryAddress);\n    return owner() == _address || address(proxyRegistry.proxies(owner())) == _address;\n  }\n}\n",
  "sourcePath": "/home/jin/dev/BrokenFlowersApp/public/opensea/contracts/BrokenFlowerAccessoryLootBox.sol",
  "compiler": {
    "name": "solc",
    "version": "0.8.15+commit.e14f2714.Emscripten.clang"
  },
  "schemaVersion": "3.3.4",
  "updatedAt": "2022-07-08T15:37:59.442Z",
  "devdoc": {
    "kind": "dev",
    "methods": {
      "balanceOf(address,uint256)": {
        "details": "See {IERC1155-balanceOf}. Requirements: - `account` cannot be the zero address."
      },
      "balanceOfBatch(address[],uint256[])": {
        "details": "See {IERC1155-balanceOfBatch}. Requirements: - `accounts` and `ids` must have the same length."
      },
      "batchMint(address,uint256[],uint256[],bytes)": {
        "details": "Mint tokens for each id in _ids",
        "params": {
          "_data": "Data to pass if receiver is contract",
          "_ids": "Array of ids to mint",
          "_quantities": "Array of amounts of tokens to mint per id",
          "_to": "The address to mint tokens to"
        }
      },
      "constructor": {
        "details": "Example constructor. Sets minimal configuration.",
        "params": {
          "_proxyRegistryAddress": "The address of the OpenSea/Wyvern proxy registry                              On Rinkeby: \"0xf57b2c51ded3a29e6891aba85459d600256cf317\"                              On mainnet: \"0xa5409ec958c83c3f309868babaca7c86dcb077c1\""
        }
      },
      "create(address,uint256,uint256,string,bytes)": {
        "details": "Creates a new token type and assigns _initialSupply to an address NOTE: remove onlyOwner if you want third parties to create new tokens on       your contract (which may change your IDs) NOTE: The token id must be passed. This allows lazy creation of tokens or       creating NFTs by setting the id's high bits with the method       described in ERC1155 or to use ids representing values other than       successive small integers. If you wish to create ids as successive       small integers you can either subclass this class to count onchain       or maintain the offchain cache of identifiers recommended in       ERC1155 and calculate successive ids from that.",
        "params": {
          "_data": "Data to pass if receiver is contract",
          "_id": "The id of the token to create (must not currenty exist).",
          "_initialOwner": "address of the first owner of the token",
          "_initialSupply": "amount to supply the first owner",
          "_uri": "Optional URI for this token type"
        },
        "returns": {
          "_0": "The newly created token ID"
        }
      },
      "mint(address,uint256,uint256,bytes)": {
        "details": "Mint the token/option id."
      },
      "owner()": {
        "details": "Returns the address of the current owner."
      },
      "renounceOwnership()": {
        "details": "Leaves the contract without owner. It will not be possible to call `onlyOwner` functions anymore. Can only be called by the current owner. NOTE: Renouncing ownership will leave the contract without an owner, thereby removing any functionality that is only available to the owner."
      },
      "safeBatchTransferFrom(address,address,uint256[],uint256[],bytes)": {
        "details": "See {IERC1155-safeBatchTransferFrom}."
      },
      "safeTransferFrom(address,address,uint256,uint256,bytes)": {
        "details": "See {IERC1155-safeTransferFrom}."
      },
      "setApprovalForAll(address,bool)": {
        "details": "See {IERC1155-setApprovalForAll}."
      },
      "setCreator(address,uint256[])": {
        "details": "Change the creator address for given tokens",
        "params": {
          "_ids": "Array of Token IDs to change creator",
          "_to": "Address of the new creator"
        }
      },
      "setCustomURI(uint256,string)": {
        "details": "Will update the base URI for the token",
        "params": {
          "_newURI": "New URI for the token.",
          "_tokenId": "The token to update. _msgSender() must be its creator."
        }
      },
      "setURI(string)": {
        "details": "Sets a new URI for all token types, by relying on the token type ID substitution mechanism https://eips.ethereum.org/EIPS/eip-1155#metadata[defined in the EIP].",
        "params": {
          "_newURI": "New URI for all tokens"
        }
      },
      "supportsInterface(bytes4)": {
        "details": "See {IERC165-supportsInterface}."
      },
      "totalSupply(uint256)": {
        "details": "Returns the total quantity for a token ID",
        "params": {
          "_id": "uint256 ID of the token to query"
        },
        "returns": {
          "_0": "amount of token in existence"
        }
      },
      "transferOwnership(address)": {
        "details": "Transfers ownership of the contract to a new account (`newOwner`). Can only be called by the current owner."
      }
    },
    "title": "BrokenFlowerAccessoryLootBox BrokenFlowerAccessoryLootBox - a randomized and openable lootbox of BrokenFlower Accessories.",
    "version": 1
  },
  "userdoc": {
    "kind": "user",
    "methods": {
      "isApprovedForAll(address,address)": {
        "notice": "Override isApprovedForAll to whitelist user's OpenSea proxy accounts to enable gas-free listings."
      }
    },
    "version": 1
  }
}