{
  "contractName": "TestForReentrancyAttack",
  "abi": [
    {
      "inputs": [],
      "stateMutability": "nonpayable",
      "type": "constructor"
    },
    {
      "inputs": [],
      "name": "factoryAddress",
      "outputs": [
        {
          "internalType": "address",
          "name": "",
          "type": "address"
        }
      ],
      "stateMutability": "view",
      "type": "function"
    },
    {
      "inputs": [
        {
          "internalType": "address",
          "name": "_factoryAddress",
          "type": "address"
        }
      ],
      "name": "setFactoryAddress",
      "outputs": [],
      "stateMutability": "nonpayable",
      "type": "function"
    },
    {
      "inputs": [
        {
          "internalType": "address",
          "name": "",
          "type": "address"
        },
        {
          "internalType": "address",
          "name": "",
          "type": "address"
        },
        {
          "internalType": "uint256",
          "name": "_id",
          "type": "uint256"
        },
        {
          "internalType": "uint256",
          "name": "",
          "type": "uint256"
        },
        {
          "internalType": "bytes",
          "name": "",
          "type": "bytes"
        }
      ],
      "name": "onERC1155Received",
      "outputs": [
        {
          "internalType": "bytes4",
          "name": "",
          "type": "bytes4"
        }
      ],
      "stateMutability": "nonpayable",
      "type": "function"
    },
    {
      "inputs": [
        {
          "internalType": "bytes4",
          "name": "interfaceID",
          "type": "bytes4"
        }
      ],
      "name": "supportsInterface",
      "outputs": [
        {
          "internalType": "bool",
          "name": "",
          "type": "bool"
        }
      ],
      "stateMutability": "pure",
      "type": "function"
    },
    {
      "inputs": [
        {
          "internalType": "address",
          "name": "",
          "type": "address"
        },
        {
          "internalType": "address",
          "name": "",
          "type": "address"
        },
        {
          "internalType": "uint256[]",
          "name": "",
          "type": "uint256[]"
        },
        {
          "internalType": "uint256[]",
          "name": "",
          "type": "uint256[]"
        },
        {
          "internalType": "bytes",
          "name": "",
          "type": "bytes"
        }
      ],
      "name": "onERC1155BatchReceived",
      "outputs": [
        {
          "internalType": "bytes4",
          "name": "",
          "type": "bytes4"
        }
      ],
      "stateMutability": "pure",
      "type": "function"
    }
  ],
  "bytecode": "0x608060405234801561001057600080fd5b5061058b806100206000396000f3fe608060405234801561001057600080fd5b50600436106100575760003560e01c806301ffc9a71461005c57806383c17c5514610084578063966dae0e146100bb578063bc197c81146100e6578063f23a6e611461011e575b600080fd5b61006f61006a36600461026b565b610131565b60405190151581526020015b60405180910390f35b6100b96100923660046102b8565b600080546001600160a01b0319166001600160a01b03929092169190911790556003600155565b005b6000546100ce906001600160a01b031681565b6040516001600160a01b03909116815260200161007b565b6101056100f4366004610398565b63bc197c8160e01b95945050505050565b6040516001600160e01b0319909116815260200161007b565b61010561012c366004610497565b610168565b60006001600160e01b031982166301ffc9a760e01b148061016257506001600160e01b03198216630271189760e51b145b92915050565b604051627eeac760e11b8152306004820152602481018590526000908190339062fdd58e90604401602060405180830381865afa1580156101ad573d6000803e3d6000fd5b505050506040513d601f19601f820116820180604052508101906101d1919061053c565b905060015481101561025757600080546040516363bdb36160e11b815260016004820181905230602483015260448201526080606482015260848101929092526001600160a01b03169063c77b66c29060a401600060405180830381600087803b15801561023e57600080fd5b505af1158015610252573d6000803e3d6000fd5b505050505b5063f23a6e6160e01b979650505050505050565b60006020828403121561027d57600080fd5b81356001600160e01b03198116811461029557600080fd5b9392505050565b80356001600160a01b03811681146102b357600080fd5b919050565b6000602082840312156102ca57600080fd5b6102958261029c565b634e487b7160e01b600052604160045260246000fd5b604051601f8201601f191681016001600160401b0381118282101715610311576103116102d3565b604052919050565b600082601f83011261032a57600080fd5b813560206001600160401b03821115610345576103456102d3565b8160051b6103548282016102e9565b928352848101820192828101908785111561036e57600080fd5b83870192505b8483101561038d57823582529183019190830190610374565b979650505050505050565b600080600080600060a086880312156103b057600080fd5b6103b98661029c565b945060206103c881880161029c565b945060408701356001600160401b03808211156103e457600080fd5b6103f08a838b01610319565b9550606089013591508082111561040657600080fd5b6104128a838b01610319565b9450608089013591508082111561042857600080fd5b818901915089601f83011261043c57600080fd5b81358181111561044e5761044e6102d3565b610460601f8201601f191685016102e9565b91508082528a8482850101111561047657600080fd5b80848401858401376000848284010152508093505050509295509295909350565b60008060008060008060a087890312156104b057600080fd5b6104b98761029c565b95506104c76020880161029c565b9450604087013593506060870135925060808701356001600160401b03808211156104f157600080fd5b818901915089601f83011261050557600080fd5b81358181111561051457600080fd5b8a602082850101111561052657600080fd5b6020830194508093505050509295509295509295565b60006020828403121561054e57600080fd5b505191905056fea2646970667358221220e6f79626b69b9a23268cee77c12bc2c57e618a08a9bdefa9cd5eae4b40e048b364736f6c634300080f0033",
  "immutableReferences": {},
  "source": "// SPDX-License-Identifier: MIT\n\npragma solidity ^0.8.0;\n\nimport \"@openzeppelin/contracts/token/ERC1155/IERC1155Receiver.sol\";\n\nimport \"../BrokenFlowerAccessoryFactory.sol\";\n\n\ncontract TestForReentrancyAttack is IERC1155Receiver {\n    // bytes4(keccak256(\"onERC1155Received(address,address,uint256,uint256,bytes)\"))\n    bytes4 constant internal ERC1155_RECEIVED_SIG = 0xf23a6e61;\n    // bytes4(keccak256(\"onERC1155BatchReceived(address,address,uint256[],uint256[],bytes)\"))\n    bytes4 constant internal ERC1155_BATCH_RECEIVED_SIG = 0xbc197c81;\n    // bytes4(keccak256(\"onERC1155Received(address,address,uint256,uint256,bytes)\")) ^ bytes4(keccak256(\"onERC1155BatchReceived(address,address,uint256[],uint256[],bytes)\"))\n    bytes4 constant internal INTERFACE_ERC1155_RECEIVER_FULL = 0x4e2312e0;\n    //bytes4(keccak256('supportsInterface(bytes4)'))\n    bytes4 constant internal INTERFACE_ERC165 = 0x01ffc9a7;\n\n    address public factoryAddress;\n    uint256 private totalToMint;\n\n    constructor() {}\n\n    function setFactoryAddress(address _factoryAddress) external {\n        factoryAddress = _factoryAddress;\n        totalToMint = 3;\n    }\n\n    /*function attack(uint256 _totalToMint) external {\n        require(_totalToMint >= 2, \"_totalToMint must be >= 2\");\n        totalToMint = _totalToMint;\n        BrokenFlowerAccessoryFactory(factoryAddress).mint(1, address(this), 1, \"\");\n        }*/\n\n    // We attempt a reentrancy attack here by recursively calling the\n    // BrokenFlowerAccessoryFactory that created the BrokenFlowerAccessory ERC1155 token\n    // that we are receiving here.\n    // We expect this to fail if the BrokenFlowerAccessoryFactory.mint() function\n    // defends against reentrancy.\n\n    function onERC1155Received(\n        address /*_operator*/,\n        address /*_from*/,\n        uint256 _id,\n        uint256 /*_amount*/,\n        bytes calldata /*_data*/\n    )\n        override\n        external\n        returns(bytes4)\n    {\n        uint256 balance = IERC1155(msg.sender).balanceOf(address(this), _id);\n        if(balance < totalToMint)\n        {\n            // 1 is the factory lootbox option, not the token id\n            BrokenFlowerAccessoryFactory(factoryAddress)\n                .mint(1, address(this), 1, \"\");\n        }\n        return ERC1155_RECEIVED_SIG;\n    }\n\n    function supportsInterface(bytes4 interfaceID)\n        override\n        external\n        pure\n        returns (bool)\n    {\n        return interfaceID == INTERFACE_ERC165 ||\n            interfaceID == INTERFACE_ERC1155_RECEIVER_FULL;\n    }\n\n    // We don't use this but we need it for the interface\n\n    function onERC1155BatchReceived(address /*_operator*/, address /*_from*/, uint256[] memory /*_ids*/, uint256[] memory /*_values*/, bytes memory /*_data*/)\n        override public pure returns(bytes4)\n    {\n        return ERC1155_BATCH_RECEIVED_SIG;\n    }\n}\n",
  "sourcePath": "/home/jin/dev/BrokenFlowersApp/public/opensea/contracts/test/TestForReentrancyAttack.sol",
  "compiler": {
    "name": "solc",
    "version": "0.8.15+commit.e14f2714.Emscripten.clang"
  },
  "schemaVersion": "3.3.4",
  "updatedAt": "2022-07-08T16:20:58.000Z",
  "devdoc": {
    "kind": "dev",
    "methods": {},
    "version": 1
  },
  "userdoc": {
    "kind": "user",
    "methods": {},
    "version": 1
  }
}